{
  "_format": "hh-sol-artifact-1",
  "contractName": "TRIINL",
  "sourceName": "contracts/TRINLL.sol",
  "abi": [
    {
      "inputs": [
        {
          "internalType": "address",
          "name": "defaultAdmin",
          "type": "address"
        }
      ],
      "stateMutability": "nonpayable",
      "type": "constructor"
    },
    {
      "inputs": [],
      "name": "AccessControlBadConfirmation",
      "type": "error"
    },
    {
      "inputs": [
        {
          "internalType": "address",
          "name": "account",
          "type": "address"
        },
        {
          "internalType": "bytes32",
          "name": "neededRole",
          "type": "bytes32"
        }
      ],
      "name": "AccessControlUnauthorizedAccount",
      "type": "error"
    },
    {
      "inputs": [
        {
          "internalType": "address",
          "name": "sender",
          "type": "address"
        },
        {
          "internalType": "uint256",
          "name": "balance",
          "type": "uint256"
        },
        {
          "internalType": "uint256",
          "name": "needed",
          "type": "uint256"
        },
        {
          "internalType": "uint256",
          "name": "tokenId",
          "type": "uint256"
        }
      ],
      "name": "ERC1155InsufficientBalance",
      "type": "error"
    },
    {
      "inputs": [
        {
          "internalType": "address",
          "name": "approver",
          "type": "address"
        }
      ],
      "name": "ERC1155InvalidApprover",
      "type": "error"
    },
    {
      "inputs": [
        {
          "internalType": "uint256",
          "name": "idsLength",
          "type": "uint256"
        },
        {
          "internalType": "uint256",
          "name": "valuesLength",
          "type": "uint256"
        }
      ],
      "name": "ERC1155InvalidArrayLength",
      "type": "error"
    },
    {
      "inputs": [
        {
          "internalType": "address",
          "name": "operator",
          "type": "address"
        }
      ],
      "name": "ERC1155InvalidOperator",
      "type": "error"
    },
    {
      "inputs": [
        {
          "internalType": "address",
          "name": "receiver",
          "type": "address"
        }
      ],
      "name": "ERC1155InvalidReceiver",
      "type": "error"
    },
    {
      "inputs": [
        {
          "internalType": "address",
          "name": "sender",
          "type": "address"
        }
      ],
      "name": "ERC1155InvalidSender",
      "type": "error"
    },
    {
      "inputs": [
        {
          "internalType": "address",
          "name": "operator",
          "type": "address"
        },
        {
          "internalType": "address",
          "name": "owner",
          "type": "address"
        }
      ],
      "name": "ERC1155MissingApprovalForAll",
      "type": "error"
    },
    {
      "inputs": [],
      "name": "EnforcedPause",
      "type": "error"
    },
    {
      "inputs": [],
      "name": "ExpectedPause",
      "type": "error"
    },
    {
      "anonymous": false,
      "inputs": [
        {
          "indexed": true,
          "internalType": "address",
          "name": "account",
          "type": "address"
        },
        {
          "indexed": true,
          "internalType": "address",
          "name": "operator",
          "type": "address"
        },
        {
          "indexed": false,
          "internalType": "bool",
          "name": "approved",
          "type": "bool"
        }
      ],
      "name": "ApprovalForAll",
      "type": "event"
    },
    {
      "anonymous": false,
      "inputs": [
        {
          "indexed": false,
          "internalType": "uint256",
          "name": "bookId",
          "type": "uint256"
        },
        {
          "indexed": false,
          "internalType": "string",
          "name": "title",
          "type": "string"
        },
        {
          "indexed": false,
          "internalType": "string",
          "name": "uri",
          "type": "string"
        }
      ],
      "name": "BookCreated",
      "type": "event"
    },
    {
      "anonymous": false,
      "inputs": [
        {
          "indexed": false,
          "internalType": "uint256",
          "name": "bookId",
          "type": "uint256"
        },
        {
          "indexed": false,
          "internalType": "address",
          "name": "libraryFrom",
          "type": "address"
        },
        {
          "indexed": false,
          "internalType": "uint256",
          "name": "amount",
          "type": "uint256"
        }
      ],
      "name": "BookRestock",
      "type": "event"
    },
    {
      "anonymous": false,
      "inputs": [
        {
          "indexed": false,
          "internalType": "address",
          "name": "libraryAddress",
          "type": "address"
        },
        {
          "indexed": false,
          "internalType": "string",
          "name": "sigla",
          "type": "string"
        }
      ],
      "name": "LibraryRegistered",
      "type": "event"
    },
    {
      "anonymous": false,
      "inputs": [
        {
          "indexed": false,
          "internalType": "uint256",
          "name": "loanId",
          "type": "uint256"
        },
        {
          "indexed": false,
          "internalType": "address",
          "name": "libraryFrom",
          "type": "address"
        }
      ],
      "name": "LoanApproved",
      "type": "event"
    },
    {
      "anonymous": false,
      "inputs": [
        {
          "indexed": false,
          "internalType": "uint256",
          "name": "loanId",
          "type": "uint256"
        },
        {
          "indexed": false,
          "internalType": "address",
          "name": "user",
          "type": "address"
        },
        {
          "indexed": false,
          "internalType": "address",
          "name": "libraryFrom",
          "type": "address"
        },
        {
          "indexed": false,
          "internalType": "uint256",
          "name": "bookId",
          "type": "uint256"
        }
      ],
      "name": "LoanRequested",
      "type": "event"
    },
    {
      "anonymous": false,
      "inputs": [
        {
          "indexed": false,
          "internalType": "uint256",
          "name": "loanId",
          "type": "uint256"
        },
        {
          "indexed": false,
          "internalType": "address",
          "name": "libraryFrom",
          "type": "address"
        }
      ],
      "name": "LoanReturned",
      "type": "event"
    },
    {
      "anonymous": false,
      "inputs": [
        {
          "indexed": false,
          "internalType": "address",
          "name": "account",
          "type": "address"
        }
      ],
      "name": "Paused",
      "type": "event"
    },
    {
      "anonymous": false,
      "inputs": [
        {
          "indexed": true,
          "internalType": "bytes32",
          "name": "role",
          "type": "bytes32"
        },
        {
          "indexed": true,
          "internalType": "bytes32",
          "name": "previousAdminRole",
          "type": "bytes32"
        },
        {
          "indexed": true,
          "internalType": "bytes32",
          "name": "newAdminRole",
          "type": "bytes32"
        }
      ],
      "name": "RoleAdminChanged",
      "type": "event"
    },
    {
      "anonymous": false,
      "inputs": [
        {
          "indexed": true,
          "internalType": "bytes32",
          "name": "role",
          "type": "bytes32"
        },
        {
          "indexed": true,
          "internalType": "address",
          "name": "account",
          "type": "address"
        },
        {
          "indexed": true,
          "internalType": "address",
          "name": "sender",
          "type": "address"
        }
      ],
      "name": "RoleGranted",
      "type": "event"
    },
    {
      "anonymous": false,
      "inputs": [
        {
          "indexed": true,
          "internalType": "bytes32",
          "name": "role",
          "type": "bytes32"
        },
        {
          "indexed": true,
          "internalType": "address",
          "name": "account",
          "type": "address"
        },
        {
          "indexed": true,
          "internalType": "address",
          "name": "sender",
          "type": "address"
        }
      ],
      "name": "RoleRevoked",
      "type": "event"
    },
    {
      "anonymous": false,
      "inputs": [
        {
          "indexed": true,
          "internalType": "address",
          "name": "operator",
          "type": "address"
        },
        {
          "indexed": true,
          "internalType": "address",
          "name": "from",
          "type": "address"
        },
        {
          "indexed": true,
          "internalType": "address",
          "name": "to",
          "type": "address"
        },
        {
          "indexed": false,
          "internalType": "uint256[]",
          "name": "ids",
          "type": "uint256[]"
        },
        {
          "indexed": false,
          "internalType": "uint256[]",
          "name": "values",
          "type": "uint256[]"
        }
      ],
      "name": "TransferBatch",
      "type": "event"
    },
    {
      "anonymous": false,
      "inputs": [
        {
          "indexed": true,
          "internalType": "address",
          "name": "operator",
          "type": "address"
        },
        {
          "indexed": true,
          "internalType": "address",
          "name": "from",
          "type": "address"
        },
        {
          "indexed": true,
          "internalType": "address",
          "name": "to",
          "type": "address"
        },
        {
          "indexed": false,
          "internalType": "uint256",
          "name": "id",
          "type": "uint256"
        },
        {
          "indexed": false,
          "internalType": "uint256",
          "name": "value",
          "type": "uint256"
        }
      ],
      "name": "TransferSingle",
      "type": "event"
    },
    {
      "anonymous": false,
      "inputs": [
        {
          "indexed": false,
          "internalType": "string",
          "name": "value",
          "type": "string"
        },
        {
          "indexed": true,
          "internalType": "uint256",
          "name": "id",
          "type": "uint256"
        }
      ],
      "name": "URI",
      "type": "event"
    },
    {
      "anonymous": false,
      "inputs": [
        {
          "indexed": false,
          "internalType": "address",
          "name": "account",
          "type": "address"
        }
      ],
      "name": "Unpaused",
      "type": "event"
    },
    {
      "inputs": [],
      "name": "DEFAULT_ADMIN_ROLE",
      "outputs": [
        {
          "internalType": "bytes32",
          "name": "",
          "type": "bytes32"
        }
      ],
      "stateMutability": "view",
      "type": "function"
    },
    {
      "inputs": [],
      "name": "LIBRARY_ROLE",
      "outputs": [
        {
          "internalType": "bytes32",
          "name": "",
          "type": "bytes32"
        }
      ],
      "stateMutability": "view",
      "type": "function"
    },
    {
      "inputs": [],
      "name": "USER_ROLE",
      "outputs": [
        {
          "internalType": "bytes32",
          "name": "",
          "type": "bytes32"
        }
      ],
      "stateMutability": "view",
      "type": "function"
    },
    {
      "inputs": [
        {
          "internalType": "uint256",
          "name": "loanId",
          "type": "uint256"
        }
      ],
      "name": "approveLoan",
      "outputs": [],
      "stateMutability": "nonpayable",
      "type": "function"
    },
    {
      "inputs": [
        {
          "internalType": "address",
          "name": "account",
          "type": "address"
        },
        {
          "internalType": "uint256",
          "name": "id",
          "type": "uint256"
        }
      ],
      "name": "balanceOf",
      "outputs": [
        {
          "internalType": "uint256",
          "name": "",
          "type": "uint256"
        }
      ],
      "stateMutability": "view",
      "type": "function"
    },
    {
      "inputs": [
        {
          "internalType": "address[]",
          "name": "accounts",
          "type": "address[]"
        },
        {
          "internalType": "uint256[]",
          "name": "ids",
          "type": "uint256[]"
        }
      ],
      "name": "balanceOfBatch",
      "outputs": [
        {
          "internalType": "uint256[]",
          "name": "",
          "type": "uint256[]"
        }
      ],
      "stateMutability": "view",
      "type": "function"
    },
    {
      "inputs": [
        {
          "internalType": "uint256",
          "name": "",
          "type": "uint256"
        }
      ],
      "name": "books",
      "outputs": [
        {
          "internalType": "string",
          "name": "title",
          "type": "string"
        },
        {
          "internalType": "string",
          "name": "author",
          "type": "string"
        },
        {
          "internalType": "string",
          "name": "isbn",
          "type": "string"
        },
        {
          "internalType": "string",
          "name": "doi",
          "type": "string"
        },
        {
          "internalType": "string",
          "name": "ano",
          "type": "string"
        },
        {
          "internalType": "string",
          "name": "uri",
          "type": "string"
        },
        {
          "internalType": "address",
          "name": "instituicao",
          "type": "address"
        }
      ],
      "stateMutability": "view",
      "type": "function"
    },
    {
      "inputs": [
        {
          "internalType": "address",
          "name": "account",
          "type": "address"
        },
        {
          "internalType": "uint256",
          "name": "id",
          "type": "uint256"
        },
        {
          "internalType": "uint256",
          "name": "value",
          "type": "uint256"
        }
      ],
      "name": "burn",
      "outputs": [],
      "stateMutability": "nonpayable",
      "type": "function"
    },
    {
      "inputs": [
        {
          "internalType": "address",
          "name": "account",
          "type": "address"
        },
        {
          "internalType": "uint256[]",
          "name": "ids",
          "type": "uint256[]"
        },
        {
          "internalType": "uint256[]",
          "name": "values",
          "type": "uint256[]"
        }
      ],
      "name": "burnBatch",
      "outputs": [],
      "stateMutability": "nonpayable",
      "type": "function"
    },
    {
      "inputs": [
        {
          "internalType": "uint256",
          "name": "id",
          "type": "uint256"
        }
      ],
      "name": "exists",
      "outputs": [
        {
          "internalType": "bool",
          "name": "",
          "type": "bool"
        }
      ],
      "stateMutability": "view",
      "type": "function"
    },
    {
      "inputs": [
        {
          "internalType": "uint256",
          "name": "bookId",
          "type": "uint256"
        }
      ],
      "name": "getBook",
      "outputs": [
        {
          "components": [
            {
              "internalType": "string",
              "name": "title",
              "type": "string"
            },
            {
              "internalType": "string",
              "name": "author",
              "type": "string"
            },
            {
              "internalType": "string",
              "name": "isbn",
              "type": "string"
            },
            {
              "internalType": "string",
              "name": "doi",
              "type": "string"
            },
            {
              "internalType": "string",
              "name": "ano",
              "type": "string"
            },
            {
              "internalType": "string",
              "name": "uri",
              "type": "string"
            },
            {
              "internalType": "address",
              "name": "instituicao",
              "type": "address"
            }
          ],
          "internalType": "struct TRIINL.Book",
          "name": "",
          "type": "tuple"
        }
      ],
      "stateMutability": "view",
      "type": "function"
    },
    {
      "inputs": [
        {
          "internalType": "address",
          "name": "libraryAddress",
          "type": "address"
        }
      ],
      "name": "getLibrary",
      "outputs": [
        {
          "internalType": "string",
          "name": "name",
          "type": "string"
        },
        {
          "internalType": "string",
          "name": "sigla",
          "type": "string"
        },
        {
          "internalType": "bool",
          "name": "isActive",
          "type": "bool"
        }
      ],
      "stateMutability": "view",
      "type": "function"
    },
    {
      "inputs": [
        {
          "internalType": "bytes32",
          "name": "role",
          "type": "bytes32"
        }
      ],
      "name": "getRoleAdmin",
      "outputs": [
        {
          "internalType": "bytes32",
          "name": "",
          "type": "bytes32"
        }
      ],
      "stateMutability": "view",
      "type": "function"
    },
    {
      "inputs": [
        {
          "internalType": "bytes32",
          "name": "role",
          "type": "bytes32"
        },
        {
          "internalType": "address",
          "name": "account",
          "type": "address"
        }
      ],
      "name": "grantRole",
      "outputs": [],
      "stateMutability": "nonpayable",
      "type": "function"
    },
    {
      "inputs": [
        {
          "internalType": "bytes32",
          "name": "role",
          "type": "bytes32"
        },
        {
          "internalType": "address",
          "name": "account",
          "type": "address"
        }
      ],
      "name": "hasRole",
      "outputs": [
        {
          "internalType": "bool",
          "name": "",
          "type": "bool"
        }
      ],
      "stateMutability": "view",
      "type": "function"
    },
    {
      "inputs": [
        {
          "internalType": "address",
          "name": "account",
          "type": "address"
        },
        {
          "internalType": "address",
          "name": "operator",
          "type": "address"
        }
      ],
      "name": "isApprovedForAll",
      "outputs": [
        {
          "internalType": "bool",
          "name": "",
          "type": "bool"
        }
      ],
      "stateMutability": "view",
      "type": "function"
    },
    {
      "inputs": [
        {
          "internalType": "address",
          "name": "",
          "type": "address"
        }
      ],
      "name": "libraries",
      "outputs": [
        {
          "internalType": "string",
          "name": "name",
          "type": "string"
        },
        {
          "internalType": "string",
          "name": "sigla",
          "type": "string"
        },
        {
          "internalType": "bool",
          "name": "isActive",
          "type": "bool"
        }
      ],
      "stateMutability": "view",
      "type": "function"
    },
    {
      "inputs": [
        {
          "internalType": "uint256",
          "name": "",
          "type": "uint256"
        }
      ],
      "name": "loanRequests",
      "outputs": [
        {
          "internalType": "address",
          "name": "user",
          "type": "address"
        },
        {
          "internalType": "address",
          "name": "libraryFrom",
          "type": "address"
        },
        {
          "internalType": "uint256",
          "name": "bookId",
          "type": "uint256"
        },
        {
          "internalType": "uint256",
          "name": "amount",
          "type": "uint256"
        },
        {
          "internalType": "uint8",
          "name": "status",
          "type": "uint8"
        }
      ],
      "stateMutability": "view",
      "type": "function"
    },
    {
      "inputs": [
        {
          "internalType": "uint256",
          "name": "amount",
          "type": "uint256"
        },
        {
          "internalType": "string",
          "name": "title",
          "type": "string"
        },
        {
          "internalType": "string",
          "name": "author",
          "type": "string"
        },
        {
          "internalType": "string",
          "name": "isbn",
          "type": "string"
        },
        {
          "internalType": "string",
          "name": "doi",
          "type": "string"
        },
        {
          "internalType": "string",
          "name": "ano",
          "type": "string"
        },
        {
          "internalType": "string",
          "name": "uriSuffix",
          "type": "string"
        }
      ],
      "name": "mint",
      "outputs": [],
      "stateMutability": "nonpayable",
      "type": "function"
    },
    {
      "inputs": [
        {
          "internalType": "uint256",
          "name": "amount",
          "type": "uint256"
        },
        {
          "internalType": "uint256",
          "name": "id",
          "type": "uint256"
        }
      ],
      "name": "mintRestock",
      "outputs": [],
      "stateMutability": "nonpayable",
      "type": "function"
    },
    {
      "inputs": [],
      "name": "nextBookId",
      "outputs": [
        {
          "internalType": "uint256",
          "name": "",
          "type": "uint256"
        }
      ],
      "stateMutability": "view",
      "type": "function"
    },
    {
      "inputs": [],
      "name": "nextLoanId",
      "outputs": [
        {
          "internalType": "uint256",
          "name": "",
          "type": "uint256"
        }
      ],
      "stateMutability": "view",
      "type": "function"
    },
    {
      "inputs": [],
      "name": "pause",
      "outputs": [],
      "stateMutability": "nonpayable",
      "type": "function"
    },
    {
      "inputs": [],
      "name": "paused",
      "outputs": [
        {
          "internalType": "bool",
          "name": "",
          "type": "bool"
        }
      ],
      "stateMutability": "view",
      "type": "function"
    },
    {
      "inputs": [
        {
          "internalType": "address",
          "name": "libraryAddress",
          "type": "address"
        },
        {
          "internalType": "string",
          "name": "name",
          "type": "string"
        },
        {
          "internalType": "string",
          "name": "sigla",
          "type": "string"
        }
      ],
      "name": "registerLibrary",
      "outputs": [],
      "stateMutability": "nonpayable",
      "type": "function"
    },
    {
      "inputs": [
        {
          "internalType": "bytes32",
          "name": "role",
          "type": "bytes32"
        },
        {
          "internalType": "address",
          "name": "callerConfirmation",
          "type": "address"
        }
      ],
      "name": "renounceRole",
      "outputs": [],
      "stateMutability": "nonpayable",
      "type": "function"
    },
    {
      "inputs": [
        {
          "internalType": "address",
          "name": "libraryFrom",
          "type": "address"
        },
        {
          "internalType": "uint256",
          "name": "bookId",
          "type": "uint256"
        },
        {
          "internalType": "uint256",
          "name": "amount",
          "type": "uint256"
        }
      ],
      "name": "requestLoan",
      "outputs": [
        {
          "internalType": "uint256",
          "name": "",
          "type": "uint256"
        }
      ],
      "stateMutability": "nonpayable",
      "type": "function"
    },
    {
      "inputs": [
        {
          "internalType": "uint256",
          "name": "loanId",
          "type": "uint256"
        }
      ],
      "name": "returnLoan",
      "outputs": [],
      "stateMutability": "nonpayable",
      "type": "function"
    },
    {
      "inputs": [
        {
          "internalType": "bytes32",
          "name": "role",
          "type": "bytes32"
        },
        {
          "internalType": "address",
          "name": "account",
          "type": "address"
        }
      ],
      "name": "revokeRole",
      "outputs": [],
      "stateMutability": "nonpayable",
      "type": "function"
    },
    {
      "inputs": [
        {
          "internalType": "address",
          "name": "from",
          "type": "address"
        },
        {
          "internalType": "address",
          "name": "to",
          "type": "address"
        },
        {
          "internalType": "uint256[]",
          "name": "ids",
          "type": "uint256[]"
        },
        {
          "internalType": "uint256[]",
          "name": "values",
          "type": "uint256[]"
        },
        {
          "internalType": "bytes",
          "name": "data",
          "type": "bytes"
        }
      ],
      "name": "safeBatchTransferFrom",
      "outputs": [],
      "stateMutability": "nonpayable",
      "type": "function"
    },
    {
      "inputs": [
        {
          "internalType": "address",
          "name": "from",
          "type": "address"
        },
        {
          "internalType": "address",
          "name": "to",
          "type": "address"
        },
        {
          "internalType": "uint256",
          "name": "id",
          "type": "uint256"
        },
        {
          "internalType": "uint256",
          "name": "value",
          "type": "uint256"
        },
        {
          "internalType": "bytes",
          "name": "data",
          "type": "bytes"
        }
      ],
      "name": "safeTransferFrom",
      "outputs": [],
      "stateMutability": "nonpayable",
      "type": "function"
    },
    {
      "inputs": [],
      "name": "selfRegisterAsUser",
      "outputs": [],
      "stateMutability": "nonpayable",
      "type": "function"
    },
    {
      "inputs": [
        {
          "internalType": "address",
          "name": "operator",
          "type": "address"
        },
        {
          "internalType": "bool",
          "name": "approved",
          "type": "bool"
        }
      ],
      "name": "setApprovalForAll",
      "outputs": [],
      "stateMutability": "nonpayable",
      "type": "function"
    },
    {
      "inputs": [
        {
          "internalType": "string",
          "name": "newuri",
          "type": "string"
        }
      ],
      "name": "setURI",
      "outputs": [],
      "stateMutability": "nonpayable",
      "type": "function"
    },
    {
      "inputs": [
        {
          "internalType": "bytes4",
          "name": "interfaceId",
          "type": "bytes4"
        }
      ],
      "name": "supportsInterface",
      "outputs": [
        {
          "internalType": "bool",
          "name": "",
          "type": "bool"
        }
      ],
      "stateMutability": "view",
      "type": "function"
    },
    {
      "inputs": [],
      "name": "totalSupply",
      "outputs": [
        {
          "internalType": "uint256",
          "name": "",
          "type": "uint256"
        }
      ],
      "stateMutability": "view",
      "type": "function"
    },
    {
      "inputs": [
        {
          "internalType": "uint256",
          "name": "id",
          "type": "uint256"
        }
      ],
      "name": "totalSupply",
      "outputs": [
        {
          "internalType": "uint256",
          "name": "",
          "type": "uint256"
        }
      ],
      "stateMutability": "view",
      "type": "function"
    },
    {
      "inputs": [
        {
          "internalType": "address",
          "name": "from",
          "type": "address"
        },
        {
          "internalType": "address",
          "name": "to",
          "type": "address"
        },
        {
          "internalType": "uint256",
          "name": "id",
          "type": "uint256"
        },
        {
          "internalType": "uint256",
          "name": "amount",
          "type": "uint256"
        },
        {
          "internalType": "bytes",
          "name": "data",
          "type": "bytes"
        }
      ],
      "name": "transferBetweenLibraries",
      "outputs": [],
      "stateMutability": "nonpayable",
      "type": "function"
    },
    {
      "inputs": [],
      "name": "unpause",
      "outputs": [],
      "stateMutability": "nonpayable",
      "type": "function"
    },
    {
      "inputs": [
        {
          "internalType": "uint256",
          "name": "",
          "type": "uint256"
        }
      ],
      "name": "uri",
      "outputs": [
        {
          "internalType": "string",
          "name": "",
          "type": "string"
        }
      ],
      "stateMutability": "view",
      "type": "function"
    }
  ],
  "bytecode": "0x608060405234801561001057600080fd5b50604051613d24380380613d2483398101604081905261002f916101cc565b6040518060600160405280603d8152602001613cc7603d9139610051816100c1565b5061005d6000826100d1565b50610076600080516020613d04833981519152826100d1565b50610090600080516020613d048339815191526000610181565b6100bb7f14823911f2da1b49f045a0929a60b8c1f2a7fc8c06c7284ca3e8ab4e193a08c86000610181565b50610359565b60026100cd828261029b565b5050565b60008281526003602090815260408083206001600160a01b038516845290915281205460ff166101775760008381526003602090815260408083206001600160a01b03861684529091529020805460ff1916600117905561012f3390565b6001600160a01b0316826001600160a01b0316847f2f8788117e7eff1d82e926ec794901d17c78024a50270940304540a733656f0d60405160405180910390a450600161017b565b5060005b92915050565b600082815260036020526040808220600101805490849055905190918391839186917fbd79b86ffe0ab8e8776151514217cd7cacd52c909f66475c3af44e129f0b00ff9190a4505050565b6000602082840312156101de57600080fd5b81516001600160a01b03811681146101f557600080fd5b9392505050565b634e487b7160e01b600052604160045260246000fd5b600181811c9082168061022657607f821691505b60208210810361024657634e487b7160e01b600052602260045260246000fd5b50919050565b601f82111561029657806000526020600020601f840160051c810160208510156102735750805b601f840160051c820191505b81811015610293576000815560010161027f565b50505b505050565b81516001600160401b038111156102b4576102b46101fc565b6102c8816102c28454610212565b8461024c565b6020601f8211600181146102fc57600083156102e45750848201515b600019600385901b1c1916600184901b178455610293565b600084815260208120601f198516915b8281101561032c578785015182556020948501946001909201910161030c565b508482101561034a5786840151600019600387901b60f8161c191681555b50505050600190811b01905550565b61395f806103686000396000f3fe608060405234801561001057600080fd5b50600436106102475760003560e01c80638456cb591161013b578063d547741f116100b8578063f242432a1161007c578063f242432a146105aa578063f4c9ec45146105bd578063f5298aca146105c5578063f6933078146105d8578063f7d34803146105eb57600080fd5b8063d547741f1461053e578063d9ea610f14610551578063e0ff5b8b14610564578063e912615414610584578063e985e9c51461059757600080fd5b8063a217fddf116100ff578063a217fddf1461046e578063a22cb46514610476578063aadc1ac114610489578063bd85b0391461049c578063d1b332f4146104bc57600080fd5b80638456cb591461042257806387c514591461042a5780638dd25c9a1461043357806391d14854146104485780639422c9101461045b57600080fd5b806336568abe116101c9578063687440461161018d57806368744046146103ba5780636b20c454146103e05780636f77ff55146103f35780637bfa3753146104065780637cf52d961461041957600080fd5b806336568abe146103525780633f4ba83a146103655780634e1273f41461036d5780634f558e791461038d5780635c975abb146103af57600080fd5b806318160ddd1161021057806318160ddd146102df57806321df30e1146102e7578063248a9ca3146103095780632eb2c2d61461032c5780632f2ff15d1461033f57600080fd5b8062fdd58e1461024c57806301ffc9a71461027257806302fe5305146102955780630e89341c146102aa57806313119161146102ca575b600080fd5b61025f61025a366004612cc0565b6105fe565b6040519081526020015b60405180910390f35b610285610280366004612d00565b610626565b6040519015158152602001610269565b6102a86102a3366004612dd9565b610631565b005b6102bd6102b8366004612e15565b610649565b6040516102699190612e7e565b61025f60008051602061390a83398151915281565b60065461025f565b6102fa6102f5366004612e91565b6106dd565b60405161026993929190612eac565b61025f610317366004612e15565b60009081526003602052604090206001015490565b6102a861033a366004612f74565b610812565b6102a861034d366004613027565b61087e565b6102a8610360366004613027565b6108a9565b6102a86108e1565b61038061037b366004613053565b6108f7565b6040516102699190613156565b61028561039b366004612e15565b600090815260056020526040902054151590565b60045460ff16610285565b6103cd6103c8366004612e15565b6109c3565b6040516102699796959493929190613169565b6102a86103ee3660046131fb565b610d36565b61025f610401366004613272565b610d95565b6102fa610414366004612e91565b610f85565b61025f600b5481565b6102a8611156565b61025f600a5481565b61025f6000805160206138ea83398151915281565b610285610456366004613027565b611169565b6102a86104693660046132a5565b611194565b61025f600081565b6102a86104843660046133c0565b611524565b6102a8610497366004612e15565b61152f565b61025f6104aa366004612e15565b60009081526005602052604090205490565b6105086104ca366004612e15565b600960205260009081526040902080546001820154600283015460038401546004909401546001600160a01b03938416949390921692909160ff1685565b604080516001600160a01b03968716815295909416602086015292840191909152606083015260ff16608082015260a001610269565b6102a861054c366004613027565b61166b565b6102a861055f3660046133fc565b611690565b610577610572366004612e15565b61177b565b604051610269919061341e565b6102a8610592366004612e15565b611bc1565b6102856105a53660046134ed565b611cca565b6102a86105b8366004613517565b611cf8565b6102a8611d57565b6102a86105d3366004613272565b611dcc565b6102a86105e636600461356f565b611e02565b6102a86105f9366004613517565b611f82565b6000818152602081815260408083206001600160a01b03861684529091529020545b92915050565b600061062082612050565b600061063c81612075565b6106458261207f565b5050565b606060028054610658906135dc565b80601f0160208091040260200160405190810160405280929190818152602001828054610684906135dc565b80156106d15780601f106106a6576101008083540402835291602001916106d1565b820191906000526020600020905b8154815290600101906020018083116106b457829003601f168201915b50505050509050919050565b6008602052600090815260409020805481906106f8906135dc565b80601f0160208091040260200160405190810160405280929190818152602001828054610724906135dc565b80156107715780601f1061074657610100808354040283529160200191610771565b820191906000526020600020905b81548152906001019060200180831161075457829003601f168201915b505050505090806001018054610786906135dc565b80601f01602080910402602001604051908101604052809291908181526020018280546107b2906135dc565b80156107ff5780601f106107d4576101008083540402835291602001916107ff565b820191906000526020600020905b8154815290600101906020018083116107e257829003601f168201915b5050506002909301549192505060ff1683565b336001600160a01b038616811480159061083357506108318682611cca565b155b156108695760405163711bec9160e11b81526001600160a01b038083166004830152871660248201526044015b60405180910390fd5b610876868686868661208b565b505050505050565b60008281526003602052604090206001015461089981612075565b6108a383836120f2565b50505050565b6001600160a01b03811633146108d25760405163334bd91960e11b815260040160405180910390fd5b6108dc8282612186565b505050565b60006108ec81612075565b6108f46121f3565b50565b606081518351146109285781518351604051635b05999160e01b815260048101929092526024820152604401610860565b600083516001600160401b0381111561094357610943612d1d565b60405190808252806020026020018201604052801561096c578160200160208202803683370190505b50905060005b84518110156109bb57602080820286010151610996906020808402870101516105fe565b8282815181106109a8576109a8613616565b6020908102919091010152600101610972565b509392505050565b6007602052600090815260409020805481906109de906135dc565b80601f0160208091040260200160405190810160405280929190818152602001828054610a0a906135dc565b8015610a575780601f10610a2c57610100808354040283529160200191610a57565b820191906000526020600020905b815481529060010190602001808311610a3a57829003601f168201915b505050505090806001018054610a6c906135dc565b80601f0160208091040260200160405190810160405280929190818152602001828054610a98906135dc565b8015610ae55780601f10610aba57610100808354040283529160200191610ae5565b820191906000526020600020905b815481529060010190602001808311610ac857829003601f168201915b505050505090806002018054610afa906135dc565b80601f0160208091040260200160405190810160405280929190818152602001828054610b26906135dc565b8015610b735780601f10610b4857610100808354040283529160200191610b73565b820191906000526020600020905b815481529060010190602001808311610b5657829003601f168201915b505050505090806003018054610b88906135dc565b80601f0160208091040260200160405190810160405280929190818152602001828054610bb4906135dc565b8015610c015780601f10610bd657610100808354040283529160200191610c01565b820191906000526020600020905b815481529060010190602001808311610be457829003601f168201915b505050505090806004018054610c16906135dc565b80601f0160208091040260200160405190810160405280929190818152602001828054610c42906135dc565b8015610c8f5780601f10610c6457610100808354040283529160200191610c8f565b820191906000526020600020905b815481529060010190602001808311610c7257829003601f168201915b505050505090806005018054610ca4906135dc565b80601f0160208091040260200160405190810160405280929190818152602001828054610cd0906135dc565b8015610d1d5780601f10610cf257610100808354040283529160200191610d1d565b820191906000526020600020905b815481529060010190602001808311610d0057829003601f168201915b505050600690930154919250506001600160a01b031687565b6001600160a01b0383163314801590610d565750610d548333611cca565b155b15610d8a57335b60405163711bec9160e11b81526001600160a01b0391821660048201529084166024820152604401610860565b6108dc838383612245565b600060008051602061390a833981519152610daf81612075565b6001600160a01b03851660009081526008602052604090206002015460ff168015610df2575060008481526007602052604081208054610dee906135dc565b9050115b610e3e5760405162461bcd60e51b815260206004820152601760248201527f496e76616c6964206c696272617279206f7220626f6f6b0000000000000000006044820152606401610860565b82610e4986866105fe565b1015610e8c5760405162461bcd60e51b8152602060048201526012602482015271496e73756666696369656e7420626f6f6b7360701b6044820152606401610860565b600a805460009182610e9d83613642565b909155506040805160a081018252338082526001600160a01b038a811660208085018281528587018d815260608088018e815260006080808b018281528d835260098852918c90209a518b54908a166001600160a01b0319918216178c55955160018c01805491909a16961695909517909755915160028901559051600388015593516004909601805460ff90971660ff199097169690961790955585518781529081019390935282850152810189905291519293507fdc60aa6fe6ea1316bf5acc811851e823e68d2aa48e0b9e4ecc3650b38b9303f692918290030190a195945050505050565b60608060008060086000866001600160a01b03166001600160a01b03168152602001908152602001600020604051806060016040529081600082018054610fcb906135dc565b80601f0160208091040260200160405190810160405280929190818152602001828054610ff7906135dc565b80156110445780601f1061101957610100808354040283529160200191611044565b820191906000526020600020905b81548152906001019060200180831161102757829003601f168201915b5050505050815260200160018201805461105d906135dc565b80601f0160208091040260200160405190810160405280929190818152602001828054611089906135dc565b80156110d65780601f106110ab576101008083540402835291602001916110d6565b820191906000526020600020905b8154815290600101906020018083116110b957829003601f168201915b50505091835250506002919091015460ff161515602090910152604081015190915061113d5760405162461bcd60e51b8152602060048201526016602482015275131a589c985c9e48191bd95cc81b9bdd08195e1a5cdd60521b6044820152606401610860565b8051602082015160409092015190969195509350915050565b600061116181612075565b6108f461228b565b60009182526003602090815260408084206001600160a01b0393909316845291905290205460ff1690565b6000805160206138ea8339815191526111ac81612075565b3360009081526008602052604090206002015460ff166112005760405162461bcd60e51b815260206004820152600f60248201526e496e76616c6964206c69627261727960881b6044820152606401610860565b60005b600b5481101561131957600081815260076020526040902060030180546112b2919061122e906135dc565b80601f016020809104026020016040519081016040528092919081815260200182805461125a906135dc565b80156112a75780601f1061127c576101008083540402835291602001916112a7565b820191906000526020600020905b81548152906001019060200180831161128a57829003601f168201915b5050505050866122c8565b80156112d757506000818152600760205260409020600601546001600160a01b031633145b6113115760405162461bcd60e51b815260206004820152600b60248201526a426f6f6b2065786973747360a81b6044820152606401610860565b600101611203565b506000875111801561132c575060008651115b8015611339575060008551115b8015611346575060008451115b8015611353575060008351115b8015611360575060008251115b6113a05760405162461bcd60e51b8152602060048201526011602482015270496e76616c696420626f6f6b206461746160781b6044820152606401610860565b600b8054600091826113b183613642565b91905055905060006113c282610649565b905060006113d082866122db565b6040805160e0810182528c815260208082018d90528183018c9052606082018b9052608082018a905260a082018490523360c0830152600087815260079091529190912081519293509091819061142790826136a2565b506020820151600182019061143c90826136a2565b506040820151600282019061145190826136a2565b506060820151600382019061146690826136a2565b506080820151600482019061147b90826136a2565b5060a0820151600582019061149090826136a2565b5060c08201518160060160006101000a8154816001600160a01b0302191690836001600160a01b031602179055509050506114dc33848d60405180602001604052806000815250612307565b7fcbe5936ec06de2986c1aa5d74408856f909925ef01eed727f339a9070ab7721f838b8360405161150f93929190613760565b60405180910390a15050505050505050505050565b610645338383612364565b6000805160206138ea83398151915261154781612075565b600082815260096020526040902060018101546001600160a01b0316331480156115765750600481015460ff16155b6115b55760405162461bcd60e51b815260206004820152601060248201526f125b9d985b1a5908185c1c1c9bdd985b60821b6044820152606401610860565b80600301546115c83383600201546105fe565b101561160b5760405162461bcd60e51b8152602060048201526012602482015271496e73756666696369656e7420626f6f6b7360701b6044820152606401610860565b61161e33826002015483600301546123fa565b60048101805460ff19166001179055604080518481523360208201527f8b6240997bc3af56f5a9aec0408b8286fb78fb0573f2ba96445be3918511cb9391015b60405180910390a1505050565b60008281526003602052604090206001015461168681612075565b6108a38383612186565b6000805160206138ea8339815191526116a881612075565b6000828152600760205260409020600601546001600160a01b031633146117235760405162461bcd60e51b815260206004820152602960248201527f426f6f6b20696e737469747574696f6e20697320646966666572656e7420667260448201526837b69039b2b73232b960b91b6064820152608401610860565b61173e33838560405180602001604052806000815250612307565b604080518381523360208201529081018490527f99e23e33558426ecf51fabd188eadef462211a2e0b471be788af57799f05fada9060600161165e565b6117c46040518060e0016040528060608152602001606081526020016060815260200160608152602001606081526020016060815260200160006001600160a01b031681525090565b600082815260076020526040812080546117dd906135dc565b9050116118225760405162461bcd60e51b8152602060048201526013602482015272109bdbdac8191bd95cc81b9bdd08195e1a5cdd606a1b6044820152606401610860565b60008281526007602052604090819020815160e0810190925280548290829061184a906135dc565b80601f0160208091040260200160405190810160405280929190818152602001828054611876906135dc565b80156118c35780601f10611898576101008083540402835291602001916118c3565b820191906000526020600020905b8154815290600101906020018083116118a657829003601f168201915b505050505081526020016001820180546118dc906135dc565b80601f0160208091040260200160405190810160405280929190818152602001828054611908906135dc565b80156119555780601f1061192a57610100808354040283529160200191611955565b820191906000526020600020905b81548152906001019060200180831161193857829003601f168201915b5050505050815260200160028201805461196e906135dc565b80601f016020809104026020016040519081016040528092919081815260200182805461199a906135dc565b80156119e75780601f106119bc576101008083540402835291602001916119e7565b820191906000526020600020905b8154815290600101906020018083116119ca57829003601f168201915b50505050508152602001600382018054611a00906135dc565b80601f0160208091040260200160405190810160405280929190818152602001828054611a2c906135dc565b8015611a795780601f10611a4e57610100808354040283529160200191611a79565b820191906000526020600020905b815481529060010190602001808311611a5c57829003601f168201915b50505050508152602001600482018054611a92906135dc565b80601f0160208091040260200160405190810160405280929190818152602001828054611abe906135dc565b8015611b0b5780601f10611ae057610100808354040283529160200191611b0b565b820191906000526020600020905b815481529060010190602001808311611aee57829003601f168201915b50505050508152602001600582018054611b24906135dc565b80601f0160208091040260200160405190810160405280929190818152602001828054611b50906135dc565b8015611b9d5780601f10611b7257610100808354040283529160200191611b9d565b820191906000526020600020905b815481529060010190602001808311611b8057829003601f168201915b5050509183525050600691909101546001600160a01b031660209091015292915050565b60008051602061390a833981519152611bd981612075565b600082815260096020526040902080546001600160a01b031633148015611c075750600481015460ff166001145b611c445760405162461bcd60e51b815260206004820152600e60248201526d24b73b30b634b2103932ba3ab93760911b6044820152606401610860565b600181015460028201546003830154604080516020810190915260008152611c77936001600160a01b0316929190612307565b60048101805460ff191660021790556001810154604080518581526001600160a01b0390921660208301527fad4162e5033b7bb713e12d20782e2d719000e0c997983a11328616e82c93be03910161165e565b6001600160a01b03918216600090815260016020908152604080832093909416825291909152205460ff1690565b336001600160a01b0386168114801590611d195750611d178682611cca565b155b15611d4a5760405163711bec9160e11b81526001600160a01b03808316600483015287166024820152604401610860565b6108768686868686612462565b611d6f60008051602061390a83398151915233611169565b15611db45760405162461bcd60e51b8152602060048201526015602482015274416c72656164792068617320555345525f524f4c4560581b6044820152606401610860565b6108f460008051602061390a833981519152336120f2565b6001600160a01b0383163314801590611dec5750611dea8333611cca565b155b15611df75733610d5d565b6108dc8383836123fa565b6000611e0d81612075565b6001600160a01b03841660009081526008602052604090206002015460ff1615611e6a5760405162461bcd60e51b815260206004820152600e60248201526d4c6962726172792065786973747360901b6044820152606401610860565b60008351118015611e7c575060008251115b611eb85760405162461bcd60e51b815260206004820152600d60248201526c125b9d985b1a59081a5b9c1d5d609a1b6044820152606401610860565b6040805160608101825284815260208082018590526001828401526001600160a01b038716600090815260089091529190912081518190611ef990826136a2565b5060208201516001820190611f0e90826136a2565b50604091909101516002909101805460ff1916911515919091179055611f426000805160206138ea833981519152856120f2565b507ff713003e0dece41fa86d4283426f7363d0a7e2012e3203c503b9946226de6bdf8483604051611f74929190613795565b60405180910390a150505050565b6000805160206138ea833981519152611f9a81612075565b6001600160a01b03861660009081526008602052604090206002015460ff168015611fe057506001600160a01b03851660009081526008602052604090206002015460ff165b8015612004575060008481526007602052604081208054612000906135dc565b9050115b6120435760405162461bcd60e51b815260206004820152601060248201526f24b73b30b634b2103a3930b739b332b960811b6044820152606401610860565b6108768686868686611cf8565b60006001600160e01b03198216637965db0b60e01b14806106205750610620826124f0565b6108f48133612540565b600261064582826136a2565b6001600160a01b0384166120b557604051632bfa23e760e11b815260006004820152602401610860565b6001600160a01b0385166120de57604051626a0d4560e21b815260006004820152602401610860565b6120eb8585858585612579565b5050505050565b60006120fe8383611169565b61217e5760008381526003602090815260408083206001600160a01b03861684529091529020805460ff191660011790556121363390565b6001600160a01b0316826001600160a01b0316847f2f8788117e7eff1d82e926ec794901d17c78024a50270940304540a733656f0d60405160405180910390a4506001610620565b506000610620565b60006121928383611169565b1561217e5760008381526003602090815260408083206001600160a01b0386168085529252808320805460ff1916905551339286917ff6391f5c32d9c69d2a47ea670b442974b53935d1edc7fd64eb21e047a839171b9190a4506001610620565b6121fb6125cc565b6004805460ff191690557f5db9ee0a495bf2e6ff9c91a7834c1ba4fdd244a5e8aa4e537bd38aeae4b073aa335b6040516001600160a01b03909116815260200160405180910390a1565b6001600160a01b03831661226e57604051626a0d4560e21b815260006004820152602401610860565b6108dc836000848460405180602001604052806000815250612579565b6122936125f1565b6004805460ff191660011790557f62e78cea01bee320cd4e420270b5ea74000d11b0c9f74754ebdbfc544b05a2586122283390565b60006122d48383612615565b9392505050565b606082826040516020016122f09291906137b9565b604051602081830303815290604052905092915050565b6001600160a01b03841661233157604051632bfa23e760e11b815260006004820152602401610860565b60408051600180825260208201869052818301908152606082018590526080820190925290610876600087848487612579565b6001600160a01b03821661238d5760405162ced3e160e81b815260006004820152602401610860565b6001600160a01b03838116600081815260016020908152604080832094871680845294825291829020805460ff191686151590811790915591519182527f17307eab39ab6107e8899845ad3d59bd9653f200f220920489ca2b5937696c31910160405180910390a3505050565b6001600160a01b03831661242357604051626a0d4560e21b815260006004820152602401610860565b604080516001808252602082018590528183019081526060820184905260a082019092526000608082018181529192916120eb91879185908590612579565b6001600160a01b03841661248c57604051632bfa23e760e11b815260006004820152602401610860565b6001600160a01b0385166124b557604051626a0d4560e21b815260006004820152602401610860565b604080516001808252602082018690528183019081526060820185905260808201909252906124e78787848487612579565b50505050505050565b60006001600160e01b03198216636cdb3d1360e11b148061252157506001600160e01b031982166303a24d0760e21b145b8061062057506301ffc9a760e01b6001600160e01b0319831614610620565b61254a8282611169565b6106455760405163e2517d3f60e01b81526001600160a01b038216600482015260248101839052604401610860565b6125858585858561263a565b6001600160a01b038416156120eb57825133906001036125be57602084810151908401516125b7838989858589612788565b5050610876565b6108768187878787876128ac565b60045460ff166125ef57604051638dfc202b60e01b815260040160405180910390fd5b565b60045460ff16156125ef5760405163d93c066560e01b815260040160405180910390fd5b6000815183511480156122d45750508051602091820120825192909101919091201490565b6001600160a01b0384161580159061265a57506001600160a01b03831615155b1561277c576001600160a01b03841660009081526008602052604090206002015460ff1680156126a557506001600160a01b03831660009081526008602052604090206002015460ff165b6126e55760405162461bcd60e51b8152602060048201526011602482015270496e76616c6964206c696272617269657360781b6044820152606401610860565b60005b825181101561277a5760006007600085848151811061270957612709613616565b60200260200101518152602001908152602001600020600001805461272d906135dc565b9050116127725760405162461bcd60e51b8152602060048201526013602482015272109bdbdac8191bd95cc81b9bdd08195e1a5cdd606a1b6044820152606401610860565b6001016126e8565b505b6108a384848484612995565b6001600160a01b0384163b156108765760405163f23a6e6160e01b81526001600160a01b0385169063f23a6e61906127cc90899089908890889088906004016137e8565b6020604051808303816000875af1925050508015612807575060408051601f3d908101601f191682019092526128049181019061382d565b60015b612870573d808015612835576040519150601f19603f3d011682016040523d82523d6000602084013e61283a565b606091505b50805160000361286857604051632bfa23e760e11b81526001600160a01b0386166004820152602401610860565b805181602001fd5b6001600160e01b0319811663f23a6e6160e01b146124e757604051632bfa23e760e11b81526001600160a01b0386166004820152602401610860565b6001600160a01b0384163b156108765760405163bc197c8160e01b81526001600160a01b0385169063bc197c81906128f0908990899088908890889060040161384a565b6020604051808303816000875af192505050801561292b575060408051601f3d908101601f191682019092526129289181019061382d565b60015b612959573d808015612835576040519150601f19603f3d011682016040523d82523d6000602084013e61283a565b6001600160e01b0319811663bc197c8160e01b146124e757604051632bfa23e760e11b81526001600160a01b0386166004820152602401610860565b6129a184848484612a81565b6001600160a01b038416612a21576000805b8351811015612a0757602081810284810182015190860182015160009081526005909252604082208054919283926129ec9084906138a8565b909155506129fc905081846138a8565b9250506001016129b3565b508060066000828254612a1a91906138a8565b9091555050505b6001600160a01b0383166108a3576000805b8351811015612a70576020818102848101820151908601820151600090815260059092526040909120805482900390559190910190600101612a33565b506006805491909103905550505050565b612a896125f1565b6108a3848484848051825114612abf5781518151604051635b05999160e01b815260048101929092526024820152604401610860565b3360005b8351811015612bc5576020818102858101820151908501909101516001600160a01b03881615612b76576000828152602081815260408083206001600160a01b038c16845290915290205481811015612b4f576040516303dee4c560e01b81526001600160a01b038a166004820152602481018290526044810183905260648101849052608401610860565b6000838152602081815260408083206001600160a01b038d16845290915290209082900390555b6001600160a01b03871615612bbb576000828152602081815260408083206001600160a01b038b16845290915281208054839290612bb59084906138a8565b90915550505b5050600101612ac3565b508251600103612c465760208301516000906020840151909150856001600160a01b0316876001600160a01b0316846001600160a01b03167fc3d58168c5ae7397731d063d5bbf3d657854427343f4c083240f7aacaa2d0f628585604051612c37929190918252602082015260400190565b60405180910390a450506120eb565b836001600160a01b0316856001600160a01b0316826001600160a01b03167f4a39dc06d4c0dbc64b70af90fd698a233a518aa5d07e595d983b8c0526c8f7fb8686604051612c959291906138bb565b60405180910390a45050505050565b80356001600160a01b0381168114612cbb57600080fd5b919050565b60008060408385031215612cd357600080fd5b612cdc83612ca4565b946020939093013593505050565b6001600160e01b0319811681146108f457600080fd5b600060208284031215612d1257600080fd5b81356122d481612cea565b634e487b7160e01b600052604160045260246000fd5b604051601f8201601f191681016001600160401b0381118282101715612d5b57612d5b612d1d565b604052919050565b600082601f830112612d7457600080fd5b8135602083016000806001600160401b03841115612d9457612d94612d1d565b50601f8301601f1916602001612da981612d33565b915050828152858383011115612dbe57600080fd5b82826020830137600092810160200192909252509392505050565b600060208284031215612deb57600080fd5b81356001600160401b03811115612e0157600080fd5b612e0d84828501612d63565b949350505050565b600060208284031215612e2757600080fd5b5035919050565b60005b83811015612e49578181015183820152602001612e31565b50506000910152565b60008151808452612e6a816020860160208601612e2e565b601f01601f19169290920160200192915050565b6020815260006122d46020830184612e52565b600060208284031215612ea357600080fd5b6122d482612ca4565b606081526000612ebf6060830186612e52565b8281036020840152612ed18186612e52565b9150508215156040830152949350505050565b60006001600160401b03821115612efd57612efd612d1d565b5060051b60200190565b600082601f830112612f1857600080fd5b8135612f2b612f2682612ee4565b612d33565b8082825260208201915060208360051b860101925085831115612f4d57600080fd5b602085015b83811015612f6a578035835260209283019201612f52565b5095945050505050565b600080600080600060a08688031215612f8c57600080fd5b612f9586612ca4565b9450612fa360208701612ca4565b935060408601356001600160401b03811115612fbe57600080fd5b612fca88828901612f07565b93505060608601356001600160401b03811115612fe657600080fd5b612ff288828901612f07565b92505060808601356001600160401b0381111561300e57600080fd5b61301a88828901612d63565b9150509295509295909350565b6000806040838503121561303a57600080fd5b8235915061304a60208401612ca4565b90509250929050565b6000806040838503121561306657600080fd5b82356001600160401b0381111561307c57600080fd5b8301601f8101851361308d57600080fd5b803561309b612f2682612ee4565b8082825260208201915060208360051b8501019250878311156130bd57600080fd5b6020840193505b828410156130e6576130d584612ca4565b8252602093840193909101906130c4565b945050505060208301356001600160401b0381111561310457600080fd5b61311085828601612f07565b9150509250929050565b600081518084526020840193506020830160005b8281101561314c57815186526020958601959091019060010161312e565b5093949350505050565b6020815260006122d4602083018461311a565b60e08152600061317c60e083018a612e52565b828103602084015261318e818a612e52565b905082810360408401526131a28189612e52565b905082810360608401526131b68188612e52565b905082810360808401526131ca8187612e52565b905082810360a08401526131de8186612e52565b91505060018060a01b03831660c083015298975050505050505050565b60008060006060848603121561321057600080fd5b61321984612ca4565b925060208401356001600160401b0381111561323457600080fd5b61324086828701612f07565b92505060408401356001600160401b0381111561325c57600080fd5b61326886828701612f07565b9150509250925092565b60008060006060848603121561328757600080fd5b61329084612ca4565b95602085013595506040909401359392505050565b600080600080600080600060e0888a0312156132c057600080fd5b8735965060208801356001600160401b038111156132dd57600080fd5b6132e98a828b01612d63565b96505060408801356001600160401b0381111561330557600080fd5b6133118a828b01612d63565b95505060608801356001600160401b0381111561332d57600080fd5b6133398a828b01612d63565b94505060808801356001600160401b0381111561335557600080fd5b6133618a828b01612d63565b93505060a08801356001600160401b0381111561337d57600080fd5b6133898a828b01612d63565b92505060c08801356001600160401b038111156133a557600080fd5b6133b18a828b01612d63565b91505092959891949750929550565b600080604083850312156133d357600080fd5b6133dc83612ca4565b9150602083013580151581146133f157600080fd5b809150509250929050565b6000806040838503121561340f57600080fd5b50508035926020909101359150565b602081526000825160e0602084015261343b610100840182612e52565b90506020840151601f198483030160408501526134588282612e52565b9150506040840151601f198483030160608501526134768282612e52565b9150506060840151601f198483030160808501526134948282612e52565b9150506080840151601f198483030160a08501526134b28282612e52565b91505060a0840151601f198483030160c08501526134d08282612e52565b91505060c08401516109bb60e08501826001600160a01b03169052565b6000806040838503121561350057600080fd5b61350983612ca4565b915061304a60208401612ca4565b600080600080600060a0868803121561352f57600080fd5b61353886612ca4565b945061354660208701612ca4565b9350604086013592506060860135915060808601356001600160401b0381111561300e57600080fd5b60008060006060848603121561358457600080fd5b61358d84612ca4565b925060208401356001600160401b038111156135a857600080fd5b6135b486828701612d63565b92505060408401356001600160401b038111156135d057600080fd5b61326886828701612d63565b600181811c908216806135f057607f821691505b60208210810361361057634e487b7160e01b600052602260045260246000fd5b50919050565b634e487b7160e01b600052603260045260246000fd5b634e487b7160e01b600052601160045260246000fd5b6000600182016136545761365461362c565b5060010190565b601f8211156108dc57806000526020600020601f840160051c810160208510156136825750805b601f840160051c820191505b818110156120eb576000815560010161368e565b81516001600160401b038111156136bb576136bb612d1d565b6136cf816136c984546135dc565b8461365b565b6020601f82116001811461370357600083156136eb5750848201515b600019600385901b1c1916600184901b1784556120eb565b600084815260208120601f198516915b828110156137335787850151825560209485019460019092019101613713565b50848210156137515786840151600019600387901b60f8161c191681555b50505050600190811b01905550565b8381526060602082015260006137796060830185612e52565b828103604084015261378b8185612e52565b9695505050505050565b6001600160a01b0383168152604060208201819052600090612e0d90830184612e52565b600083516137cb818460208801612e2e565b8351908301906137df818360208801612e2e565b01949350505050565b6001600160a01b03868116825285166020820152604081018490526060810183905260a06080820181905260009061382290830184612e52565b979650505050505050565b60006020828403121561383f57600080fd5b81516122d481612cea565b6001600160a01b0386811682528516602082015260a0604082018190526000906138769083018661311a565b8281036060840152613888818661311a565b9050828103608084015261389c8185612e52565b98975050505050505050565b808201808211156106205761062061362c565b6040815260006138ce604083018561311a565b82810360208401526138e0818561311a565b9594505050505056fe616de93f8f9411aae7290d381dd434cb23223a2f88ef9a88f3cdb0eb43fe924814823911f2da1b49f045a0929a60b8c1f2a7fc8c06c7284ca3e8ab4e193a08c8a26469706673582212208a91e62f99cbc26a771c86c68207aad3ba3164b560add265597d6b6ea4d8c5f864736f6c634300081b003368747470733a2f2f63686f636f6c6174652d62697a617272652d73696c766572666973682d3731322e6d7970696e6174612e636c6f75642f697066732f616de93f8f9411aae7290d381dd434cb23223a2f88ef9a88f3cdb0eb43fe9248",
  "linkReferences": {},
  "deployedLinkReferences": {}
}