{"contracts/TRINLL.sol":{"TRIINL":{"abi":[{"inputs":[{"internalType":"address","name":"defaultAdmin","type":"address"}],"stateMutability":"nonpayable","type":"constructor"},{"inputs":[],"name":"AccessControlBadConfirmation","type":"error"},{"inputs":[{"internalType":"address","name":"account","type":"address"},{"internalType":"bytes32","name":"neededRole","type":"bytes32"}],"name":"AccessControlUnauthorizedAccount","type":"error"},{"inputs":[{"internalType":"address","name":"sender","type":"address"},{"internalType":"uint256","name":"balance","type":"uint256"},{"internalType":"uint256","name":"needed","type":"uint256"},{"internalType":"uint256","name":"tokenId","type":"uint256"}],"name":"ERC1155InsufficientBalance","type":"error"},{"inputs":[{"internalType":"address","name":"approver","type":"address"}],"name":"ERC1155InvalidApprover","type":"error"},{"inputs":[{"internalType":"uint256","name":"idsLength","type":"uint256"},{"internalType":"uint256","name":"valuesLength","type":"uint256"}],"name":"ERC1155InvalidArrayLength","type":"error"},{"inputs":[{"internalType":"address","name":"operator","type":"address"}],"name":"ERC1155InvalidOperator","type":"error"},{"inputs":[{"internalType":"address","name":"receiver","type":"address"}],"name":"ERC1155InvalidReceiver","type":"error"},{"inputs":[{"internalType":"address","name":"sender","type":"address"}],"name":"ERC1155InvalidSender","type":"error"},{"inputs":[{"internalType":"address","name":"operator","type":"address"},{"internalType":"address","name":"owner","type":"address"}],"name":"ERC1155MissingApprovalForAll","type":"error"},{"inputs":[],"name":"EnforcedPause","type":"error"},{"inputs":[],"name":"ExpectedPause","type":"error"},{"anonymous":false,"inputs":[{"indexed":true,"internalType":"address","name":"account","type":"address"},{"indexed":true,"internalType":"address","name":"operator","type":"address"},{"indexed":false,"internalType":"bool","name":"approved","type":"bool"}],"name":"ApprovalForAll","type":"event"},{"anonymous":false,"inputs":[{"indexed":false,"internalType":"uint256","name":"bookId","type":"uint256"},{"indexed":false,"internalType":"string","name":"title","type":"string"},{"indexed":false,"internalType":"string","name":"uri","type":"string"}],"name":"BookCreated","type":"event"},{"anonymous":false,"inputs":[{"indexed":false,"internalType":"uint256","name":"bookId","type":"uint256"},{"indexed":false,"internalType":"address","name":"libraryFrom","type":"address"},{"indexed":false,"internalType":"uint256","name":"amount","type":"uint256"}],"name":"BookRestock","type":"event"},{"anonymous":false,"inputs":[{"indexed":false,"internalType":"address","name":"libraryAddress","type":"address"},{"indexed":false,"internalType":"string","name":"sigla","type":"string"}],"name":"LibraryRegistered","type":"event"},{"anonymous":false,"inputs":[{"indexed":false,"internalType":"uint256","name":"loanId","type":"uint256"},{"indexed":false,"internalType":"address","name":"libraryFrom","type":"address"}],"name":"LoanApproved","type":"event"},{"anonymous":false,"inputs":[{"indexed":false,"internalType":"uint256","name":"loanId","type":"uint256"},{"indexed":false,"internalType":"address","name":"user","type":"address"},{"indexed":false,"internalType":"address","name":"libraryFrom","type":"address"},{"indexed":false,"internalType":"uint256","name":"bookId","type":"uint256"}],"name":"LoanRequested","type":"event"},{"anonymous":false,"inputs":[{"indexed":false,"internalType":"uint256","name":"loanId","type":"uint256"},{"indexed":false,"internalType":"address","name":"libraryFrom","type":"address"}],"name":"LoanReturned","type":"event"},{"anonymous":false,"inputs":[{"indexed":false,"internalType":"address","name":"account","type":"address"}],"name":"Paused","type":"event"},{"anonymous":false,"inputs":[{"indexed":true,"internalType":"bytes32","name":"role","type":"bytes32"},{"indexed":true,"internalType":"bytes32","name":"previousAdminRole","type":"bytes32"},{"indexed":true,"internalType":"bytes32","name":"newAdminRole","type":"bytes32"}],"name":"RoleAdminChanged","type":"event"},{"anonymous":false,"inputs":[{"indexed":true,"internalType":"bytes32","name":"role","type":"bytes32"},{"indexed":true,"internalType":"address","name":"account","type":"address"},{"indexed":true,"internalType":"address","name":"sender","type":"address"}],"name":"RoleGranted","type":"event"},{"anonymous":false,"inputs":[{"indexed":true,"internalType":"bytes32","name":"role","type":"bytes32"},{"indexed":true,"internalType":"address","name":"account","type":"address"},{"indexed":true,"internalType":"address","name":"sender","type":"address"}],"name":"RoleRevoked","type":"event"},{"anonymous":false,"inputs":[{"indexed":true,"internalType":"address","name":"operator","type":"address"},{"indexed":true,"internalType":"address","name":"from","type":"address"},{"indexed":true,"internalType":"address","name":"to","type":"address"},{"indexed":false,"internalType":"uint256[]","name":"ids","type":"uint256[]"},{"indexed":false,"internalType":"uint256[]","name":"values","type":"uint256[]"}],"name":"TransferBatch","type":"event"},{"anonymous":false,"inputs":[{"indexed":true,"internalType":"address","name":"operator","type":"address"},{"indexed":true,"internalType":"address","name":"from","type":"address"},{"indexed":true,"internalType":"address","name":"to","type":"address"},{"indexed":false,"internalType":"uint256","name":"id","type":"uint256"},{"indexed":false,"internalType":"uint256","name":"value","type":"uint256"}],"name":"TransferSingle","type":"event"},{"anonymous":false,"inputs":[{"indexed":false,"internalType":"string","name":"value","type":"string"},{"indexed":true,"internalType":"uint256","name":"id","type":"uint256"}],"name":"URI","type":"event"},{"anonymous":false,"inputs":[{"indexed":false,"internalType":"address","name":"account","type":"address"}],"name":"Unpaused","type":"event"},{"inputs":[],"name":"DEFAULT_ADMIN_ROLE","outputs":[{"internalType":"bytes32","name":"","type":"bytes32"}],"stateMutability":"view","type":"function"},{"inputs":[],"name":"LIBRARY_ROLE","outputs":[{"internalType":"bytes32","name":"","type":"bytes32"}],"stateMutability":"view","type":"function"},{"inputs":[],"name":"USER_ROLE","outputs":[{"internalType":"bytes32","name":"","type":"bytes32"}],"stateMutability":"view","type":"function"},{"inputs":[{"internalType":"uint256","name":"loanId","type":"uint256"}],"name":"approveLoan","outputs":[],"stateMutability":"nonpayable","type":"function"},{"inputs":[{"internalType":"address","name":"account","type":"address"},{"internalType":"uint256","name":"id","type":"uint256"}],"name":"balanceOf","outputs":[{"internalType":"uint256","name":"","type":"uint256"}],"stateMutability":"view","type":"function"},{"inputs":[{"internalType":"address[]","name":"accounts","type":"address[]"},{"internalType":"uint256[]","name":"ids","type":"uint256[]"}],"name":"balanceOfBatch","outputs":[{"internalType":"uint256[]","name":"","type":"uint256[]"}],"stateMutability":"view","type":"function"},{"inputs":[{"internalType":"uint256","name":"","type":"uint256"}],"name":"books","outputs":[{"internalType":"string","name":"title","type":"string"},{"internalType":"string","name":"author","type":"string"},{"internalType":"string","name":"isbn","type":"string"},{"internalType":"string","name":"doi","type":"string"},{"internalType":"string","name":"ano","type":"string"},{"internalType":"string","name":"uri","type":"string"},{"internalType":"address","name":"instituicao","type":"address"}],"stateMutability":"view","type":"function"},{"inputs":[{"internalType":"address","name":"account","type":"address"},{"internalType":"uint256","name":"id","type":"uint256"},{"internalType":"uint256","name":"value","type":"uint256"}],"name":"burn","outputs":[],"stateMutability":"nonpayable","type":"function"},{"inputs":[{"internalType":"address","name":"account","type":"address"},{"internalType":"uint256[]","name":"ids","type":"uint256[]"},{"internalType":"uint256[]","name":"values","type":"uint256[]"}],"name":"burnBatch","outputs":[],"stateMutability":"nonpayable","type":"function"},{"inputs":[{"internalType":"uint256","name":"id","type":"uint256"}],"name":"exists","outputs":[{"internalType":"bool","name":"","type":"bool"}],"stateMutability":"view","type":"function"},{"inputs":[{"internalType":"uint256","name":"bookId","type":"uint256"}],"name":"getBook","outputs":[{"components":[{"internalType":"string","name":"title","type":"string"},{"internalType":"string","name":"author","type":"string"},{"internalType":"string","name":"isbn","type":"string"},{"internalType":"string","name":"doi","type":"string"},{"internalType":"string","name":"ano","type":"string"},{"internalType":"string","name":"uri","type":"string"},{"internalType":"address","name":"instituicao","type":"address"}],"internalType":"struct TRIINL.Book","name":"","type":"tuple"}],"stateMutability":"view","type":"function"},{"inputs":[{"internalType":"address","name":"libraryAddress","type":"address"}],"name":"getLibrary","outputs":[{"internalType":"string","name":"name","type":"string"},{"internalType":"string","name":"sigla","type":"string"},{"internalType":"bool","name":"isActive","type":"bool"}],"stateMutability":"view","type":"function"},{"inputs":[{"internalType":"bytes32","name":"role","type":"bytes32"}],"name":"getRoleAdmin","outputs":[{"internalType":"bytes32","name":"","type":"bytes32"}],"stateMutability":"view","type":"function"},{"inputs":[{"internalType":"bytes32","name":"role","type":"bytes32"},{"internalType":"address","name":"account","type":"address"}],"name":"grantRole","outputs":[],"stateMutability":"nonpayable","type":"function"},{"inputs":[{"internalType":"bytes32","name":"role","type":"bytes32"},{"internalType":"address","name":"account","type":"address"}],"name":"hasRole","outputs":[{"internalType":"bool","name":"","type":"bool"}],"stateMutability":"view","type":"function"},{"inputs":[{"internalType":"address","name":"account","type":"address"},{"internalType":"address","name":"operator","type":"address"}],"name":"isApprovedForAll","outputs":[{"internalType":"bool","name":"","type":"bool"}],"stateMutability":"view","type":"function"},{"inputs":[{"internalType":"address","name":"","type":"address"}],"name":"libraries","outputs":[{"internalType":"string","name":"name","type":"string"},{"internalType":"string","name":"sigla","type":"string"},{"internalType":"bool","name":"isActive","type":"bool"}],"stateMutability":"view","type":"function"},{"inputs":[{"internalType":"uint256","name":"","type":"uint256"}],"name":"loanRequests","outputs":[{"internalType":"address","name":"user","type":"address"},{"internalType":"address","name":"libraryFrom","type":"address"},{"internalType":"uint256","name":"bookId","type":"uint256"},{"internalType":"uint256","name":"amount","type":"uint256"},{"internalType":"uint8","name":"status","type":"uint8"}],"stateMutability":"view","type":"function"},{"inputs":[{"internalType":"uint256","name":"amount","type":"uint256"},{"internalType":"string","name":"title","type":"string"},{"internalType":"string","name":"author","type":"string"},{"internalType":"string","name":"isbn","type":"string"},{"internalType":"string","name":"doi","type":"string"},{"internalType":"string","name":"ano","type":"string"},{"internalType":"string","name":"uriSuffix","type":"string"}],"name":"mint","outputs":[],"stateMutability":"nonpayable","type":"function"},{"inputs":[{"internalType":"uint256","name":"amount","type":"uint256"},{"internalType":"uint256","name":"id","type":"uint256"}],"name":"mintRestock","outputs":[],"stateMutability":"nonpayable","type":"function"},{"inputs":[],"name":"nextBookId","outputs":[{"internalType":"uint256","name":"","type":"uint256"}],"stateMutability":"view","type":"function"},{"inputs":[],"name":"nextLoanId","outputs":[{"internalType":"uint256","name":"","type":"uint256"}],"stateMutability":"view","type":"function"},{"inputs":[],"name":"pause","outputs":[],"stateMutability":"nonpayable","type":"function"},{"inputs":[],"name":"paused","outputs":[{"internalType":"bool","name":"","type":"bool"}],"stateMutability":"view","type":"function"},{"inputs":[{"internalType":"address","name":"libraryAddress","type":"address"},{"internalType":"string","name":"name","type":"string"},{"internalType":"string","name":"sigla","type":"string"}],"name":"registerLibrary","outputs":[],"stateMutability":"nonpayable","type":"function"},{"inputs":[{"internalType":"bytes32","name":"role","type":"bytes32"},{"internalType":"address","name":"callerConfirmation","type":"address"}],"name":"renounceRole","outputs":[],"stateMutability":"nonpayable","type":"function"},{"inputs":[{"internalType":"address","name":"libraryFrom","type":"address"},{"internalType":"uint256","name":"bookId","type":"uint256"},{"internalType":"uint256","name":"amount","type":"uint256"}],"name":"requestLoan","outputs":[{"internalType":"uint256","name":"","type":"uint256"}],"stateMutability":"nonpayable","type":"function"},{"inputs":[{"internalType":"uint256","name":"loanId","type":"uint256"}],"name":"returnLoan","outputs":[],"stateMutability":"nonpayable","type":"function"},{"inputs":[{"internalType":"bytes32","name":"role","type":"bytes32"},{"internalType":"address","name":"account","type":"address"}],"name":"revokeRole","outputs":[],"stateMutability":"nonpayable","type":"function"},{"inputs":[{"internalType":"address","name":"from","type":"address"},{"internalType":"address","name":"to","type":"address"},{"internalType":"uint256[]","name":"ids","type":"uint256[]"},{"internalType":"uint256[]","name":"values","type":"uint256[]"},{"internalType":"bytes","name":"data","type":"bytes"}],"name":"safeBatchTransferFrom","outputs":[],"stateMutability":"nonpayable","type":"function"},{"inputs":[{"internalType":"address","name":"from","type":"address"},{"internalType":"address","name":"to","type":"address"},{"internalType":"uint256","name":"id","type":"uint256"},{"internalType":"uint256","name":"value","type":"uint256"},{"internalType":"bytes","name":"data","type":"bytes"}],"name":"safeTransferFrom","outputs":[],"stateMutability":"nonpayable","type":"function"},{"inputs":[{"internalType":"address","name":"operator","type":"address"},{"internalType":"bool","name":"approved","type":"bool"}],"name":"setApprovalForAll","outputs":[],"stateMutability":"nonpayable","type":"function"},{"inputs":[{"internalType":"string","name":"newuri","type":"string"}],"name":"setURI","outputs":[],"stateMutability":"nonpayable","type":"function"},{"inputs":[{"internalType":"bytes4","name":"interfaceId","type":"bytes4"}],"name":"supportsInterface","outputs":[{"internalType":"bool","name":"","type":"bool"}],"stateMutability":"view","type":"function"},{"inputs":[],"name":"totalSupply","outputs":[{"internalType":"uint256","name":"","type":"uint256"}],"stateMutability":"view","type":"function"},{"inputs":[{"internalType":"uint256","name":"id","type":"uint256"}],"name":"totalSupply","outputs":[{"internalType":"uint256","name":"","type":"uint256"}],"stateMutability":"view","type":"function"},{"inputs":[{"internalType":"address","name":"from","type":"address"},{"internalType":"address","name":"to","type":"address"},{"internalType":"uint256","name":"id","type":"uint256"},{"internalType":"uint256","name":"amount","type":"uint256"},{"internalType":"bytes","name":"data","type":"bytes"}],"name":"transferBetweenLibraries","outputs":[],"stateMutability":"nonpayable","type":"function"},{"inputs":[],"name":"unpause","outputs":[],"stateMutability":"nonpayable","type":"function"},{"inputs":[{"internalType":"uint256","name":"","type":"uint256"}],"name":"uri","outputs":[{"internalType":"string","name":"","type":"string"}],"stateMutability":"view","type":"function"}],"evm":{"bytecode":{"linkReferences":{},"object":"608060405234801561001057600080fd5b5060405161668038038061668083398181016040528101906100329190610375565b6040518060600160405280603d8152602001616643603d913961005a8161010c60201b60201c565b5061006e6000801b8261011f60201b60201c565b5061009f7f616de93f8f9411aae7290d381dd434cb23223a2f88ef9a88f3cdb0eb43fe92488261011f60201b60201c565b506100d37f616de93f8f9411aae7290d381dd434cb23223a2f88ef9a88f3cdb0eb43fe92486000801b61021d60201b60201c565b6101067f14823911f2da1b49f045a0929a60b8c1f2a7fc8c06c7284ca3e8ab4e193a08c86000801b61021d60201b60201c565b506106c4565b806002908161011b91906105f2565b5050565b6000610131838361027f60201b60201c565b6102125760016003600085815260200190815260200160002060000160008473ffffffffffffffffffffffffffffffffffffffff1673ffffffffffffffffffffffffffffffffffffffff16815260200190815260200160002060006101000a81548160ff0219169083151502179055506101af6102ea60201b60201c565b73ffffffffffffffffffffffffffffffffffffffff168273ffffffffffffffffffffffffffffffffffffffff16847f2f8788117e7eff1d82e926ec794901d17c78024a50270940304540a733656f0d60405160405180910390a460019050610217565b600090505b92915050565b600061022e836102f260201b60201c565b90508160036000858152602001908152602001600020600101819055508181847fbd79b86ffe0ab8e8776151514217cd7cacd52c909f66475c3af44e129f0b00ff60405160405180910390a4505050565b60006003600084815260200190815260200160002060000160008373ffffffffffffffffffffffffffffffffffffffff1673ffffffffffffffffffffffffffffffffffffffff16815260200190815260200160002060009054906101000a900460ff16905092915050565b600033905090565b600060036000838152602001908152602001600020600101549050919050565b600080fd5b600073ffffffffffffffffffffffffffffffffffffffff82169050919050565b600061034282610317565b9050919050565b61035281610337565b811461035d57600080fd5b50565b60008151905061036f81610349565b92915050565b60006020828403121561038b5761038a610312565b5b600061039984828501610360565b91505092915050565b600081519050919050565b7f4e487b7100000000000000000000000000000000000000000000000000000000600052604160045260246000fd5b7f4e487b7100000000000000000000000000000000000000000000000000000000600052602260045260246000fd5b6000600282049050600182168061042357607f821691505b602082108103610436576104356103dc565b5b50919050565b60008190508160005260206000209050919050565b60006020601f8301049050919050565b600082821b905092915050565b60006008830261049e7fffffffffffffffffffffffffffffffffffffffffffffffffffffffffffffffff82610461565b6104a88683610461565b95508019841693508086168417925050509392505050565b6000819050919050565b6000819050919050565b60006104ef6104ea6104e5846104c0565b6104ca565b6104c0565b9050919050565b6000819050919050565b610509836104d4565b61051d610515826104f6565b84845461046e565b825550505050565b600090565b610532610525565b61053d818484610500565b505050565b5b818110156105615761055660008261052a565b600181019050610543565b5050565b601f8211156105a6576105778161043c565b61058084610451565b8101602085101561058f578190505b6105a361059b85610451565b830182610542565b50505b505050565b600082821c905092915050565b60006105c9600019846008026105ab565b1980831691505092915050565b60006105e283836105b8565b9150826002028217905092915050565b6105fb826103a2565b67ffffffffffffffff811115610614576106136103ad565b5b61061e825461040b565b610629828285610565565b600060209050601f83116001811461065c576000841561064a578287015190505b61065485826105d6565b8655506106bc565b601f19841661066a8661043c565b60005b828110156106925784890151825560018201915060208501945060208101905061066d565b868310156106af57848901516106ab601f8916826105b8565b8355505b6001600288020188555050505b505050505050565b615f70806106d36000396000f3fe608060405234801561001057600080fd5b506004361061023c5760003560e01c80637cf52d961161013b578063d1b332f4116100b8578063e985e9c51161007c578063e985e9c514610709578063f242432a14610739578063f5298aca14610755578063f693307814610771578063f7d348031461078d5761023c565b8063d1b332f414610651578063d547741f14610685578063d9ea610f146106a1578063e0ff5b8b146106bd578063e9126154146106ed5761023c565b80639422c910116100ff5780639422c910146105af578063a217fddf146105cb578063a22cb465146105e9578063aadc1ac114610605578063bd85b039146106215761023c565b80637cf52d961461051b5780638456cb591461053957806387c51459146105435780638dd25c9a1461056157806391d148541461057f5761023c565b80632f2ff15d116101c95780635c975abb1161018d5780635c975abb1461044957806368744046146104675780636b20c4541461049d5780636f77ff55146104b95780637bfa3753146104e95761023c565b80632f2ff15d146103a757806336568abe146103c35780633f4ba83a146103df5780634e1273f4146103e95780634f558e79146104195761023c565b8063131191611161021057806313119161146102ed57806318160ddd1461030b57806321df30e114610329578063248a9ca31461035b5780632eb2c2d61461038b5761023c565b8062fdd58e1461024157806301ffc9a71461027157806302fe5305146102a15780630e89341c146102bd575b600080fd5b61025b600480360381019061025691906141f4565b6107a9565b6040516102689190614243565b60405180910390f35b61028b600480360381019061028691906142b6565b610803565b60405161029891906142fe565b60405180910390f35b6102bb60048036038101906102b6919061445f565b610815565b005b6102d760048036038101906102d291906144a8565b61082f565b6040516102e49190614554565b60405180910390f35b6102f56108c3565b604051610302919061458f565b60405180910390f35b6103136108e7565b6040516103209190614243565b60405180910390f35b610343600480360381019061033e91906145aa565b6108f1565b604051610352939291906145d7565b60405180910390f35b61037560048036038101906103709190614648565b610a38565b604051610382919061458f565b60405180910390f35b6103a560048036038101906103a091906147de565b610a58565b005b6103c160048036038101906103bc91906148ad565b610b00565b005b6103dd60048036038101906103d891906148ad565b610b22565b005b6103e7610b9d565b005b61040360048036038101906103fe91906149b0565b610bb5565b6040516104109190614ae6565b60405180910390f35b610433600480360381019061042e91906144a8565b610cbe565b60405161044091906142fe565b60405180910390f35b610451610cd2565b60405161045e91906142fe565b60405180910390f35b610481600480360381019061047c91906144a8565b610ce9565b6040516104949796959493929190614b17565b60405180910390f35b6104b760048036038101906104b29190614bb0565b61107b565b005b6104d360048036038101906104ce9190614c3b565b611127565b6040516104e09190614243565b60405180910390f35b61050360048036038101906104fe91906145aa565b6113f0565b604051610512939291906145d7565b60405180910390f35b6105236115e2565b6040516105309190614243565b60405180910390f35b6105416115e8565b005b61054b611600565b6040516105589190614243565b60405180910390f35b610569611606565b604051610576919061458f565b60405180910390f35b610599600480360381019061059491906148ad565b61162a565b6040516105a691906142fe565b60405180910390f35b6105c960048036038101906105c49190614c8e565b611695565b005b6105d3611b05565b6040516105e0919061458f565b60405180910390f35b61060360048036038101906105fe9190614e04565b611b0c565b005b61061f600480360381019061061a91906144a8565b611b22565b005b61063b600480360381019061063691906144a8565b611cd8565b6040516106489190614243565b60405180910390f35b61066b600480360381019061066691906144a8565b611cf5565b60405161067c959493929190614e60565b60405180910390f35b61069f600480360381019061069a91906148ad565b611d78565b005b6106bb60048036038101906106b69190614eb3565b611d9a565b005b6106d760048036038101906106d291906144a8565b611ec3565b6040516106e4919061500b565b60405180910390f35b610707600480360381019061070291906144a8565b612317565b005b610723600480360381019061071e919061502d565b6124d1565b60405161073091906142fe565b60405180910390f35b610753600480360381019061074e919061506d565b612565565b005b61076f600480360381019061076a9190614c3b565b61260d565b005b61078b60048036038101906107869190615104565b6126b9565b005b6107a760048036038101906107a2919061506d565b6128c3565b005b600080600083815260200190815260200160002060008473ffffffffffffffffffffffffffffffffffffffff1673ffffffffffffffffffffffffffffffffffffffff16815260200190815260200160002054905092915050565b600061080e82612a17565b9050919050565b6000801b61082281612a91565b61082b82612aa5565b5050565b60606002805461083e906151be565b80601f016020809104026020016040519081016040528092919081815260200182805461086a906151be565b80156108b75780601f1061088c576101008083540402835291602001916108b7565b820191906000526020600020905b81548152906001019060200180831161089a57829003601f168201915b50505050509050919050565b7f14823911f2da1b49f045a0929a60b8c1f2a7fc8c06c7284ca3e8ab4e193a08c881565b6000600654905090565b6008602052806000526040600020600091509050806000018054610914906151be565b80601f0160208091040260200160405190810160405280929190818152602001828054610940906151be565b801561098d5780601f106109625761010080835404028352916020019161098d565b820191906000526020600020905b81548152906001019060200180831161097057829003601f168201915b5050505050908060010180546109a2906151be565b80601f01602080910402602001604051908101604052809291908181526020018280546109ce906151be565b8015610a1b5780601f106109f057610100808354040283529160200191610a1b565b820191906000526020600020905b8154815290600101906020018083116109fe57829003601f168201915b5050505050908060020160009054906101000a900460ff16905083565b600060036000838152602001908152602001600020600101549050919050565b6000610a62612ab8565b90508073ffffffffffffffffffffffffffffffffffffffff168673ffffffffffffffffffffffffffffffffffffffff1614158015610aa75750610aa586826124d1565b155b15610aeb5780866040517fe237d922000000000000000000000000000000000000000000000000000000008152600401610ae29291906151ef565b60405180910390fd5b610af88686868686612ac0565b505050505050565b610b0982610a38565b610b1281612a91565b610b1c8383612bb8565b50505050565b610b2a612ab8565b73ffffffffffffffffffffffffffffffffffffffff168173ffffffffffffffffffffffffffffffffffffffff1614610b8e576040517f6697b23200000000000000000000000000000000000000000000000000000000815260040160405180910390fd5b610b988282612caa565b505050565b6000801b610baa81612a91565b610bb2612d9d565b50565b60608151835114610c0157815183516040517f5b059991000000000000000000000000000000000000000000000000000000008152600401610bf8929190615218565b60405180910390fd5b6000835167ffffffffffffffff811115610c1e57610c1d614334565b5b604051908082528060200260200182016040528015610c4c5781602001602082028036833780820191505090505b50905060005b8451811015610cb357610c89610c718287612e0090919063ffffffff16565b610c848387612e1490919063ffffffff16565b6107a9565b828281518110610c9c57610c9b615241565b5b602002602001018181525050806001019050610c52565b508091505092915050565b600080610cca83611cd8565b119050919050565b6000600460009054906101000a900460ff16905090565b6007602052806000526040600020600091509050806000018054610d0c906151be565b80601f0160208091040260200160405190810160405280929190818152602001828054610d38906151be565b8015610d855780601f10610d5a57610100808354040283529160200191610d85565b820191906000526020600020905b815481529060010190602001808311610d6857829003601f168201915b505050505090806001018054610d9a906151be565b80601f0160208091040260200160405190810160405280929190818152602001828054610dc6906151be565b8015610e135780601f10610de857610100808354040283529160200191610e13565b820191906000526020600020905b815481529060010190602001808311610df657829003601f168201915b505050505090806002018054610e28906151be565b80601f0160208091040260200160405190810160405280929190818152602001828054610e54906151be565b8015610ea15780601f10610e7657610100808354040283529160200191610ea1565b820191906000526020600020905b815481529060010190602001808311610e8457829003601f168201915b505050505090806003018054610eb6906151be565b80601f0160208091040260200160405190810160405280929190818152602001828054610ee2906151be565b8015610f2f5780601f10610f0457610100808354040283529160200191610f2f565b820191906000526020600020905b815481529060010190602001808311610f1257829003601f168201915b505050505090806004018054610f44906151be565b80601f0160208091040260200160405190810160405280929190818152602001828054610f70906151be565b8015610fbd5780601f10610f9257610100808354040283529160200191610fbd565b820191906000526020600020905b815481529060010190602001808311610fa057829003601f168201915b505050505090806005018054610fd2906151be565b80601f0160208091040260200160405190810160405280929190818152602001828054610ffe906151be565b801561104b5780601f106110205761010080835404028352916020019161104b565b820191906000526020600020905b81548152906001019060200180831161102e57829003601f168201915b5050505050908060060160009054906101000a900473ffffffffffffffffffffffffffffffffffffffff16905087565b611083612ab8565b73ffffffffffffffffffffffffffffffffffffffff168373ffffffffffffffffffffffffffffffffffffffff16141580156110cc57506110ca836110c5612ab8565b6124d1565b155b15611117576110d9612ab8565b836040517fe237d92200000000000000000000000000000000000000000000000000000000815260040161110e9291906151ef565b60405180910390fd5b611122838383612e28565b505050565b60007f14823911f2da1b49f045a0929a60b8c1f2a7fc8c06c7284ca3e8ab4e193a08c861115381612a91565b600860008673ffffffffffffffffffffffffffffffffffffffff1673ffffffffffffffffffffffffffffffffffffffff16815260200190815260200160002060020160009054906101000a900460ff1680156111d1575060006007600086815260200190815260200160002060000180546111cd906151be565b9050115b611210576040517f08c379a0000000000000000000000000000000000000000000000000000000008152600401611207906152bc565b60405180910390fd5b8261121b86866107a9565b101561125c576040517f08c379a000000000000000000000000000000000000000000000000000000000815260040161125390615328565b60405180910390fd5b6000600a600081548092919061127190615377565b9190505590506040518060a001604052803373ffffffffffffffffffffffffffffffffffffffff1681526020018773ffffffffffffffffffffffffffffffffffffffff168152602001868152602001858152602001600060ff168152506009600083815260200190815260200160002060008201518160000160006101000a81548173ffffffffffffffffffffffffffffffffffffffff021916908373ffffffffffffffffffffffffffffffffffffffff16021790555060208201518160010160006101000a81548173ffffffffffffffffffffffffffffffffffffffff021916908373ffffffffffffffffffffffffffffffffffffffff160217905550604082015181600201556060820151816003015560808201518160040160006101000a81548160ff021916908360ff1602179055509050507fdc60aa6fe6ea1316bf5acc811851e823e68d2aa48e0b9e4ecc3650b38b9303f6813388886040516113dc94939291906153bf565b60405180910390a180925050509392505050565b606080600080600860008673ffffffffffffffffffffffffffffffffffffffff1673ffffffffffffffffffffffffffffffffffffffff168152602001908152602001600020604051806060016040529081600082018054611450906151be565b80601f016020809104026020016040519081016040528092919081815260200182805461147c906151be565b80156114c95780601f1061149e576101008083540402835291602001916114c9565b820191906000526020600020905b8154815290600101906020018083116114ac57829003601f168201915b505050505081526020016001820180546114e2906151be565b80601f016020809104026020016040519081016040528092919081815260200182805461150e906151be565b801561155b5780601f106115305761010080835404028352916020019161155b565b820191906000526020600020905b81548152906001019060200180831161153e57829003601f168201915b505050505081526020016002820160009054906101000a900460ff161515151581525050905080604001516115c5576040517f08c379a00000000000000000000000000000000000000000000000000000000081526004016115bc90615450565b60405180910390fd5b806000015181602001518260400151935093509350509193909250565b600b5481565b6000801b6115f581612a91565b6115fd612ebc565b50565b600a5481565b7f616de93f8f9411aae7290d381dd434cb23223a2f88ef9a88f3cdb0eb43fe924881565b60006003600084815260200190815260200160002060000160008373ffffffffffffffffffffffffffffffffffffffff1673ffffffffffffffffffffffffffffffffffffffff16815260200190815260200160002060009054906101000a900460ff16905092915050565b7f616de93f8f9411aae7290d381dd434cb23223a2f88ef9a88f3cdb0eb43fe92486116bf81612a91565b600860003373ffffffffffffffffffffffffffffffffffffffff1673ffffffffffffffffffffffffffffffffffffffff16815260200190815260200160002060020160009054906101000a900460ff1661174e576040517f08c379a0000000000000000000000000000000000000000000000000000000008152600401611745906154bc565b60405180910390fd5b60005b600b548110156118bc5761180360076000838152602001908152602001600020600301805461177f906151be565b80601f01602080910402602001604051908101604052809291908181526020018280546117ab906151be565b80156117f85780601f106117cd576101008083540402835291602001916117f8565b820191906000526020600020905b8154815290600101906020018083116117db57829003601f168201915b505050505086612f1f565b801561187057503373ffffffffffffffffffffffffffffffffffffffff166007600083815260200190815260200160002060060160009054906101000a900473ffffffffffffffffffffffffffffffffffffffff1673ffffffffffffffffffffffffffffffffffffffff16145b6118af576040517f08c379a00000000000000000000000000000000000000000000000000000000081526004016118a690615528565b60405180910390fd5b8080600101915050611751565b50600087511180156118cf575060008651115b80156118dc575060008551115b80156118e9575060008451115b80156118f6575060008351115b8015611903575060008251115b611942576040517f08c379a000000000000000000000000000000000000000000000000000000000815260040161193990615594565b60405180910390fd5b6000600b600081548092919061195790615377565b91905055905060006119688261082f565b905060006119768286612f33565b90506040518060e001604052808b81526020018a81526020018981526020018881526020018781526020018281526020013373ffffffffffffffffffffffffffffffffffffffff168152506007600085815260200190815260200160002060008201518160000190816119e99190615760565b5060208201518160010190816119ff9190615760565b506040820151816002019081611a159190615760565b506060820151816003019081611a2b9190615760565b506080820151816004019081611a419190615760565b5060a0820151816005019081611a579190615760565b5060c08201518160060160006101000a81548173ffffffffffffffffffffffffffffffffffffffff021916908373ffffffffffffffffffffffffffffffffffffffff160217905550905050611abd33848d60405180602001604052806000815250612f5f565b7fcbe5936ec06de2986c1aa5d74408856f909925ef01eed727f339a9070ab7721f838b83604051611af093929190615832565b60405180910390a15050505050505050505050565b6000801b81565b611b1e611b17612ab8565b8383612ff8565b5050565b7f616de93f8f9411aae7290d381dd434cb23223a2f88ef9a88f3cdb0eb43fe9248611b4c81612a91565b60006009600084815260200190815260200160002090503373ffffffffffffffffffffffffffffffffffffffff168160010160009054906101000a900473ffffffffffffffffffffffffffffffffffffffff1673ffffffffffffffffffffffffffffffffffffffff16148015611bd6575060008160040160009054906101000a900460ff1660ff16145b611c15576040517f08c379a0000000000000000000000000000000000000000000000000000000008152600401611c0c906158c3565b60405180910390fd5b8060030154611c283383600201546107a9565b1015611c69576040517f08c379a0000000000000000000000000000000000000000000000000000000008152600401611c6090615328565b60405180910390fd5b611c7c3382600201548360030154613168565b60018160040160006101000a81548160ff021916908360ff1602179055507f8b6240997bc3af56f5a9aec0408b8286fb78fb0573f2ba96445be3918511cb938333604051611ccb9291906158e3565b60405180910390a1505050565b600060056000838152602001908152602001600020549050919050565b60096020528060005260406000206000915090508060000160009054906101000a900473ffffffffffffffffffffffffffffffffffffffff16908060010160009054906101000a900473ffffffffffffffffffffffffffffffffffffffff16908060020154908060030154908060040160009054906101000a900460ff16905085565b611d8182610a38565b611d8a81612a91565b611d948383612caa565b50505050565b7f616de93f8f9411aae7290d381dd434cb23223a2f88ef9a88f3cdb0eb43fe9248611dc481612a91565b3373ffffffffffffffffffffffffffffffffffffffff166007600084815260200190815260200160002060060160009054906101000a900473ffffffffffffffffffffffffffffffffffffffff1673ffffffffffffffffffffffffffffffffffffffff1614611e68576040517f08c379a0000000000000000000000000000000000000000000000000000000008152600401611e5f9061597e565b60405180910390fd5b611e8333838560405180602001604052806000815250612f5f565b7f99e23e33558426ecf51fabd188eadef462211a2e0b471be788af57799f05fada823385604051611eb69392919061599e565b60405180910390a1505050565b611ecb6140f9565b6000600760008481526020019081526020016000206000018054611eee906151be565b905011611f30576040517f08c379a0000000000000000000000000000000000000000000000000000000008152600401611f2790615a21565b60405180910390fd5b600760008381526020019081526020016000206040518060e0016040529081600082018054611f5e906151be565b80601f0160208091040260200160405190810160405280929190818152602001828054611f8a906151be565b8015611fd75780601f10611fac57610100808354040283529160200191611fd7565b820191906000526020600020905b815481529060010190602001808311611fba57829003601f168201915b50505050508152602001600182018054611ff0906151be565b80601f016020809104026020016040519081016040528092919081815260200182805461201c906151be565b80156120695780601f1061203e57610100808354040283529160200191612069565b820191906000526020600020905b81548152906001019060200180831161204c57829003601f168201915b50505050508152602001600282018054612082906151be565b80601f01602080910402602001604051908101604052809291908181526020018280546120ae906151be565b80156120fb5780601f106120d0576101008083540402835291602001916120fb565b820191906000526020600020905b8154815290600101906020018083116120de57829003601f168201915b50505050508152602001600382018054612114906151be565b80601f0160208091040260200160405190810160405280929190818152602001828054612140906151be565b801561218d5780601f106121625761010080835404028352916020019161218d565b820191906000526020600020905b81548152906001019060200180831161217057829003601f168201915b505050505081526020016004820180546121a6906151be565b80601f01602080910402602001604051908101604052809291908181526020018280546121d2906151be565b801561221f5780601f106121f45761010080835404028352916020019161221f565b820191906000526020600020905b81548152906001019060200180831161220257829003601f168201915b50505050508152602001600582018054612238906151be565b80601f0160208091040260200160405190810160405280929190818152602001828054612264906151be565b80156122b15780601f10612286576101008083540402835291602001916122b1565b820191906000526020600020905b81548152906001019060200180831161229457829003601f168201915b505050505081526020016006820160009054906101000a900473ffffffffffffffffffffffffffffffffffffffff1673ffffffffffffffffffffffffffffffffffffffff1673ffffffffffffffffffffffffffffffffffffffff16815250509050919050565b7f14823911f2da1b49f045a0929a60b8c1f2a7fc8c06c7284ca3e8ab4e193a08c861234181612a91565b60006009600084815260200190815260200160002090503373ffffffffffffffffffffffffffffffffffffffff168160000160009054906101000a900473ffffffffffffffffffffffffffffffffffffffff1673ffffffffffffffffffffffffffffffffffffffff161480156123cb575060018160040160009054906101000a900460ff1660ff16145b61240a576040517f08c379a000000000000000000000000000000000000000000000000000000000815260040161240190615a8d565b60405180910390fd5b6124518160010160009054906101000a900473ffffffffffffffffffffffffffffffffffffffff168260020154836003015460405180602001604052806000815250612f5f565b60028160040160006101000a81548160ff021916908360ff1602179055507fad4162e5033b7bb713e12d20782e2d719000e0c997983a11328616e82c93be03838260010160009054906101000a900473ffffffffffffffffffffffffffffffffffffffff166040516124c49291906158e3565b60405180910390a1505050565b6000600160008473ffffffffffffffffffffffffffffffffffffffff1673ffffffffffffffffffffffffffffffffffffffff16815260200190815260200160002060008373ffffffffffffffffffffffffffffffffffffffff1673ffffffffffffffffffffffffffffffffffffffff16815260200190815260200160002060009054906101000a900460ff16905092915050565b600061256f612ab8565b90508073ffffffffffffffffffffffffffffffffffffffff168673ffffffffffffffffffffffffffffffffffffffff16141580156125b457506125b286826124d1565b155b156125f85780866040517fe237d9220000000000000000000000000000000000000000000000000000000081526004016125ef9291906151ef565b60405180910390fd5b612605868686868661320f565b505050505050565b612615612ab8565b73ffffffffffffffffffffffffffffffffffffffff168373ffffffffffffffffffffffffffffffffffffffff161415801561265e575061265c83612657612ab8565b6124d1565b155b156126a95761266b612ab8565b836040517fe237d9220000000000000000000000000000000000000000000000000000000081526004016126a09291906151ef565b60405180910390fd5b6126b4838383613168565b505050565b6000801b6126c681612a91565b60001515600860008673ffffffffffffffffffffffffffffffffffffffff1673ffffffffffffffffffffffffffffffffffffffff16815260200190815260200160002060020160009054906101000a900460ff1615151461275c576040517f08c379a000000000000000000000000000000000000000000000000000000000815260040161275390615af9565b60405180910390fd5b6000835111801561276e575060008251115b6127ad576040517f08c379a00000000000000000000000000000000000000000000000000000000081526004016127a490615b65565b60405180910390fd5b604051806060016040528084815260200183815260200160011515815250600860008673ffffffffffffffffffffffffffffffffffffffff1673ffffffffffffffffffffffffffffffffffffffff168152602001908152602001600020600082015181600001908161281f9190615760565b5060208201518160010190816128359190615760565b5060408201518160020160006101000a81548160ff0219169083151502179055509050506128837f616de93f8f9411aae7290d381dd434cb23223a2f88ef9a88f3cdb0eb43fe924885612bb8565b507ff713003e0dece41fa86d4283426f7363d0a7e2012e3203c503b9946226de6bdf84836040516128b5929190615b85565b60405180910390a150505050565b7f616de93f8f9411aae7290d381dd434cb23223a2f88ef9a88f3cdb0eb43fe92486128ed81612a91565b600860008773ffffffffffffffffffffffffffffffffffffffff1673ffffffffffffffffffffffffffffffffffffffff16815260200190815260200160002060020160009054906101000a900460ff1680156129955750600860008673ffffffffffffffffffffffffffffffffffffffff1673ffffffffffffffffffffffffffffffffffffffff16815260200190815260200160002060020160009054906101000a900460ff165b80156129c3575060006007600086815260200190815260200160002060000180546129bf906151be565b9050115b612a02576040517f08c379a00000000000000000000000000000000000000000000000000000000081526004016129f990615c01565b60405180910390fd5b612a0f8686868686612565565b505050505050565b60007f7965db0b000000000000000000000000000000000000000000000000000000007bffffffffffffffffffffffffffffffffffffffffffffffffffffffff1916827bffffffffffffffffffffffffffffffffffffffffffffffffffffffff19161480612a8a5750612a898261331a565b5b9050919050565b612aa281612a9d612ab8565b6133fc565b50565b8060029081612ab49190615760565b5050565b600033905090565b600073ffffffffffffffffffffffffffffffffffffffff168473ffffffffffffffffffffffffffffffffffffffff1603612b325760006040517f57f447ce000000000000000000000000000000000000000000000000000000008152600401612b299190615c21565b60405180910390fd5b600073ffffffffffffffffffffffffffffffffffffffff168573ffffffffffffffffffffffffffffffffffffffff1603612ba45760006040517f01a83514000000000000000000000000000000000000000000000000000000008152600401612b9b9190615c21565b60405180910390fd5b612bb1858585858561344d565b5050505050565b6000612bc4838361162a565b612c9f5760016003600085815260200190815260200160002060000160008473ffffffffffffffffffffffffffffffffffffffff1673ffffffffffffffffffffffffffffffffffffffff16815260200190815260200160002060006101000a81548160ff021916908315150217905550612c3c612ab8565b73ffffffffffffffffffffffffffffffffffffffff168273ffffffffffffffffffffffffffffffffffffffff16847f2f8788117e7eff1d82e926ec794901d17c78024a50270940304540a733656f0d60405160405180910390a460019050612ca4565b600090505b92915050565b6000612cb6838361162a565b15612d925760006003600085815260200190815260200160002060000160008473ffffffffffffffffffffffffffffffffffffffff1673ffffffffffffffffffffffffffffffffffffffff16815260200190815260200160002060006101000a81548160ff021916908315150217905550612d2f612ab8565b73ffffffffffffffffffffffffffffffffffffffff168273ffffffffffffffffffffffffffffffffffffffff16847ff6391f5c32d9c69d2a47ea670b442974b53935d1edc7fd64eb21e047a839171b60405160405180910390a460019050612d97565b600090505b92915050565b612da56134ff565b6000600460006101000a81548160ff0219169083151502179055507f5db9ee0a495bf2e6ff9c91a7834c1ba4fdd244a5e8aa4e537bd38aeae4b073aa612de9612ab8565b604051612df69190615c21565b60405180910390a1565b600060208202602084010151905092915050565b600060208202602084010151905092915050565b600073ffffffffffffffffffffffffffffffffffffffff168373ffffffffffffffffffffffffffffffffffffffff1603612e9a5760006040517f01a83514000000000000000000000000000000000000000000000000000000008152600401612e919190615c21565b60405180910390fd5b612eb783600084846040518060200160405280600081525061344d565b505050565b612ec461353f565b6001600460006101000a81548160ff0219169083151502179055507f62e78cea01bee320cd4e420270b5ea74000d11b0c9f74754ebdbfc544b05a258612f08612ab8565b604051612f159190615c21565b60405180910390a1565b6000612f2b8383613580565b905092915050565b60608282604051602001612f48929190615c78565b604051602081830303815290604052905092915050565b600073ffffffffffffffffffffffffffffffffffffffff168473ffffffffffffffffffffffffffffffffffffffff1603612fd15760006040517f57f447ce000000000000000000000000000000000000000000000000000000008152600401612fc89190615c21565b60405180910390fd5b600080612fde85856135a8565b91509150612ff060008784848761344d565b505050505050565b600073ffffffffffffffffffffffffffffffffffffffff168273ffffffffffffffffffffffffffffffffffffffff160361306a5760006040517fced3e1000000000000000000000000000000000000000000000000000000000081526004016130619190615c21565b60405180910390fd5b80600160008573ffffffffffffffffffffffffffffffffffffffff1673ffffffffffffffffffffffffffffffffffffffff16815260200190815260200160002060008473ffffffffffffffffffffffffffffffffffffffff1673ffffffffffffffffffffffffffffffffffffffff16815260200190815260200160002060006101000a81548160ff0219169083151502179055508173ffffffffffffffffffffffffffffffffffffffff168373ffffffffffffffffffffffffffffffffffffffff167f17307eab39ab6107e8899845ad3d59bd9653f200f220920489ca2b5937696c318360405161315b91906142fe565b60405180910390a3505050565b600073ffffffffffffffffffffffffffffffffffffffff168373ffffffffffffffffffffffffffffffffffffffff16036131da5760006040517f01a835140000000000000000000000000000000000000000000000000000000081526004016131d19190615c21565b60405180910390fd5b6000806131e784846135a8565b9150915061320885600084846040518060200160405280600081525061344d565b5050505050565b600073ffffffffffffffffffffffffffffffffffffffff168473ffffffffffffffffffffffffffffffffffffffff16036132815760006040517f57f447ce0000000000000000000000000000000000000000000000000000000081526004016132789190615c21565b60405180910390fd5b600073ffffffffffffffffffffffffffffffffffffffff168573ffffffffffffffffffffffffffffffffffffffff16036132f35760006040517f01a835140000000000000000000000000000000000000000000000000000000081526004016132ea9190615c21565b60405180910390fd5b60008061330085856135a8565b91509150613311878784848761344d565b50505050505050565b60007fd9b67a26000000000000000000000000000000000000000000000000000000007bffffffffffffffffffffffffffffffffffffffffffffffffffffffff1916827bffffffffffffffffffffffffffffffffffffffffffffffffffffffff191614806133e557507f0e89341c000000000000000000000000000000000000000000000000000000007bffffffffffffffffffffffffffffffffffffffffffffffffffffffff1916827bffffffffffffffffffffffffffffffffffffffffffffffffffffffff1916145b806133f557506133f4826135d8565b5b9050919050565b613406828261162a565b6134495780826040517fe2517d3f000000000000000000000000000000000000000000000000000000008152600401613440929190615c9c565b60405180910390fd5b5050565b61345985858585613642565b600073ffffffffffffffffffffffffffffffffffffffff168473ffffffffffffffffffffffffffffffffffffffff16146134f8576000613497612ab8565b905060018451036134e75760006134b8600086612e1490919063ffffffff16565b905060006134d0600086612e1490919063ffffffff16565b90506134e0838989858589613844565b50506134f6565b6134f58187878787876139f8565b5b505b5050505050565b613507610cd2565b61353d576040517f8dfc202b00000000000000000000000000000000000000000000000000000000815260040160405180910390fd5b565b613547610cd2565b1561357e576040517fd93c066500000000000000000000000000000000000000000000000000000000815260040160405180910390fd5b565b6000815183511480156135a0575081805190602001208380519060200120145b905092915050565b60608060405191506001825283602083015260408201905060018152826020820152604081016040529250929050565b60007f01ffc9a7000000000000000000000000000000000000000000000000000000007bffffffffffffffffffffffffffffffffffffffffffffffffffffffff1916827bffffffffffffffffffffffffffffffffffffffffffffffffffffffff1916149050919050565b600073ffffffffffffffffffffffffffffffffffffffff168473ffffffffffffffffffffffffffffffffffffffff16141580156136ac5750600073ffffffffffffffffffffffffffffffffffffffff168373ffffffffffffffffffffffffffffffffffffffff1614155b1561383257600860008573ffffffffffffffffffffffffffffffffffffffff1673ffffffffffffffffffffffffffffffffffffffff16815260200190815260200160002060020160009054906101000a900460ff1680156137595750600860008473ffffffffffffffffffffffffffffffffffffffff1673ffffffffffffffffffffffffffffffffffffffff16815260200190815260200160002060020160009054906101000a900460ff165b613798576040517f08c379a000000000000000000000000000000000000000000000000000000000815260040161378f90615d11565b60405180910390fd5b60005b8251811015613830576000600760008584815181106137bd576137bc615241565b5b6020026020010151815260200190815260200160002060000180546137e1906151be565b905011613823576040517f08c379a000000000000000000000000000000000000000000000000000000000815260040161381a90615a21565b60405180910390fd5b808060010191505061379b565b505b61383e84848484613bac565b50505050565b60008473ffffffffffffffffffffffffffffffffffffffff163b11156139f0578373ffffffffffffffffffffffffffffffffffffffff1663f23a6e6187878686866040518663ffffffff1660e01b81526004016138a5959493929190615d86565b6020604051808303816000875af19250505080156138e157506040513d601f19601f820116820180604052508101906138de9190615df5565b60015b613965573d8060008114613911576040519150601f19603f3d011682016040523d82523d6000602084013e613916565b606091505b50600081510361395d57846040517f57f447ce0000000000000000000000000000000000000000000000000000000081526004016139549190615c21565b60405180910390fd5b805181602001fd5b63f23a6e6160e01b7bffffffffffffffffffffffffffffffffffffffffffffffffffffffff1916817bffffffffffffffffffffffffffffffffffffffffffffffffffffffff1916146139ee57846040517f57f447ce0000000000000000000000000000000000000000000000000000000081526004016139e59190615c21565b60405180910390fd5b505b505050505050565b60008473ffffffffffffffffffffffffffffffffffffffff163b1115613ba4578373ffffffffffffffffffffffffffffffffffffffff1663bc197c8187878686866040518663ffffffff1660e01b8152600401613a59959493929190615e22565b6020604051808303816000875af1925050508015613a9557506040513d601f19601f82011682018060405250810190613a929190615df5565b60015b613b19573d8060008114613ac5576040519150601f19603f3d011682016040523d82523d6000602084013e613aca565b606091505b506000815103613b1157846040517f57f447ce000000000000000000000000000000000000000000000000000000008152600401613b089190615c21565b60405180910390fd5b805181602001fd5b63bc197c8160e01b7bffffffffffffffffffffffffffffffffffffffffffffffffffffffff1916817bffffffffffffffffffffffffffffffffffffffffffffffffffffffff191614613ba257846040517f57f447ce000000000000000000000000000000000000000000000000000000008152600401613b999190615c21565b60405180910390fd5b505b505050505050565b613bb884848484613d37565b600073ffffffffffffffffffffffffffffffffffffffff168473ffffffffffffffffffffffffffffffffffffffff1603613c82576000805b8351811015613c66576000613c0e8285612e1490919063ffffffff16565b90508060056000613c288589612e1490919063ffffffff16565b81526020019081526020016000206000828254613c459190615e8a565b925050819055508083613c589190615e8a565b925050806001019050613bf0565b508060066000828254613c799190615e8a565b92505081905550505b600073ffffffffffffffffffffffffffffffffffffffff168373ffffffffffffffffffffffffffffffffffffffff1603613d31576000805b8351811015613d1e576000613cd88285612e1490919063ffffffff16565b90508060056000613cf28589612e1490919063ffffffff16565b815260200190815260200160002060008282540392505081905550808301925050806001019050613cba565b5080600660008282540392505081905550505b50505050565b613d3f61353f565b613d4b84848484613d51565b50505050565b8051825114613d9b57815181516040517f5b059991000000000000000000000000000000000000000000000000000000008152600401613d92929190615218565b60405180910390fd5b6000613da5612ab8565b905060005b8351811015613fb4576000613dc88286612e1490919063ffffffff16565b90506000613ddf8386612e1490919063ffffffff16565b9050600073ffffffffffffffffffffffffffffffffffffffff168873ffffffffffffffffffffffffffffffffffffffff1614613f0c57600080600084815260200190815260200160002060008a73ffffffffffffffffffffffffffffffffffffffff1673ffffffffffffffffffffffffffffffffffffffff16815260200190815260200160002054905081811015613eb457888183856040517f03dee4c5000000000000000000000000000000000000000000000000000000008152600401613eab9493929190615ebe565b60405180910390fd5b81810360008085815260200190815260200160002060008b73ffffffffffffffffffffffffffffffffffffffff1673ffffffffffffffffffffffffffffffffffffffff16815260200190815260200160002081905550505b600073ffffffffffffffffffffffffffffffffffffffff168773ffffffffffffffffffffffffffffffffffffffff1614613fa7578060008084815260200190815260200160002060008973ffffffffffffffffffffffffffffffffffffffff1673ffffffffffffffffffffffffffffffffffffffff1681526020019081526020016000206000828254613f9f9190615e8a565b925050819055505b5050806001019050613daa565b506001835103614073576000613fd4600085612e1490919063ffffffff16565b90506000613fec600085612e1490919063ffffffff16565b90508573ffffffffffffffffffffffffffffffffffffffff168773ffffffffffffffffffffffffffffffffffffffff168473ffffffffffffffffffffffffffffffffffffffff167fc3d58168c5ae7397731d063d5bbf3d657854427343f4c083240f7aacaa2d0f628585604051614064929190615218565b60405180910390a450506140f2565b8373ffffffffffffffffffffffffffffffffffffffff168573ffffffffffffffffffffffffffffffffffffffff168273ffffffffffffffffffffffffffffffffffffffff167f4a39dc06d4c0dbc64b70af90fd698a233a518aa5d07e595d983b8c0526c8f7fb86866040516140e9929190615f03565b60405180910390a45b5050505050565b6040518060e00160405280606081526020016060815260200160608152602001606081526020016060815260200160608152602001600073ffffffffffffffffffffffffffffffffffffffff1681525090565b6000604051905090565b600080fd5b600080fd5b600073ffffffffffffffffffffffffffffffffffffffff82169050919050565b600061418b82614160565b9050919050565b61419b81614180565b81146141a657600080fd5b50565b6000813590506141b881614192565b92915050565b6000819050919050565b6141d1816141be565b81146141dc57600080fd5b50565b6000813590506141ee816141c8565b92915050565b6000806040838503121561420b5761420a614156565b5b6000614219858286016141a9565b925050602061422a858286016141df565b9150509250929050565b61423d816141be565b82525050565b60006020820190506142586000830184614234565b92915050565b60007fffffffff0000000000000000000000000000000000000000000000000000000082169050919050565b6142938161425e565b811461429e57600080fd5b50565b6000813590506142b08161428a565b92915050565b6000602082840312156142cc576142cb614156565b5b60006142da848285016142a1565b91505092915050565b60008115159050919050565b6142f8816142e3565b82525050565b600060208201905061431360008301846142ef565b92915050565b600080fd5b600080fd5b6000601f19601f8301169050919050565b7f4e487b7100000000000000000000000000000000000000000000000000000000600052604160045260246000fd5b61436c82614323565b810181811067ffffffffffffffff8211171561438b5761438a614334565b5b80604052505050565b600061439e61414c565b90506143aa8282614363565b919050565b600067ffffffffffffffff8211156143ca576143c9614334565b5b6143d382614323565b9050602081019050919050565b82818337600083830152505050565b60006144026143fd846143af565b614394565b90508281526020810184848401111561441e5761441d61431e565b5b6144298482856143e0565b509392505050565b600082601f83011261444657614445614319565b5b81356144568482602086016143ef565b91505092915050565b60006020828403121561447557614474614156565b5b600082013567ffffffffffffffff8111156144935761449261415b565b5b61449f84828501614431565b91505092915050565b6000602082840312156144be576144bd614156565b5b60006144cc848285016141df565b91505092915050565b600081519050919050565b600082825260208201905092915050565b60005b8381101561450f5780820151818401526020810190506144f4565b60008484015250505050565b6000614526826144d5565b61453081856144e0565b93506145408185602086016144f1565b61454981614323565b840191505092915050565b6000602082019050818103600083015261456e818461451b565b905092915050565b6000819050919050565b61458981614576565b82525050565b60006020820190506145a46000830184614580565b92915050565b6000602082840312156145c0576145bf614156565b5b60006145ce848285016141a9565b91505092915050565b600060608201905081810360008301526145f1818661451b565b90508181036020830152614605818561451b565b905061461460408301846142ef565b949350505050565b61462581614576565b811461463057600080fd5b50565b6000813590506146428161461c565b92915050565b60006020828403121561465e5761465d614156565b5b600061466c84828501614633565b91505092915050565b600067ffffffffffffffff8211156146905761468f614334565b5b602082029050602081019050919050565b600080fd5b60006146b96146b484614675565b614394565b905080838252602082019050602084028301858111156146dc576146db6146a1565b5b835b8181101561470557806146f188826141df565b8452602084019350506020810190506146de565b5050509392505050565b600082601f83011261472457614723614319565b5b81356147348482602086016146a6565b91505092915050565b600067ffffffffffffffff82111561475857614757614334565b5b61476182614323565b9050602081019050919050565b600061478161477c8461473d565b614394565b90508281526020810184848401111561479d5761479c61431e565b5b6147a88482856143e0565b509392505050565b600082601f8301126147c5576147c4614319565b5b81356147d584826020860161476e565b91505092915050565b600080600080600060a086880312156147fa576147f9614156565b5b6000614808888289016141a9565b9550506020614819888289016141a9565b945050604086013567ffffffffffffffff81111561483a5761483961415b565b5b6148468882890161470f565b935050606086013567ffffffffffffffff8111156148675761486661415b565b5b6148738882890161470f565b925050608086013567ffffffffffffffff8111156148945761489361415b565b5b6148a0888289016147b0565b9150509295509295909350565b600080604083850312156148c4576148c3614156565b5b60006148d285828601614633565b92505060206148e3858286016141a9565b9150509250929050565b600067ffffffffffffffff82111561490857614907614334565b5b602082029050602081019050919050565b600061492c614927846148ed565b614394565b9050808382526020820190506020840283018581111561494f5761494e6146a1565b5b835b81811015614978578061496488826141a9565b845260208401935050602081019050614951565b5050509392505050565b600082601f83011261499757614996614319565b5b81356149a7848260208601614919565b91505092915050565b600080604083850312156149c7576149c6614156565b5b600083013567ffffffffffffffff8111156149e5576149e461415b565b5b6149f185828601614982565b925050602083013567ffffffffffffffff811115614a1257614a1161415b565b5b614a1e8582860161470f565b9150509250929050565b600081519050919050565b600082825260208201905092915050565b6000819050602082019050919050565b614a5d816141be565b82525050565b6000614a6f8383614a54565b60208301905092915050565b6000602082019050919050565b6000614a9382614a28565b614a9d8185614a33565b9350614aa883614a44565b8060005b83811015614ad9578151614ac08882614a63565b9750614acb83614a7b565b925050600181019050614aac565b5085935050505092915050565b60006020820190508181036000830152614b008184614a88565b905092915050565b614b1181614180565b82525050565b600060e0820190508181036000830152614b31818a61451b565b90508181036020830152614b45818961451b565b90508181036040830152614b59818861451b565b90508181036060830152614b6d818761451b565b90508181036080830152614b81818661451b565b905081810360a0830152614b95818561451b565b9050614ba460c0830184614b08565b98975050505050505050565b600080600060608486031215614bc957614bc8614156565b5b6000614bd7868287016141a9565b935050602084013567ffffffffffffffff811115614bf857614bf761415b565b5b614c048682870161470f565b925050604084013567ffffffffffffffff811115614c2557614c2461415b565b5b614c318682870161470f565b9150509250925092565b600080600060608486031215614c5457614c53614156565b5b6000614c62868287016141a9565b9350506020614c73868287016141df565b9250506040614c84868287016141df565b9150509250925092565b600080600080600080600060e0888a031215614cad57614cac614156565b5b6000614cbb8a828b016141df565b975050602088013567ffffffffffffffff811115614cdc57614cdb61415b565b5b614ce88a828b01614431565b965050604088013567ffffffffffffffff811115614d0957614d0861415b565b5b614d158a828b01614431565b955050606088013567ffffffffffffffff811115614d3657614d3561415b565b5b614d428a828b01614431565b945050608088013567ffffffffffffffff811115614d6357614d6261415b565b5b614d6f8a828b01614431565b93505060a088013567ffffffffffffffff811115614d9057614d8f61415b565b5b614d9c8a828b01614431565b92505060c088013567ffffffffffffffff811115614dbd57614dbc61415b565b5b614dc98a828b01614431565b91505092959891949750929550565b614de1816142e3565b8114614dec57600080fd5b50565b600081359050614dfe81614dd8565b92915050565b60008060408385031215614e1b57614e1a614156565b5b6000614e29858286016141a9565b9250506020614e3a85828601614def565b9150509250929050565b600060ff82169050919050565b614e5a81614e44565b82525050565b600060a082019050614e756000830188614b08565b614e826020830187614b08565b614e8f6040830186614234565b614e9c6060830185614234565b614ea96080830184614e51565b9695505050505050565b60008060408385031215614eca57614ec9614156565b5b6000614ed8858286016141df565b9250506020614ee9858286016141df565b9150509250929050565b600082825260208201905092915050565b6000614f0f826144d5565b614f198185614ef3565b9350614f298185602086016144f1565b614f3281614323565b840191505092915050565b614f4681614180565b82525050565b600060e0830160008301518482036000860152614f698282614f04565b91505060208301518482036020860152614f838282614f04565b91505060408301518482036040860152614f9d8282614f04565b91505060608301518482036060860152614fb78282614f04565b91505060808301518482036080860152614fd18282614f04565b91505060a083015184820360a0860152614feb8282614f04565b91505060c083015161500060c0860182614f3d565b508091505092915050565b600060208201905081810360008301526150258184614f4c565b905092915050565b6000806040838503121561504457615043614156565b5b6000615052858286016141a9565b9250506020615063858286016141a9565b9150509250929050565b600080600080600060a0868803121561508957615088614156565b5b6000615097888289016141a9565b95505060206150a8888289016141a9565b94505060406150b9888289016141df565b93505060606150ca888289016141df565b925050608086013567ffffffffffffffff8111156150eb576150ea61415b565b5b6150f7888289016147b0565b9150509295509295909350565b60008060006060848603121561511d5761511c614156565b5b600061512b868287016141a9565b935050602084013567ffffffffffffffff81111561514c5761514b61415b565b5b61515886828701614431565b925050604084013567ffffffffffffffff8111156151795761517861415b565b5b61518586828701614431565b9150509250925092565b7f4e487b7100000000000000000000000000000000000000000000000000000000600052602260045260246000fd5b600060028204905060018216806151d657607f821691505b6020821081036151e9576151e861518f565b5b50919050565b60006040820190506152046000830185614b08565b6152116020830184614b08565b9392505050565b600060408201905061522d6000830185614234565b61523a6020830184614234565b9392505050565b7f4e487b7100000000000000000000000000000000000000000000000000000000600052603260045260246000fd5b7f496e76616c6964206c696272617279206f7220626f6f6b000000000000000000600082015250565b60006152a66017836144e0565b91506152b182615270565b602082019050919050565b600060208201905081810360008301526152d581615299565b9050919050565b7f496e73756666696369656e7420626f6f6b730000000000000000000000000000600082015250565b60006153126012836144e0565b915061531d826152dc565b602082019050919050565b6000602082019050818103600083015261534181615305565b9050919050565b7f4e487b7100000000000000000000000000000000000000000000000000000000600052601160045260246000fd5b6000615382826141be565b91507fffffffffffffffffffffffffffffffffffffffffffffffffffffffffffffffff82036153b4576153b3615348565b5b600182019050919050565b60006080820190506153d46000830187614234565b6153e16020830186614b08565b6153ee6040830185614b08565b6153fb6060830184614234565b95945050505050565b7f4c69627261727920646f6573206e6f7420657869737400000000000000000000600082015250565b600061543a6016836144e0565b915061544582615404565b602082019050919050565b600060208201905081810360008301526154698161542d565b9050919050565b7f496e76616c6964206c6962726172790000000000000000000000000000000000600082015250565b60006154a6600f836144e0565b91506154b182615470565b602082019050919050565b600060208201905081810360008301526154d581615499565b9050919050565b7f426f6f6b20657869737473000000000000000000000000000000000000000000600082015250565b6000615512600b836144e0565b915061551d826154dc565b602082019050919050565b6000602082019050818103600083015261554181615505565b9050919050565b7f496e76616c696420626f6f6b2064617461000000000000000000000000000000600082015250565b600061557e6011836144e0565b915061558982615548565b602082019050919050565b600060208201905081810360008301526155ad81615571565b9050919050565b60008190508160005260206000209050919050565b60006020601f8301049050919050565b600082821b905092915050565b6000600883026156167fffffffffffffffffffffffffffffffffffffffffffffffffffffffffffffffff826155d9565b61562086836155d9565b95508019841693508086168417925050509392505050565b6000819050919050565b600061565d615658615653846141be565b615638565b6141be565b9050919050565b6000819050919050565b61567783615642565b61568b61568382615664565b8484546155e6565b825550505050565b600090565b6156a0615693565b6156ab81848461566e565b505050565b5b818110156156cf576156c4600082615698565b6001810190506156b1565b5050565b601f821115615714576156e5816155b4565b6156ee846155c9565b810160208510156156fd578190505b615711615709856155c9565b8301826156b0565b50505b505050565b600082821c905092915050565b600061573760001984600802615719565b1980831691505092915050565b60006157508383615726565b9150826002028217905092915050565b615769826144d5565b67ffffffffffffffff81111561578257615781614334565b5b61578c82546151be565b6157978282856156d3565b600060209050601f8311600181146157ca57600084156157b8578287015190505b6157c28582615744565b86555061582a565b601f1984166157d8866155b4565b60005b82811015615800578489015182556001820191506020850194506020810190506157db565b8683101561581d5784890151615819601f891682615726565b8355505b6001600288020188555050505b505050505050565b60006060820190506158476000830186614234565b8181036020830152615859818561451b565b9050818103604083015261586d818461451b565b9050949350505050565b7f496e76616c696420617070726f76616c00000000000000000000000000000000600082015250565b60006158ad6010836144e0565b91506158b882615877565b602082019050919050565b600060208201905081810360008301526158dc816158a0565b9050919050565b60006040820190506158f86000830185614234565b6159056020830184614b08565b9392505050565b7f426f6f6b20696e737469747574696f6e20697320646966666572656e7420667260008201527f6f6d2073656e6465720000000000000000000000000000000000000000000000602082015250565b60006159686029836144e0565b91506159738261590c565b604082019050919050565b600060208201905081810360008301526159978161595b565b9050919050565b60006060820190506159b36000830186614234565b6159c06020830185614b08565b6159cd6040830184614234565b949350505050565b7f426f6f6b20646f6573206e6f7420657869737400000000000000000000000000600082015250565b6000615a0b6013836144e0565b9150615a16826159d5565b602082019050919050565b60006020820190508181036000830152615a3a816159fe565b9050919050565b7f496e76616c69642072657475726e000000000000000000000000000000000000600082015250565b6000615a77600e836144e0565b9150615a8282615a41565b602082019050919050565b60006020820190508181036000830152615aa681615a6a565b9050919050565b7f4c69627261727920657869737473000000000000000000000000000000000000600082015250565b6000615ae3600e836144e0565b9150615aee82615aad565b602082019050919050565b60006020820190508181036000830152615b1281615ad6565b9050919050565b7f496e76616c696420696e70757400000000000000000000000000000000000000600082015250565b6000615b4f600d836144e0565b9150615b5a82615b19565b602082019050919050565b60006020820190508181036000830152615b7e81615b42565b9050919050565b6000604082019050615b9a6000830185614b08565b8181036020830152615bac818461451b565b90509392505050565b7f496e76616c6964207472616e7366657200000000000000000000000000000000600082015250565b6000615beb6010836144e0565b9150615bf682615bb5565b602082019050919050565b60006020820190508181036000830152615c1a81615bde565b9050919050565b6000602082019050615c366000830184614b08565b92915050565b600081905092915050565b6000615c52826144d5565b615c5c8185615c3c565b9350615c6c8185602086016144f1565b80840191505092915050565b6000615c848285615c47565b9150615c908284615c47565b91508190509392505050565b6000604082019050615cb16000830185614b08565b615cbe6020830184614580565b9392505050565b7f496e76616c6964206c6962726172696573000000000000000000000000000000600082015250565b6000615cfb6011836144e0565b9150615d0682615cc5565b602082019050919050565b60006020820190508181036000830152615d2a81615cee565b9050919050565b600081519050919050565b600082825260208201905092915050565b6000615d5882615d31565b615d628185615d3c565b9350615d728185602086016144f1565b615d7b81614323565b840191505092915050565b600060a082019050615d9b6000830188614b08565b615da86020830187614b08565b615db56040830186614234565b615dc26060830185614234565b8181036080830152615dd48184615d4d565b90509695505050505050565b600081519050615def8161428a565b92915050565b600060208284031215615e0b57615e0a614156565b5b6000615e1984828501615de0565b91505092915050565b600060a082019050615e376000830188614b08565b615e446020830187614b08565b8181036040830152615e568186614a88565b90508181036060830152615e6a8185614a88565b90508181036080830152615e7e8184615d4d565b90509695505050505050565b6000615e95826141be565b9150615ea0836141be565b9250828201905080821115615eb857615eb7615348565b5b92915050565b6000608082019050615ed36000830187614b08565b615ee06020830186614234565b615eed6040830185614234565b615efa6060830184614234565b95945050505050565b60006040820190508181036000830152615f1d8185614a88565b90508181036020830152615f318184614a88565b9050939250505056fea2646970667358221220bd2bdedbdb66c17a084dd25759640d9e96d6e6c40b58c9da72708a73686462db64736f6c634300081b003368747470733a2f2f63686f636f6c6174652d62697a617272652d73696c766572666973682d3731322e6d7970696e6174612e636c6f75642f697066732f","opcodes":"PUSH1 0x80 PUSH1 0x40 MSTORE CALLVALUE DUP1 ISZERO PUSH2 0x10 JUMPI PUSH1 0x0 DUP1 REVERT JUMPDEST POP PUSH1 0x40 MLOAD PUSH2 0x6680 CODESIZE SUB DUP1 PUSH2 0x6680 DUP4 CODECOPY DUP2 DUP2 ADD PUSH1 0x40 MSTORE DUP2 ADD SWAP1 PUSH2 0x32 SWAP2 SWAP1 PUSH2 0x375 JUMP JUMPDEST PUSH1 0x40 MLOAD DUP1 PUSH1 0x60 ADD PUSH1 0x40 MSTORE DUP1 PUSH1 0x3D DUP2 MSTORE PUSH1 0x20 ADD PUSH2 0x6643 PUSH1 0x3D SWAP2 CODECOPY PUSH2 0x5A DUP2 PUSH2 0x10C PUSH1 0x20 SHL PUSH1 0x20 SHR JUMP JUMPDEST POP PUSH2 0x6E PUSH1 0x0 DUP1 SHL DUP3 PUSH2 0x11F PUSH1 0x20 SHL PUSH1 0x20 SHR JUMP JUMPDEST POP PUSH2 0x9F PUSH32 0x616DE93F8F9411AAE7290D381DD434CB23223A2F88EF9A88F3CDB0EB43FE9248 DUP3 PUSH2 0x11F PUSH1 0x20 SHL PUSH1 0x20 SHR JUMP JUMPDEST POP PUSH2 0xD3 PUSH32 0x616DE93F8F9411AAE7290D381DD434CB23223A2F88EF9A88F3CDB0EB43FE9248 PUSH1 0x0 DUP1 SHL PUSH2 0x21D PUSH1 0x20 SHL PUSH1 0x20 SHR JUMP JUMPDEST PUSH2 0x106 PUSH32 0x14823911F2DA1B49F045A0929A60B8C1F2A7FC8C06C7284CA3E8AB4E193A08C8 PUSH1 0x0 DUP1 SHL PUSH2 0x21D PUSH1 0x20 SHL PUSH1 0x20 SHR JUMP JUMPDEST POP PUSH2 0x6C4 JUMP JUMPDEST DUP1 PUSH1 0x2 SWAP1 DUP2 PUSH2 0x11B SWAP2 SWAP1 PUSH2 0x5F2 JUMP JUMPDEST POP POP JUMP JUMPDEST PUSH1 0x0 PUSH2 0x131 DUP4 DUP4 PUSH2 0x27F PUSH1 0x20 SHL PUSH1 0x20 SHR JUMP JUMPDEST PUSH2 0x212 JUMPI PUSH1 0x1 PUSH1 0x3 PUSH1 0x0 DUP6 DUP2 MSTORE PUSH1 0x20 ADD SWAP1 DUP2 MSTORE PUSH1 0x20 ADD PUSH1 0x0 KECCAK256 PUSH1 0x0 ADD PUSH1 0x0 DUP5 PUSH20 0xFFFFFFFFFFFFFFFFFFFFFFFFFFFFFFFFFFFFFFFF AND PUSH20 0xFFFFFFFFFFFFFFFFFFFFFFFFFFFFFFFFFFFFFFFF AND DUP2 MSTORE PUSH1 0x20 ADD SWAP1 DUP2 MSTORE PUSH1 0x20 ADD PUSH1 0x0 KECCAK256 PUSH1 0x0 PUSH2 0x100 EXP DUP2 SLOAD DUP2 PUSH1 0xFF MUL NOT AND SWAP1 DUP4 ISZERO ISZERO MUL OR SWAP1 SSTORE POP PUSH2 0x1AF PUSH2 0x2EA PUSH1 0x20 SHL PUSH1 0x20 SHR JUMP JUMPDEST PUSH20 0xFFFFFFFFFFFFFFFFFFFFFFFFFFFFFFFFFFFFFFFF AND DUP3 PUSH20 0xFFFFFFFFFFFFFFFFFFFFFFFFFFFFFFFFFFFFFFFF AND DUP5 PUSH32 0x2F8788117E7EFF1D82E926EC794901D17C78024A50270940304540A733656F0D PUSH1 0x40 MLOAD PUSH1 0x40 MLOAD DUP1 SWAP2 SUB SWAP1 LOG4 PUSH1 0x1 SWAP1 POP PUSH2 0x217 JUMP JUMPDEST PUSH1 0x0 SWAP1 POP JUMPDEST SWAP3 SWAP2 POP POP JUMP JUMPDEST PUSH1 0x0 PUSH2 0x22E DUP4 PUSH2 0x2F2 PUSH1 0x20 SHL PUSH1 0x20 SHR JUMP JUMPDEST SWAP1 POP DUP2 PUSH1 0x3 PUSH1 0x0 DUP6 DUP2 MSTORE PUSH1 0x20 ADD SWAP1 DUP2 MSTORE PUSH1 0x20 ADD PUSH1 0x0 KECCAK256 PUSH1 0x1 ADD DUP2 SWAP1 SSTORE POP DUP2 DUP2 DUP5 PUSH32 0xBD79B86FFE0AB8E8776151514217CD7CACD52C909F66475C3AF44E129F0B00FF PUSH1 0x40 MLOAD PUSH1 0x40 MLOAD DUP1 SWAP2 SUB SWAP1 LOG4 POP POP POP JUMP JUMPDEST PUSH1 0x0 PUSH1 0x3 PUSH1 0x0 DUP5 DUP2 MSTORE PUSH1 0x20 ADD SWAP1 DUP2 MSTORE PUSH1 0x20 ADD PUSH1 0x0 KECCAK256 PUSH1 0x0 ADD PUSH1 0x0 DUP4 PUSH20 0xFFFFFFFFFFFFFFFFFFFFFFFFFFFFFFFFFFFFFFFF AND PUSH20 0xFFFFFFFFFFFFFFFFFFFFFFFFFFFFFFFFFFFFFFFF AND DUP2 MSTORE PUSH1 0x20 ADD SWAP1 DUP2 MSTORE PUSH1 0x20 ADD PUSH1 0x0 KECCAK256 PUSH1 0x0 SWAP1 SLOAD SWAP1 PUSH2 0x100 EXP SWAP1 DIV PUSH1 0xFF AND SWAP1 POP SWAP3 SWAP2 POP POP JUMP JUMPDEST PUSH1 0x0 CALLER SWAP1 POP SWAP1 JUMP JUMPDEST PUSH1 0x0 PUSH1 0x3 PUSH1 0x0 DUP4 DUP2 MSTORE PUSH1 0x20 ADD SWAP1 DUP2 MSTORE PUSH1 0x20 ADD PUSH1 0x0 KECCAK256 PUSH1 0x1 ADD SLOAD SWAP1 POP SWAP2 SWAP1 POP JUMP JUMPDEST PUSH1 0x0 DUP1 REVERT JUMPDEST PUSH1 0x0 PUSH20 0xFFFFFFFFFFFFFFFFFFFFFFFFFFFFFFFFFFFFFFFF DUP3 AND SWAP1 POP SWAP2 SWAP1 POP JUMP JUMPDEST PUSH1 0x0 PUSH2 0x342 DUP3 PUSH2 0x317 JUMP JUMPDEST SWAP1 POP SWAP2 SWAP1 POP JUMP JUMPDEST PUSH2 0x352 DUP2 PUSH2 0x337 JUMP JUMPDEST DUP2 EQ PUSH2 0x35D JUMPI PUSH1 0x0 DUP1 REVERT JUMPDEST POP JUMP JUMPDEST PUSH1 0x0 DUP2 MLOAD SWAP1 POP PUSH2 0x36F DUP2 PUSH2 0x349 JUMP JUMPDEST SWAP3 SWAP2 POP POP JUMP JUMPDEST PUSH1 0x0 PUSH1 0x20 DUP3 DUP5 SUB SLT ISZERO PUSH2 0x38B JUMPI PUSH2 0x38A PUSH2 0x312 JUMP JUMPDEST JUMPDEST PUSH1 0x0 PUSH2 0x399 DUP5 DUP3 DUP6 ADD PUSH2 0x360 JUMP JUMPDEST SWAP2 POP POP SWAP3 SWAP2 POP POP JUMP JUMPDEST PUSH1 0x0 DUP2 MLOAD SWAP1 POP SWAP2 SWAP1 POP JUMP JUMPDEST PUSH32 0x4E487B7100000000000000000000000000000000000000000000000000000000 PUSH1 0x0 MSTORE PUSH1 0x41 PUSH1 0x4 MSTORE PUSH1 0x24 PUSH1 0x0 REVERT JUMPDEST PUSH32 0x4E487B7100000000000000000000000000000000000000000000000000000000 PUSH1 0x0 MSTORE PUSH1 0x22 PUSH1 0x4 MSTORE PUSH1 0x24 PUSH1 0x0 REVERT JUMPDEST PUSH1 0x0 PUSH1 0x2 DUP3 DIV SWAP1 POP PUSH1 0x1 DUP3 AND DUP1 PUSH2 0x423 JUMPI PUSH1 0x7F DUP3 AND SWAP2 POP JUMPDEST PUSH1 0x20 DUP3 LT DUP2 SUB PUSH2 0x436 JUMPI PUSH2 0x435 PUSH2 0x3DC JUMP JUMPDEST JUMPDEST POP SWAP2 SWAP1 POP JUMP JUMPDEST PUSH1 0x0 DUP2 SWAP1 POP DUP2 PUSH1 0x0 MSTORE PUSH1 0x20 PUSH1 0x0 KECCAK256 SWAP1 POP SWAP2 SWAP1 POP JUMP JUMPDEST PUSH1 0x0 PUSH1 0x20 PUSH1 0x1F DUP4 ADD DIV SWAP1 POP SWAP2 SWAP1 POP JUMP JUMPDEST PUSH1 0x0 DUP3 DUP3 SHL SWAP1 POP SWAP3 SWAP2 POP POP JUMP JUMPDEST PUSH1 0x0 PUSH1 0x8 DUP4 MUL PUSH2 0x49E PUSH32 0xFFFFFFFFFFFFFFFFFFFFFFFFFFFFFFFFFFFFFFFFFFFFFFFFFFFFFFFFFFFFFFFF DUP3 PUSH2 0x461 JUMP JUMPDEST PUSH2 0x4A8 DUP7 DUP4 PUSH2 0x461 JUMP JUMPDEST SWAP6 POP DUP1 NOT DUP5 AND SWAP4 POP DUP1 DUP7 AND DUP5 OR SWAP3 POP POP POP SWAP4 SWAP3 POP POP POP JUMP JUMPDEST PUSH1 0x0 DUP2 SWAP1 POP SWAP2 SWAP1 POP JUMP JUMPDEST PUSH1 0x0 DUP2 SWAP1 POP SWAP2 SWAP1 POP JUMP JUMPDEST PUSH1 0x0 PUSH2 0x4EF PUSH2 0x4EA PUSH2 0x4E5 DUP5 PUSH2 0x4C0 JUMP JUMPDEST PUSH2 0x4CA JUMP JUMPDEST PUSH2 0x4C0 JUMP JUMPDEST SWAP1 POP SWAP2 SWAP1 POP JUMP JUMPDEST PUSH1 0x0 DUP2 SWAP1 POP SWAP2 SWAP1 POP JUMP JUMPDEST PUSH2 0x509 DUP4 PUSH2 0x4D4 JUMP JUMPDEST PUSH2 0x51D PUSH2 0x515 DUP3 PUSH2 0x4F6 JUMP JUMPDEST DUP5 DUP5 SLOAD PUSH2 0x46E JUMP JUMPDEST DUP3 SSTORE POP POP POP POP JUMP JUMPDEST PUSH1 0x0 SWAP1 JUMP JUMPDEST PUSH2 0x532 PUSH2 0x525 JUMP JUMPDEST PUSH2 0x53D DUP2 DUP5 DUP5 PUSH2 0x500 JUMP JUMPDEST POP POP POP JUMP JUMPDEST JUMPDEST DUP2 DUP2 LT ISZERO PUSH2 0x561 JUMPI PUSH2 0x556 PUSH1 0x0 DUP3 PUSH2 0x52A JUMP JUMPDEST PUSH1 0x1 DUP2 ADD SWAP1 POP PUSH2 0x543 JUMP JUMPDEST POP POP JUMP JUMPDEST PUSH1 0x1F DUP3 GT ISZERO PUSH2 0x5A6 JUMPI PUSH2 0x577 DUP2 PUSH2 0x43C JUMP JUMPDEST PUSH2 0x580 DUP5 PUSH2 0x451 JUMP JUMPDEST DUP2 ADD PUSH1 0x20 DUP6 LT ISZERO PUSH2 0x58F JUMPI DUP2 SWAP1 POP JUMPDEST PUSH2 0x5A3 PUSH2 0x59B DUP6 PUSH2 0x451 JUMP JUMPDEST DUP4 ADD DUP3 PUSH2 0x542 JUMP JUMPDEST POP POP JUMPDEST POP POP POP JUMP JUMPDEST PUSH1 0x0 DUP3 DUP3 SHR SWAP1 POP SWAP3 SWAP2 POP POP JUMP JUMPDEST PUSH1 0x0 PUSH2 0x5C9 PUSH1 0x0 NOT DUP5 PUSH1 0x8 MUL PUSH2 0x5AB JUMP JUMPDEST NOT DUP1 DUP4 AND SWAP2 POP POP SWAP3 SWAP2 POP POP JUMP JUMPDEST PUSH1 0x0 PUSH2 0x5E2 DUP4 DUP4 PUSH2 0x5B8 JUMP JUMPDEST SWAP2 POP DUP3 PUSH1 0x2 MUL DUP3 OR SWAP1 POP SWAP3 SWAP2 POP POP JUMP JUMPDEST PUSH2 0x5FB DUP3 PUSH2 0x3A2 JUMP JUMPDEST PUSH8 0xFFFFFFFFFFFFFFFF DUP2 GT ISZERO PUSH2 0x614 JUMPI PUSH2 0x613 PUSH2 0x3AD JUMP JUMPDEST JUMPDEST PUSH2 0x61E DUP3 SLOAD PUSH2 0x40B JUMP JUMPDEST PUSH2 0x629 DUP3 DUP3 DUP6 PUSH2 0x565 JUMP JUMPDEST PUSH1 0x0 PUSH1 0x20 SWAP1 POP PUSH1 0x1F DUP4 GT PUSH1 0x1 DUP2 EQ PUSH2 0x65C JUMPI PUSH1 0x0 DUP5 ISZERO PUSH2 0x64A JUMPI DUP3 DUP8 ADD MLOAD SWAP1 POP JUMPDEST PUSH2 0x654 DUP6 DUP3 PUSH2 0x5D6 JUMP JUMPDEST DUP7 SSTORE POP PUSH2 0x6BC JUMP JUMPDEST PUSH1 0x1F NOT DUP5 AND PUSH2 0x66A DUP7 PUSH2 0x43C JUMP JUMPDEST PUSH1 0x0 JUMPDEST DUP3 DUP2 LT ISZERO PUSH2 0x692 JUMPI DUP5 DUP10 ADD MLOAD DUP3 SSTORE PUSH1 0x1 DUP3 ADD SWAP2 POP PUSH1 0x20 DUP6 ADD SWAP5 POP PUSH1 0x20 DUP2 ADD SWAP1 POP PUSH2 0x66D JUMP JUMPDEST DUP7 DUP4 LT ISZERO PUSH2 0x6AF JUMPI DUP5 DUP10 ADD MLOAD PUSH2 0x6AB PUSH1 0x1F DUP10 AND DUP3 PUSH2 0x5B8 JUMP JUMPDEST DUP4 SSTORE POP JUMPDEST PUSH1 0x1 PUSH1 0x2 DUP9 MUL ADD DUP9 SSTORE POP POP POP JUMPDEST POP POP POP POP POP POP JUMP JUMPDEST PUSH2 0x5F70 DUP1 PUSH2 0x6D3 PUSH1 0x0 CODECOPY PUSH1 0x0 RETURN INVALID PUSH1 0x80 PUSH1 0x40 MSTORE CALLVALUE DUP1 ISZERO PUSH2 0x10 JUMPI PUSH1 0x0 DUP1 REVERT JUMPDEST POP PUSH1 0x4 CALLDATASIZE LT PUSH2 0x23C JUMPI PUSH1 0x0 CALLDATALOAD PUSH1 0xE0 SHR DUP1 PUSH4 0x7CF52D96 GT PUSH2 0x13B JUMPI DUP1 PUSH4 0xD1B332F4 GT PUSH2 0xB8 JUMPI DUP1 PUSH4 0xE985E9C5 GT PUSH2 0x7C JUMPI DUP1 PUSH4 0xE985E9C5 EQ PUSH2 0x709 JUMPI DUP1 PUSH4 0xF242432A EQ PUSH2 0x739 JUMPI DUP1 PUSH4 0xF5298ACA EQ PUSH2 0x755 JUMPI DUP1 PUSH4 0xF6933078 EQ PUSH2 0x771 JUMPI DUP1 PUSH4 0xF7D34803 EQ PUSH2 0x78D JUMPI PUSH2 0x23C JUMP JUMPDEST DUP1 PUSH4 0xD1B332F4 EQ PUSH2 0x651 JUMPI DUP1 PUSH4 0xD547741F EQ PUSH2 0x685 JUMPI DUP1 PUSH4 0xD9EA610F EQ PUSH2 0x6A1 JUMPI DUP1 PUSH4 0xE0FF5B8B EQ PUSH2 0x6BD JUMPI DUP1 PUSH4 0xE9126154 EQ PUSH2 0x6ED JUMPI PUSH2 0x23C JUMP JUMPDEST DUP1 PUSH4 0x9422C910 GT PUSH2 0xFF JUMPI DUP1 PUSH4 0x9422C910 EQ PUSH2 0x5AF JUMPI DUP1 PUSH4 0xA217FDDF EQ PUSH2 0x5CB JUMPI DUP1 PUSH4 0xA22CB465 EQ PUSH2 0x5E9 JUMPI DUP1 PUSH4 0xAADC1AC1 EQ PUSH2 0x605 JUMPI DUP1 PUSH4 0xBD85B039 EQ PUSH2 0x621 JUMPI PUSH2 0x23C JUMP JUMPDEST DUP1 PUSH4 0x7CF52D96 EQ PUSH2 0x51B JUMPI DUP1 PUSH4 0x8456CB59 EQ PUSH2 0x539 JUMPI DUP1 PUSH4 0x87C51459 EQ PUSH2 0x543 JUMPI DUP1 PUSH4 0x8DD25C9A EQ PUSH2 0x561 JUMPI DUP1 PUSH4 0x91D14854 EQ PUSH2 0x57F JUMPI PUSH2 0x23C JUMP JUMPDEST DUP1 PUSH4 0x2F2FF15D GT PUSH2 0x1C9 JUMPI DUP1 PUSH4 0x5C975ABB GT PUSH2 0x18D JUMPI DUP1 PUSH4 0x5C975ABB EQ PUSH2 0x449 JUMPI DUP1 PUSH4 0x68744046 EQ PUSH2 0x467 JUMPI DUP1 PUSH4 0x6B20C454 EQ PUSH2 0x49D JUMPI DUP1 PUSH4 0x6F77FF55 EQ PUSH2 0x4B9 JUMPI DUP1 PUSH4 0x7BFA3753 EQ PUSH2 0x4E9 JUMPI PUSH2 0x23C JUMP JUMPDEST DUP1 PUSH4 0x2F2FF15D EQ PUSH2 0x3A7 JUMPI DUP1 PUSH4 0x36568ABE EQ PUSH2 0x3C3 JUMPI DUP1 PUSH4 0x3F4BA83A EQ PUSH2 0x3DF JUMPI DUP1 PUSH4 0x4E1273F4 EQ PUSH2 0x3E9 JUMPI DUP1 PUSH4 0x4F558E79 EQ PUSH2 0x419 JUMPI PUSH2 0x23C JUMP JUMPDEST DUP1 PUSH4 0x13119161 GT PUSH2 0x210 JUMPI DUP1 PUSH4 0x13119161 EQ PUSH2 0x2ED JUMPI DUP1 PUSH4 0x18160DDD EQ PUSH2 0x30B JUMPI DUP1 PUSH4 0x21DF30E1 EQ PUSH2 0x329 JUMPI DUP1 PUSH4 0x248A9CA3 EQ PUSH2 0x35B JUMPI DUP1 PUSH4 0x2EB2C2D6 EQ PUSH2 0x38B JUMPI PUSH2 0x23C JUMP JUMPDEST DUP1 PUSH3 0xFDD58E EQ PUSH2 0x241 JUMPI DUP1 PUSH4 0x1FFC9A7 EQ PUSH2 0x271 JUMPI DUP1 PUSH4 0x2FE5305 EQ PUSH2 0x2A1 JUMPI DUP1 PUSH4 0xE89341C EQ PUSH2 0x2BD JUMPI JUMPDEST PUSH1 0x0 DUP1 REVERT JUMPDEST PUSH2 0x25B PUSH1 0x4 DUP1 CALLDATASIZE SUB DUP2 ADD SWAP1 PUSH2 0x256 SWAP2 SWAP1 PUSH2 0x41F4 JUMP JUMPDEST PUSH2 0x7A9 JUMP JUMPDEST PUSH1 0x40 MLOAD PUSH2 0x268 SWAP2 SWAP1 PUSH2 0x4243 JUMP JUMPDEST PUSH1 0x40 MLOAD DUP1 SWAP2 SUB SWAP1 RETURN JUMPDEST PUSH2 0x28B PUSH1 0x4 DUP1 CALLDATASIZE SUB DUP2 ADD SWAP1 PUSH2 0x286 SWAP2 SWAP1 PUSH2 0x42B6 JUMP JUMPDEST PUSH2 0x803 JUMP JUMPDEST PUSH1 0x40 MLOAD PUSH2 0x298 SWAP2 SWAP1 PUSH2 0x42FE JUMP JUMPDEST PUSH1 0x40 MLOAD DUP1 SWAP2 SUB SWAP1 RETURN JUMPDEST PUSH2 0x2BB PUSH1 0x4 DUP1 CALLDATASIZE SUB DUP2 ADD SWAP1 PUSH2 0x2B6 SWAP2 SWAP1 PUSH2 0x445F JUMP JUMPDEST PUSH2 0x815 JUMP JUMPDEST STOP JUMPDEST PUSH2 0x2D7 PUSH1 0x4 DUP1 CALLDATASIZE SUB DUP2 ADD SWAP1 PUSH2 0x2D2 SWAP2 SWAP1 PUSH2 0x44A8 JUMP JUMPDEST PUSH2 0x82F JUMP JUMPDEST PUSH1 0x40 MLOAD PUSH2 0x2E4 SWAP2 SWAP1 PUSH2 0x4554 JUMP JUMPDEST PUSH1 0x40 MLOAD DUP1 SWAP2 SUB SWAP1 RETURN JUMPDEST PUSH2 0x2F5 PUSH2 0x8C3 JUMP JUMPDEST PUSH1 0x40 MLOAD PUSH2 0x302 SWAP2 SWAP1 PUSH2 0x458F JUMP JUMPDEST PUSH1 0x40 MLOAD DUP1 SWAP2 SUB SWAP1 RETURN JUMPDEST PUSH2 0x313 PUSH2 0x8E7 JUMP JUMPDEST PUSH1 0x40 MLOAD PUSH2 0x320 SWAP2 SWAP1 PUSH2 0x4243 JUMP JUMPDEST PUSH1 0x40 MLOAD DUP1 SWAP2 SUB SWAP1 RETURN JUMPDEST PUSH2 0x343 PUSH1 0x4 DUP1 CALLDATASIZE SUB DUP2 ADD SWAP1 PUSH2 0x33E SWAP2 SWAP1 PUSH2 0x45AA JUMP JUMPDEST PUSH2 0x8F1 JUMP JUMPDEST PUSH1 0x40 MLOAD PUSH2 0x352 SWAP4 SWAP3 SWAP2 SWAP1 PUSH2 0x45D7 JUMP JUMPDEST PUSH1 0x40 MLOAD DUP1 SWAP2 SUB SWAP1 RETURN JUMPDEST PUSH2 0x375 PUSH1 0x4 DUP1 CALLDATASIZE SUB DUP2 ADD SWAP1 PUSH2 0x370 SWAP2 SWAP1 PUSH2 0x4648 JUMP JUMPDEST PUSH2 0xA38 JUMP JUMPDEST PUSH1 0x40 MLOAD PUSH2 0x382 SWAP2 SWAP1 PUSH2 0x458F JUMP JUMPDEST PUSH1 0x40 MLOAD DUP1 SWAP2 SUB SWAP1 RETURN JUMPDEST PUSH2 0x3A5 PUSH1 0x4 DUP1 CALLDATASIZE SUB DUP2 ADD SWAP1 PUSH2 0x3A0 SWAP2 SWAP1 PUSH2 0x47DE JUMP JUMPDEST PUSH2 0xA58 JUMP JUMPDEST STOP JUMPDEST PUSH2 0x3C1 PUSH1 0x4 DUP1 CALLDATASIZE SUB DUP2 ADD SWAP1 PUSH2 0x3BC SWAP2 SWAP1 PUSH2 0x48AD JUMP JUMPDEST PUSH2 0xB00 JUMP JUMPDEST STOP JUMPDEST PUSH2 0x3DD PUSH1 0x4 DUP1 CALLDATASIZE SUB DUP2 ADD SWAP1 PUSH2 0x3D8 SWAP2 SWAP1 PUSH2 0x48AD JUMP JUMPDEST PUSH2 0xB22 JUMP JUMPDEST STOP JUMPDEST PUSH2 0x3E7 PUSH2 0xB9D JUMP JUMPDEST STOP JUMPDEST PUSH2 0x403 PUSH1 0x4 DUP1 CALLDATASIZE SUB DUP2 ADD SWAP1 PUSH2 0x3FE SWAP2 SWAP1 PUSH2 0x49B0 JUMP JUMPDEST PUSH2 0xBB5 JUMP JUMPDEST PUSH1 0x40 MLOAD PUSH2 0x410 SWAP2 SWAP1 PUSH2 0x4AE6 JUMP JUMPDEST PUSH1 0x40 MLOAD DUP1 SWAP2 SUB SWAP1 RETURN JUMPDEST PUSH2 0x433 PUSH1 0x4 DUP1 CALLDATASIZE SUB DUP2 ADD SWAP1 PUSH2 0x42E SWAP2 SWAP1 PUSH2 0x44A8 JUMP JUMPDEST PUSH2 0xCBE JUMP JUMPDEST PUSH1 0x40 MLOAD PUSH2 0x440 SWAP2 SWAP1 PUSH2 0x42FE JUMP JUMPDEST PUSH1 0x40 MLOAD DUP1 SWAP2 SUB SWAP1 RETURN JUMPDEST PUSH2 0x451 PUSH2 0xCD2 JUMP JUMPDEST PUSH1 0x40 MLOAD PUSH2 0x45E SWAP2 SWAP1 PUSH2 0x42FE JUMP JUMPDEST PUSH1 0x40 MLOAD DUP1 SWAP2 SUB SWAP1 RETURN JUMPDEST PUSH2 0x481 PUSH1 0x4 DUP1 CALLDATASIZE SUB DUP2 ADD SWAP1 PUSH2 0x47C SWAP2 SWAP1 PUSH2 0x44A8 JUMP JUMPDEST PUSH2 0xCE9 JUMP JUMPDEST PUSH1 0x40 MLOAD PUSH2 0x494 SWAP8 SWAP7 SWAP6 SWAP5 SWAP4 SWAP3 SWAP2 SWAP1 PUSH2 0x4B17 JUMP JUMPDEST PUSH1 0x40 MLOAD DUP1 SWAP2 SUB SWAP1 RETURN JUMPDEST PUSH2 0x4B7 PUSH1 0x4 DUP1 CALLDATASIZE SUB DUP2 ADD SWAP1 PUSH2 0x4B2 SWAP2 SWAP1 PUSH2 0x4BB0 JUMP JUMPDEST PUSH2 0x107B JUMP JUMPDEST STOP JUMPDEST PUSH2 0x4D3 PUSH1 0x4 DUP1 CALLDATASIZE SUB DUP2 ADD SWAP1 PUSH2 0x4CE SWAP2 SWAP1 PUSH2 0x4C3B JUMP JUMPDEST PUSH2 0x1127 JUMP JUMPDEST PUSH1 0x40 MLOAD PUSH2 0x4E0 SWAP2 SWAP1 PUSH2 0x4243 JUMP JUMPDEST PUSH1 0x40 MLOAD DUP1 SWAP2 SUB SWAP1 RETURN JUMPDEST PUSH2 0x503 PUSH1 0x4 DUP1 CALLDATASIZE SUB DUP2 ADD SWAP1 PUSH2 0x4FE SWAP2 SWAP1 PUSH2 0x45AA JUMP JUMPDEST PUSH2 0x13F0 JUMP JUMPDEST PUSH1 0x40 MLOAD PUSH2 0x512 SWAP4 SWAP3 SWAP2 SWAP1 PUSH2 0x45D7 JUMP JUMPDEST PUSH1 0x40 MLOAD DUP1 SWAP2 SUB SWAP1 RETURN JUMPDEST PUSH2 0x523 PUSH2 0x15E2 JUMP JUMPDEST PUSH1 0x40 MLOAD PUSH2 0x530 SWAP2 SWAP1 PUSH2 0x4243 JUMP JUMPDEST PUSH1 0x40 MLOAD DUP1 SWAP2 SUB SWAP1 RETURN JUMPDEST PUSH2 0x541 PUSH2 0x15E8 JUMP JUMPDEST STOP JUMPDEST PUSH2 0x54B PUSH2 0x1600 JUMP JUMPDEST PUSH1 0x40 MLOAD PUSH2 0x558 SWAP2 SWAP1 PUSH2 0x4243 JUMP JUMPDEST PUSH1 0x40 MLOAD DUP1 SWAP2 SUB SWAP1 RETURN JUMPDEST PUSH2 0x569 PUSH2 0x1606 JUMP JUMPDEST PUSH1 0x40 MLOAD PUSH2 0x576 SWAP2 SWAP1 PUSH2 0x458F JUMP JUMPDEST PUSH1 0x40 MLOAD DUP1 SWAP2 SUB SWAP1 RETURN JUMPDEST PUSH2 0x599 PUSH1 0x4 DUP1 CALLDATASIZE SUB DUP2 ADD SWAP1 PUSH2 0x594 SWAP2 SWAP1 PUSH2 0x48AD JUMP JUMPDEST PUSH2 0x162A JUMP JUMPDEST PUSH1 0x40 MLOAD PUSH2 0x5A6 SWAP2 SWAP1 PUSH2 0x42FE JUMP JUMPDEST PUSH1 0x40 MLOAD DUP1 SWAP2 SUB SWAP1 RETURN JUMPDEST PUSH2 0x5C9 PUSH1 0x4 DUP1 CALLDATASIZE SUB DUP2 ADD SWAP1 PUSH2 0x5C4 SWAP2 SWAP1 PUSH2 0x4C8E JUMP JUMPDEST PUSH2 0x1695 JUMP JUMPDEST STOP JUMPDEST PUSH2 0x5D3 PUSH2 0x1B05 JUMP JUMPDEST PUSH1 0x40 MLOAD PUSH2 0x5E0 SWAP2 SWAP1 PUSH2 0x458F JUMP JUMPDEST PUSH1 0x40 MLOAD DUP1 SWAP2 SUB SWAP1 RETURN JUMPDEST PUSH2 0x603 PUSH1 0x4 DUP1 CALLDATASIZE SUB DUP2 ADD SWAP1 PUSH2 0x5FE SWAP2 SWAP1 PUSH2 0x4E04 JUMP JUMPDEST PUSH2 0x1B0C JUMP JUMPDEST STOP JUMPDEST PUSH2 0x61F PUSH1 0x4 DUP1 CALLDATASIZE SUB DUP2 ADD SWAP1 PUSH2 0x61A SWAP2 SWAP1 PUSH2 0x44A8 JUMP JUMPDEST PUSH2 0x1B22 JUMP JUMPDEST STOP JUMPDEST PUSH2 0x63B PUSH1 0x4 DUP1 CALLDATASIZE SUB DUP2 ADD SWAP1 PUSH2 0x636 SWAP2 SWAP1 PUSH2 0x44A8 JUMP JUMPDEST PUSH2 0x1CD8 JUMP JUMPDEST PUSH1 0x40 MLOAD PUSH2 0x648 SWAP2 SWAP1 PUSH2 0x4243 JUMP JUMPDEST PUSH1 0x40 MLOAD DUP1 SWAP2 SUB SWAP1 RETURN JUMPDEST PUSH2 0x66B PUSH1 0x4 DUP1 CALLDATASIZE SUB DUP2 ADD SWAP1 PUSH2 0x666 SWAP2 SWAP1 PUSH2 0x44A8 JUMP JUMPDEST PUSH2 0x1CF5 JUMP JUMPDEST PUSH1 0x40 MLOAD PUSH2 0x67C SWAP6 SWAP5 SWAP4 SWAP3 SWAP2 SWAP1 PUSH2 0x4E60 JUMP JUMPDEST PUSH1 0x40 MLOAD DUP1 SWAP2 SUB SWAP1 RETURN JUMPDEST PUSH2 0x69F PUSH1 0x4 DUP1 CALLDATASIZE SUB DUP2 ADD SWAP1 PUSH2 0x69A SWAP2 SWAP1 PUSH2 0x48AD JUMP JUMPDEST PUSH2 0x1D78 JUMP JUMPDEST STOP JUMPDEST PUSH2 0x6BB PUSH1 0x4 DUP1 CALLDATASIZE SUB DUP2 ADD SWAP1 PUSH2 0x6B6 SWAP2 SWAP1 PUSH2 0x4EB3 JUMP JUMPDEST PUSH2 0x1D9A JUMP JUMPDEST STOP JUMPDEST PUSH2 0x6D7 PUSH1 0x4 DUP1 CALLDATASIZE SUB DUP2 ADD SWAP1 PUSH2 0x6D2 SWAP2 SWAP1 PUSH2 0x44A8 JUMP JUMPDEST PUSH2 0x1EC3 JUMP JUMPDEST PUSH1 0x40 MLOAD PUSH2 0x6E4 SWAP2 SWAP1 PUSH2 0x500B JUMP JUMPDEST PUSH1 0x40 MLOAD DUP1 SWAP2 SUB SWAP1 RETURN JUMPDEST PUSH2 0x707 PUSH1 0x4 DUP1 CALLDATASIZE SUB DUP2 ADD SWAP1 PUSH2 0x702 SWAP2 SWAP1 PUSH2 0x44A8 JUMP JUMPDEST PUSH2 0x2317 JUMP JUMPDEST STOP JUMPDEST PUSH2 0x723 PUSH1 0x4 DUP1 CALLDATASIZE SUB DUP2 ADD SWAP1 PUSH2 0x71E SWAP2 SWAP1 PUSH2 0x502D JUMP JUMPDEST PUSH2 0x24D1 JUMP JUMPDEST PUSH1 0x40 MLOAD PUSH2 0x730 SWAP2 SWAP1 PUSH2 0x42FE JUMP JUMPDEST PUSH1 0x40 MLOAD DUP1 SWAP2 SUB SWAP1 RETURN JUMPDEST PUSH2 0x753 PUSH1 0x4 DUP1 CALLDATASIZE SUB DUP2 ADD SWAP1 PUSH2 0x74E SWAP2 SWAP1 PUSH2 0x506D JUMP JUMPDEST PUSH2 0x2565 JUMP JUMPDEST STOP JUMPDEST PUSH2 0x76F PUSH1 0x4 DUP1 CALLDATASIZE SUB DUP2 ADD SWAP1 PUSH2 0x76A SWAP2 SWAP1 PUSH2 0x4C3B JUMP JUMPDEST PUSH2 0x260D JUMP JUMPDEST STOP JUMPDEST PUSH2 0x78B PUSH1 0x4 DUP1 CALLDATASIZE SUB DUP2 ADD SWAP1 PUSH2 0x786 SWAP2 SWAP1 PUSH2 0x5104 JUMP JUMPDEST PUSH2 0x26B9 JUMP JUMPDEST STOP JUMPDEST PUSH2 0x7A7 PUSH1 0x4 DUP1 CALLDATASIZE SUB DUP2 ADD SWAP1 PUSH2 0x7A2 SWAP2 SWAP1 PUSH2 0x506D JUMP JUMPDEST PUSH2 0x28C3 JUMP JUMPDEST STOP JUMPDEST PUSH1 0x0 DUP1 PUSH1 0x0 DUP4 DUP2 MSTORE PUSH1 0x20 ADD SWAP1 DUP2 MSTORE PUSH1 0x20 ADD PUSH1 0x0 KECCAK256 PUSH1 0x0 DUP5 PUSH20 0xFFFFFFFFFFFFFFFFFFFFFFFFFFFFFFFFFFFFFFFF AND PUSH20 0xFFFFFFFFFFFFFFFFFFFFFFFFFFFFFFFFFFFFFFFF AND DUP2 MSTORE PUSH1 0x20 ADD SWAP1 DUP2 MSTORE PUSH1 0x20 ADD PUSH1 0x0 KECCAK256 SLOAD SWAP1 POP SWAP3 SWAP2 POP POP JUMP JUMPDEST PUSH1 0x0 PUSH2 0x80E DUP3 PUSH2 0x2A17 JUMP JUMPDEST SWAP1 POP SWAP2 SWAP1 POP JUMP JUMPDEST PUSH1 0x0 DUP1 SHL PUSH2 0x822 DUP2 PUSH2 0x2A91 JUMP JUMPDEST PUSH2 0x82B DUP3 PUSH2 0x2AA5 JUMP JUMPDEST POP POP JUMP JUMPDEST PUSH1 0x60 PUSH1 0x2 DUP1 SLOAD PUSH2 0x83E SWAP1 PUSH2 0x51BE JUMP JUMPDEST DUP1 PUSH1 0x1F ADD PUSH1 0x20 DUP1 SWAP2 DIV MUL PUSH1 0x20 ADD PUSH1 0x40 MLOAD SWAP1 DUP2 ADD PUSH1 0x40 MSTORE DUP1 SWAP3 SWAP2 SWAP1 DUP2 DUP2 MSTORE PUSH1 0x20 ADD DUP3 DUP1 SLOAD PUSH2 0x86A SWAP1 PUSH2 0x51BE JUMP JUMPDEST DUP1 ISZERO PUSH2 0x8B7 JUMPI DUP1 PUSH1 0x1F LT PUSH2 0x88C JUMPI PUSH2 0x100 DUP1 DUP4 SLOAD DIV MUL DUP4 MSTORE SWAP2 PUSH1 0x20 ADD SWAP2 PUSH2 0x8B7 JUMP JUMPDEST DUP3 ADD SWAP2 SWAP1 PUSH1 0x0 MSTORE PUSH1 0x20 PUSH1 0x0 KECCAK256 SWAP1 JUMPDEST DUP2 SLOAD DUP2 MSTORE SWAP1 PUSH1 0x1 ADD SWAP1 PUSH1 0x20 ADD DUP1 DUP4 GT PUSH2 0x89A JUMPI DUP3 SWAP1 SUB PUSH1 0x1F AND DUP3 ADD SWAP2 JUMPDEST POP POP POP POP POP SWAP1 POP SWAP2 SWAP1 POP JUMP JUMPDEST PUSH32 0x14823911F2DA1B49F045A0929A60B8C1F2A7FC8C06C7284CA3E8AB4E193A08C8 DUP2 JUMP JUMPDEST PUSH1 0x0 PUSH1 0x6 SLOAD SWAP1 POP SWAP1 JUMP JUMPDEST PUSH1 0x8 PUSH1 0x20 MSTORE DUP1 PUSH1 0x0 MSTORE PUSH1 0x40 PUSH1 0x0 KECCAK256 PUSH1 0x0 SWAP2 POP SWAP1 POP DUP1 PUSH1 0x0 ADD DUP1 SLOAD PUSH2 0x914 SWAP1 PUSH2 0x51BE JUMP JUMPDEST DUP1 PUSH1 0x1F ADD PUSH1 0x20 DUP1 SWAP2 DIV MUL PUSH1 0x20 ADD PUSH1 0x40 MLOAD SWAP1 DUP2 ADD PUSH1 0x40 MSTORE DUP1 SWAP3 SWAP2 SWAP1 DUP2 DUP2 MSTORE PUSH1 0x20 ADD DUP3 DUP1 SLOAD PUSH2 0x940 SWAP1 PUSH2 0x51BE JUMP JUMPDEST DUP1 ISZERO PUSH2 0x98D JUMPI DUP1 PUSH1 0x1F LT PUSH2 0x962 JUMPI PUSH2 0x100 DUP1 DUP4 SLOAD DIV MUL DUP4 MSTORE SWAP2 PUSH1 0x20 ADD SWAP2 PUSH2 0x98D JUMP JUMPDEST DUP3 ADD SWAP2 SWAP1 PUSH1 0x0 MSTORE PUSH1 0x20 PUSH1 0x0 KECCAK256 SWAP1 JUMPDEST DUP2 SLOAD DUP2 MSTORE SWAP1 PUSH1 0x1 ADD SWAP1 PUSH1 0x20 ADD DUP1 DUP4 GT PUSH2 0x970 JUMPI DUP3 SWAP1 SUB PUSH1 0x1F AND DUP3 ADD SWAP2 JUMPDEST POP POP POP POP POP SWAP1 DUP1 PUSH1 0x1 ADD DUP1 SLOAD PUSH2 0x9A2 SWAP1 PUSH2 0x51BE JUMP JUMPDEST DUP1 PUSH1 0x1F ADD PUSH1 0x20 DUP1 SWAP2 DIV MUL PUSH1 0x20 ADD PUSH1 0x40 MLOAD SWAP1 DUP2 ADD PUSH1 0x40 MSTORE DUP1 SWAP3 SWAP2 SWAP1 DUP2 DUP2 MSTORE PUSH1 0x20 ADD DUP3 DUP1 SLOAD PUSH2 0x9CE SWAP1 PUSH2 0x51BE JUMP JUMPDEST DUP1 ISZERO PUSH2 0xA1B JUMPI DUP1 PUSH1 0x1F LT PUSH2 0x9F0 JUMPI PUSH2 0x100 DUP1 DUP4 SLOAD DIV MUL DUP4 MSTORE SWAP2 PUSH1 0x20 ADD SWAP2 PUSH2 0xA1B JUMP JUMPDEST DUP3 ADD SWAP2 SWAP1 PUSH1 0x0 MSTORE PUSH1 0x20 PUSH1 0x0 KECCAK256 SWAP1 JUMPDEST DUP2 SLOAD DUP2 MSTORE SWAP1 PUSH1 0x1 ADD SWAP1 PUSH1 0x20 ADD DUP1 DUP4 GT PUSH2 0x9FE JUMPI DUP3 SWAP1 SUB PUSH1 0x1F AND DUP3 ADD SWAP2 JUMPDEST POP POP POP POP POP SWAP1 DUP1 PUSH1 0x2 ADD PUSH1 0x0 SWAP1 SLOAD SWAP1 PUSH2 0x100 EXP SWAP1 DIV PUSH1 0xFF AND SWAP1 POP DUP4 JUMP JUMPDEST PUSH1 0x0 PUSH1 0x3 PUSH1 0x0 DUP4 DUP2 MSTORE PUSH1 0x20 ADD SWAP1 DUP2 MSTORE PUSH1 0x20 ADD PUSH1 0x0 KECCAK256 PUSH1 0x1 ADD SLOAD SWAP1 POP SWAP2 SWAP1 POP JUMP JUMPDEST PUSH1 0x0 PUSH2 0xA62 PUSH2 0x2AB8 JUMP JUMPDEST SWAP1 POP DUP1 PUSH20 0xFFFFFFFFFFFFFFFFFFFFFFFFFFFFFFFFFFFFFFFF AND DUP7 PUSH20 0xFFFFFFFFFFFFFFFFFFFFFFFFFFFFFFFFFFFFFFFF AND EQ ISZERO DUP1 ISZERO PUSH2 0xAA7 JUMPI POP PUSH2 0xAA5 DUP7 DUP3 PUSH2 0x24D1 JUMP JUMPDEST ISZERO JUMPDEST ISZERO PUSH2 0xAEB JUMPI DUP1 DUP7 PUSH1 0x40 MLOAD PUSH32 0xE237D92200000000000000000000000000000000000000000000000000000000 DUP2 MSTORE PUSH1 0x4 ADD PUSH2 0xAE2 SWAP3 SWAP2 SWAP1 PUSH2 0x51EF JUMP JUMPDEST PUSH1 0x40 MLOAD DUP1 SWAP2 SUB SWAP1 REVERT JUMPDEST PUSH2 0xAF8 DUP7 DUP7 DUP7 DUP7 DUP7 PUSH2 0x2AC0 JUMP JUMPDEST POP POP POP POP POP POP JUMP JUMPDEST PUSH2 0xB09 DUP3 PUSH2 0xA38 JUMP JUMPDEST PUSH2 0xB12 DUP2 PUSH2 0x2A91 JUMP JUMPDEST PUSH2 0xB1C DUP4 DUP4 PUSH2 0x2BB8 JUMP JUMPDEST POP POP POP POP JUMP JUMPDEST PUSH2 0xB2A PUSH2 0x2AB8 JUMP JUMPDEST PUSH20 0xFFFFFFFFFFFFFFFFFFFFFFFFFFFFFFFFFFFFFFFF AND DUP2 PUSH20 0xFFFFFFFFFFFFFFFFFFFFFFFFFFFFFFFFFFFFFFFF AND EQ PUSH2 0xB8E JUMPI PUSH1 0x40 MLOAD PUSH32 0x6697B23200000000000000000000000000000000000000000000000000000000 DUP2 MSTORE PUSH1 0x4 ADD PUSH1 0x40 MLOAD DUP1 SWAP2 SUB SWAP1 REVERT JUMPDEST PUSH2 0xB98 DUP3 DUP3 PUSH2 0x2CAA JUMP JUMPDEST POP POP POP JUMP JUMPDEST PUSH1 0x0 DUP1 SHL PUSH2 0xBAA DUP2 PUSH2 0x2A91 JUMP JUMPDEST PUSH2 0xBB2 PUSH2 0x2D9D JUMP JUMPDEST POP JUMP JUMPDEST PUSH1 0x60 DUP2 MLOAD DUP4 MLOAD EQ PUSH2 0xC01 JUMPI DUP2 MLOAD DUP4 MLOAD PUSH1 0x40 MLOAD PUSH32 0x5B05999100000000000000000000000000000000000000000000000000000000 DUP2 MSTORE PUSH1 0x4 ADD PUSH2 0xBF8 SWAP3 SWAP2 SWAP1 PUSH2 0x5218 JUMP JUMPDEST PUSH1 0x40 MLOAD DUP1 SWAP2 SUB SWAP1 REVERT JUMPDEST PUSH1 0x0 DUP4 MLOAD PUSH8 0xFFFFFFFFFFFFFFFF DUP2 GT ISZERO PUSH2 0xC1E JUMPI PUSH2 0xC1D PUSH2 0x4334 JUMP JUMPDEST JUMPDEST PUSH1 0x40 MLOAD SWAP1 DUP1 DUP3 MSTORE DUP1 PUSH1 0x20 MUL PUSH1 0x20 ADD DUP3 ADD PUSH1 0x40 MSTORE DUP1 ISZERO PUSH2 0xC4C JUMPI DUP2 PUSH1 0x20 ADD PUSH1 0x20 DUP3 MUL DUP1 CALLDATASIZE DUP4 CALLDATACOPY DUP1 DUP3 ADD SWAP2 POP POP SWAP1 POP JUMPDEST POP SWAP1 POP PUSH1 0x0 JUMPDEST DUP5 MLOAD DUP2 LT ISZERO PUSH2 0xCB3 JUMPI PUSH2 0xC89 PUSH2 0xC71 DUP3 DUP8 PUSH2 0x2E00 SWAP1 SWAP2 SWAP1 PUSH4 0xFFFFFFFF AND JUMP JUMPDEST PUSH2 0xC84 DUP4 DUP8 PUSH2 0x2E14 SWAP1 SWAP2 SWAP1 PUSH4 0xFFFFFFFF AND JUMP JUMPDEST PUSH2 0x7A9 JUMP JUMPDEST DUP3 DUP3 DUP2 MLOAD DUP2 LT PUSH2 0xC9C JUMPI PUSH2 0xC9B PUSH2 0x5241 JUMP JUMPDEST JUMPDEST PUSH1 0x20 MUL PUSH1 0x20 ADD ADD DUP2 DUP2 MSTORE POP POP DUP1 PUSH1 0x1 ADD SWAP1 POP PUSH2 0xC52 JUMP JUMPDEST POP DUP1 SWAP2 POP POP SWAP3 SWAP2 POP POP JUMP JUMPDEST PUSH1 0x0 DUP1 PUSH2 0xCCA DUP4 PUSH2 0x1CD8 JUMP JUMPDEST GT SWAP1 POP SWAP2 SWAP1 POP JUMP JUMPDEST PUSH1 0x0 PUSH1 0x4 PUSH1 0x0 SWAP1 SLOAD SWAP1 PUSH2 0x100 EXP SWAP1 DIV PUSH1 0xFF AND SWAP1 POP SWAP1 JUMP JUMPDEST PUSH1 0x7 PUSH1 0x20 MSTORE DUP1 PUSH1 0x0 MSTORE PUSH1 0x40 PUSH1 0x0 KECCAK256 PUSH1 0x0 SWAP2 POP SWAP1 POP DUP1 PUSH1 0x0 ADD DUP1 SLOAD PUSH2 0xD0C SWAP1 PUSH2 0x51BE JUMP JUMPDEST DUP1 PUSH1 0x1F ADD PUSH1 0x20 DUP1 SWAP2 DIV MUL PUSH1 0x20 ADD PUSH1 0x40 MLOAD SWAP1 DUP2 ADD PUSH1 0x40 MSTORE DUP1 SWAP3 SWAP2 SWAP1 DUP2 DUP2 MSTORE PUSH1 0x20 ADD DUP3 DUP1 SLOAD PUSH2 0xD38 SWAP1 PUSH2 0x51BE JUMP JUMPDEST DUP1 ISZERO PUSH2 0xD85 JUMPI DUP1 PUSH1 0x1F LT PUSH2 0xD5A JUMPI PUSH2 0x100 DUP1 DUP4 SLOAD DIV MUL DUP4 MSTORE SWAP2 PUSH1 0x20 ADD SWAP2 PUSH2 0xD85 JUMP JUMPDEST DUP3 ADD SWAP2 SWAP1 PUSH1 0x0 MSTORE PUSH1 0x20 PUSH1 0x0 KECCAK256 SWAP1 JUMPDEST DUP2 SLOAD DUP2 MSTORE SWAP1 PUSH1 0x1 ADD SWAP1 PUSH1 0x20 ADD DUP1 DUP4 GT PUSH2 0xD68 JUMPI DUP3 SWAP1 SUB PUSH1 0x1F AND DUP3 ADD SWAP2 JUMPDEST POP POP POP POP POP SWAP1 DUP1 PUSH1 0x1 ADD DUP1 SLOAD PUSH2 0xD9A SWAP1 PUSH2 0x51BE JUMP JUMPDEST DUP1 PUSH1 0x1F ADD PUSH1 0x20 DUP1 SWAP2 DIV MUL PUSH1 0x20 ADD PUSH1 0x40 MLOAD SWAP1 DUP2 ADD PUSH1 0x40 MSTORE DUP1 SWAP3 SWAP2 SWAP1 DUP2 DUP2 MSTORE PUSH1 0x20 ADD DUP3 DUP1 SLOAD PUSH2 0xDC6 SWAP1 PUSH2 0x51BE JUMP JUMPDEST DUP1 ISZERO PUSH2 0xE13 JUMPI DUP1 PUSH1 0x1F LT PUSH2 0xDE8 JUMPI PUSH2 0x100 DUP1 DUP4 SLOAD DIV MUL DUP4 MSTORE SWAP2 PUSH1 0x20 ADD SWAP2 PUSH2 0xE13 JUMP JUMPDEST DUP3 ADD SWAP2 SWAP1 PUSH1 0x0 MSTORE PUSH1 0x20 PUSH1 0x0 KECCAK256 SWAP1 JUMPDEST DUP2 SLOAD DUP2 MSTORE SWAP1 PUSH1 0x1 ADD SWAP1 PUSH1 0x20 ADD DUP1 DUP4 GT PUSH2 0xDF6 JUMPI DUP3 SWAP1 SUB PUSH1 0x1F AND DUP3 ADD SWAP2 JUMPDEST POP POP POP POP POP SWAP1 DUP1 PUSH1 0x2 ADD DUP1 SLOAD PUSH2 0xE28 SWAP1 PUSH2 0x51BE JUMP JUMPDEST DUP1 PUSH1 0x1F ADD PUSH1 0x20 DUP1 SWAP2 DIV MUL PUSH1 0x20 ADD PUSH1 0x40 MLOAD SWAP1 DUP2 ADD PUSH1 0x40 MSTORE DUP1 SWAP3 SWAP2 SWAP1 DUP2 DUP2 MSTORE PUSH1 0x20 ADD DUP3 DUP1 SLOAD PUSH2 0xE54 SWAP1 PUSH2 0x51BE JUMP JUMPDEST DUP1 ISZERO PUSH2 0xEA1 JUMPI DUP1 PUSH1 0x1F LT PUSH2 0xE76 JUMPI PUSH2 0x100 DUP1 DUP4 SLOAD DIV MUL DUP4 MSTORE SWAP2 PUSH1 0x20 ADD SWAP2 PUSH2 0xEA1 JUMP JUMPDEST DUP3 ADD SWAP2 SWAP1 PUSH1 0x0 MSTORE PUSH1 0x20 PUSH1 0x0 KECCAK256 SWAP1 JUMPDEST DUP2 SLOAD DUP2 MSTORE SWAP1 PUSH1 0x1 ADD SWAP1 PUSH1 0x20 ADD DUP1 DUP4 GT PUSH2 0xE84 JUMPI DUP3 SWAP1 SUB PUSH1 0x1F AND DUP3 ADD SWAP2 JUMPDEST POP POP POP POP POP SWAP1 DUP1 PUSH1 0x3 ADD DUP1 SLOAD PUSH2 0xEB6 SWAP1 PUSH2 0x51BE JUMP JUMPDEST DUP1 PUSH1 0x1F ADD PUSH1 0x20 DUP1 SWAP2 DIV MUL PUSH1 0x20 ADD PUSH1 0x40 MLOAD SWAP1 DUP2 ADD PUSH1 0x40 MSTORE DUP1 SWAP3 SWAP2 SWAP1 DUP2 DUP2 MSTORE PUSH1 0x20 ADD DUP3 DUP1 SLOAD PUSH2 0xEE2 SWAP1 PUSH2 0x51BE JUMP JUMPDEST DUP1 ISZERO PUSH2 0xF2F JUMPI DUP1 PUSH1 0x1F LT PUSH2 0xF04 JUMPI PUSH2 0x100 DUP1 DUP4 SLOAD DIV MUL DUP4 MSTORE SWAP2 PUSH1 0x20 ADD SWAP2 PUSH2 0xF2F JUMP JUMPDEST DUP3 ADD SWAP2 SWAP1 PUSH1 0x0 MSTORE PUSH1 0x20 PUSH1 0x0 KECCAK256 SWAP1 JUMPDEST DUP2 SLOAD DUP2 MSTORE SWAP1 PUSH1 0x1 ADD SWAP1 PUSH1 0x20 ADD DUP1 DUP4 GT PUSH2 0xF12 JUMPI DUP3 SWAP1 SUB PUSH1 0x1F AND DUP3 ADD SWAP2 JUMPDEST POP POP POP POP POP SWAP1 DUP1 PUSH1 0x4 ADD DUP1 SLOAD PUSH2 0xF44 SWAP1 PUSH2 0x51BE JUMP JUMPDEST DUP1 PUSH1 0x1F ADD PUSH1 0x20 DUP1 SWAP2 DIV MUL PUSH1 0x20 ADD PUSH1 0x40 MLOAD SWAP1 DUP2 ADD PUSH1 0x40 MSTORE DUP1 SWAP3 SWAP2 SWAP1 DUP2 DUP2 MSTORE PUSH1 0x20 ADD DUP3 DUP1 SLOAD PUSH2 0xF70 SWAP1 PUSH2 0x51BE JUMP JUMPDEST DUP1 ISZERO PUSH2 0xFBD JUMPI DUP1 PUSH1 0x1F LT PUSH2 0xF92 JUMPI PUSH2 0x100 DUP1 DUP4 SLOAD DIV MUL DUP4 MSTORE SWAP2 PUSH1 0x20 ADD SWAP2 PUSH2 0xFBD JUMP JUMPDEST DUP3 ADD SWAP2 SWAP1 PUSH1 0x0 MSTORE PUSH1 0x20 PUSH1 0x0 KECCAK256 SWAP1 JUMPDEST DUP2 SLOAD DUP2 MSTORE SWAP1 PUSH1 0x1 ADD SWAP1 PUSH1 0x20 ADD DUP1 DUP4 GT PUSH2 0xFA0 JUMPI DUP3 SWAP1 SUB PUSH1 0x1F AND DUP3 ADD SWAP2 JUMPDEST POP POP POP POP POP SWAP1 DUP1 PUSH1 0x5 ADD DUP1 SLOAD PUSH2 0xFD2 SWAP1 PUSH2 0x51BE JUMP JUMPDEST DUP1 PUSH1 0x1F ADD PUSH1 0x20 DUP1 SWAP2 DIV MUL PUSH1 0x20 ADD PUSH1 0x40 MLOAD SWAP1 DUP2 ADD PUSH1 0x40 MSTORE DUP1 SWAP3 SWAP2 SWAP1 DUP2 DUP2 MSTORE PUSH1 0x20 ADD DUP3 DUP1 SLOAD PUSH2 0xFFE SWAP1 PUSH2 0x51BE JUMP JUMPDEST DUP1 ISZERO PUSH2 0x104B JUMPI DUP1 PUSH1 0x1F LT PUSH2 0x1020 JUMPI PUSH2 0x100 DUP1 DUP4 SLOAD DIV MUL DUP4 MSTORE SWAP2 PUSH1 0x20 ADD SWAP2 PUSH2 0x104B JUMP JUMPDEST DUP3 ADD SWAP2 SWAP1 PUSH1 0x0 MSTORE PUSH1 0x20 PUSH1 0x0 KECCAK256 SWAP1 JUMPDEST DUP2 SLOAD DUP2 MSTORE SWAP1 PUSH1 0x1 ADD SWAP1 PUSH1 0x20 ADD DUP1 DUP4 GT PUSH2 0x102E JUMPI DUP3 SWAP1 SUB PUSH1 0x1F AND DUP3 ADD SWAP2 JUMPDEST POP POP POP POP POP SWAP1 DUP1 PUSH1 0x6 ADD PUSH1 0x0 SWAP1 SLOAD SWAP1 PUSH2 0x100 EXP SWAP1 DIV PUSH20 0xFFFFFFFFFFFFFFFFFFFFFFFFFFFFFFFFFFFFFFFF AND SWAP1 POP DUP8 JUMP JUMPDEST PUSH2 0x1083 PUSH2 0x2AB8 JUMP JUMPDEST PUSH20 0xFFFFFFFFFFFFFFFFFFFFFFFFFFFFFFFFFFFFFFFF AND DUP4 PUSH20 0xFFFFFFFFFFFFFFFFFFFFFFFFFFFFFFFFFFFFFFFF AND EQ ISZERO DUP1 ISZERO PUSH2 0x10CC JUMPI POP PUSH2 0x10CA DUP4 PUSH2 0x10C5 PUSH2 0x2AB8 JUMP JUMPDEST PUSH2 0x24D1 JUMP JUMPDEST ISZERO JUMPDEST ISZERO PUSH2 0x1117 JUMPI PUSH2 0x10D9 PUSH2 0x2AB8 JUMP JUMPDEST DUP4 PUSH1 0x40 MLOAD PUSH32 0xE237D92200000000000000000000000000000000000000000000000000000000 DUP2 MSTORE PUSH1 0x4 ADD PUSH2 0x110E SWAP3 SWAP2 SWAP1 PUSH2 0x51EF JUMP JUMPDEST PUSH1 0x40 MLOAD DUP1 SWAP2 SUB SWAP1 REVERT JUMPDEST PUSH2 0x1122 DUP4 DUP4 DUP4 PUSH2 0x2E28 JUMP JUMPDEST POP POP POP JUMP JUMPDEST PUSH1 0x0 PUSH32 0x14823911F2DA1B49F045A0929A60B8C1F2A7FC8C06C7284CA3E8AB4E193A08C8 PUSH2 0x1153 DUP2 PUSH2 0x2A91 JUMP JUMPDEST PUSH1 0x8 PUSH1 0x0 DUP7 PUSH20 0xFFFFFFFFFFFFFFFFFFFFFFFFFFFFFFFFFFFFFFFF AND PUSH20 0xFFFFFFFFFFFFFFFFFFFFFFFFFFFFFFFFFFFFFFFF AND DUP2 MSTORE PUSH1 0x20 ADD SWAP1 DUP2 MSTORE PUSH1 0x20 ADD PUSH1 0x0 KECCAK256 PUSH1 0x2 ADD PUSH1 0x0 SWAP1 SLOAD SWAP1 PUSH2 0x100 EXP SWAP1 DIV PUSH1 0xFF AND DUP1 ISZERO PUSH2 0x11D1 JUMPI POP PUSH1 0x0 PUSH1 0x7 PUSH1 0x0 DUP7 DUP2 MSTORE PUSH1 0x20 ADD SWAP1 DUP2 MSTORE PUSH1 0x20 ADD PUSH1 0x0 KECCAK256 PUSH1 0x0 ADD DUP1 SLOAD PUSH2 0x11CD SWAP1 PUSH2 0x51BE JUMP JUMPDEST SWAP1 POP GT JUMPDEST PUSH2 0x1210 JUMPI PUSH1 0x40 MLOAD PUSH32 0x8C379A000000000000000000000000000000000000000000000000000000000 DUP2 MSTORE PUSH1 0x4 ADD PUSH2 0x1207 SWAP1 PUSH2 0x52BC JUMP JUMPDEST PUSH1 0x40 MLOAD DUP1 SWAP2 SUB SWAP1 REVERT JUMPDEST DUP3 PUSH2 0x121B DUP7 DUP7 PUSH2 0x7A9 JUMP JUMPDEST LT ISZERO PUSH2 0x125C JUMPI PUSH1 0x40 MLOAD PUSH32 0x8C379A000000000000000000000000000000000000000000000000000000000 DUP2 MSTORE PUSH1 0x4 ADD PUSH2 0x1253 SWAP1 PUSH2 0x5328 JUMP JUMPDEST PUSH1 0x40 MLOAD DUP1 SWAP2 SUB SWAP1 REVERT JUMPDEST PUSH1 0x0 PUSH1 0xA PUSH1 0x0 DUP2 SLOAD DUP1 SWAP3 SWAP2 SWAP1 PUSH2 0x1271 SWAP1 PUSH2 0x5377 JUMP JUMPDEST SWAP2 SWAP1 POP SSTORE SWAP1 POP PUSH1 0x40 MLOAD DUP1 PUSH1 0xA0 ADD PUSH1 0x40 MSTORE DUP1 CALLER PUSH20 0xFFFFFFFFFFFFFFFFFFFFFFFFFFFFFFFFFFFFFFFF AND DUP2 MSTORE PUSH1 0x20 ADD DUP8 PUSH20 0xFFFFFFFFFFFFFFFFFFFFFFFFFFFFFFFFFFFFFFFF AND DUP2 MSTORE PUSH1 0x20 ADD DUP7 DUP2 MSTORE PUSH1 0x20 ADD DUP6 DUP2 MSTORE PUSH1 0x20 ADD PUSH1 0x0 PUSH1 0xFF AND DUP2 MSTORE POP PUSH1 0x9 PUSH1 0x0 DUP4 DUP2 MSTORE PUSH1 0x20 ADD SWAP1 DUP2 MSTORE PUSH1 0x20 ADD PUSH1 0x0 KECCAK256 PUSH1 0x0 DUP3 ADD MLOAD DUP2 PUSH1 0x0 ADD PUSH1 0x0 PUSH2 0x100 EXP DUP2 SLOAD DUP2 PUSH20 0xFFFFFFFFFFFFFFFFFFFFFFFFFFFFFFFFFFFFFFFF MUL NOT AND SWAP1 DUP4 PUSH20 0xFFFFFFFFFFFFFFFFFFFFFFFFFFFFFFFFFFFFFFFF AND MUL OR SWAP1 SSTORE POP PUSH1 0x20 DUP3 ADD MLOAD DUP2 PUSH1 0x1 ADD PUSH1 0x0 PUSH2 0x100 EXP DUP2 SLOAD DUP2 PUSH20 0xFFFFFFFFFFFFFFFFFFFFFFFFFFFFFFFFFFFFFFFF MUL NOT AND SWAP1 DUP4 PUSH20 0xFFFFFFFFFFFFFFFFFFFFFFFFFFFFFFFFFFFFFFFF AND MUL OR SWAP1 SSTORE POP PUSH1 0x40 DUP3 ADD MLOAD DUP2 PUSH1 0x2 ADD SSTORE PUSH1 0x60 DUP3 ADD MLOAD DUP2 PUSH1 0x3 ADD SSTORE PUSH1 0x80 DUP3 ADD MLOAD DUP2 PUSH1 0x4 ADD PUSH1 0x0 PUSH2 0x100 EXP DUP2 SLOAD DUP2 PUSH1 0xFF MUL NOT AND SWAP1 DUP4 PUSH1 0xFF AND MUL OR SWAP1 SSTORE POP SWAP1 POP POP PUSH32 0xDC60AA6FE6EA1316BF5ACC811851E823E68D2AA48E0B9E4ECC3650B38B9303F6 DUP2 CALLER DUP9 DUP9 PUSH1 0x40 MLOAD PUSH2 0x13DC SWAP5 SWAP4 SWAP3 SWAP2 SWAP1 PUSH2 0x53BF JUMP JUMPDEST PUSH1 0x40 MLOAD DUP1 SWAP2 SUB SWAP1 LOG1 DUP1 SWAP3 POP POP POP SWAP4 SWAP3 POP POP POP JUMP JUMPDEST PUSH1 0x60 DUP1 PUSH1 0x0 DUP1 PUSH1 0x8 PUSH1 0x0 DUP7 PUSH20 0xFFFFFFFFFFFFFFFFFFFFFFFFFFFFFFFFFFFFFFFF AND PUSH20 0xFFFFFFFFFFFFFFFFFFFFFFFFFFFFFFFFFFFFFFFF AND DUP2 MSTORE PUSH1 0x20 ADD SWAP1 DUP2 MSTORE PUSH1 0x20 ADD PUSH1 0x0 KECCAK256 PUSH1 0x40 MLOAD DUP1 PUSH1 0x60 ADD PUSH1 0x40 MSTORE SWAP1 DUP2 PUSH1 0x0 DUP3 ADD DUP1 SLOAD PUSH2 0x1450 SWAP1 PUSH2 0x51BE JUMP JUMPDEST DUP1 PUSH1 0x1F ADD PUSH1 0x20 DUP1 SWAP2 DIV MUL PUSH1 0x20 ADD PUSH1 0x40 MLOAD SWAP1 DUP2 ADD PUSH1 0x40 MSTORE DUP1 SWAP3 SWAP2 SWAP1 DUP2 DUP2 MSTORE PUSH1 0x20 ADD DUP3 DUP1 SLOAD PUSH2 0x147C SWAP1 PUSH2 0x51BE JUMP JUMPDEST DUP1 ISZERO PUSH2 0x14C9 JUMPI DUP1 PUSH1 0x1F LT PUSH2 0x149E JUMPI PUSH2 0x100 DUP1 DUP4 SLOAD DIV MUL DUP4 MSTORE SWAP2 PUSH1 0x20 ADD SWAP2 PUSH2 0x14C9 JUMP JUMPDEST DUP3 ADD SWAP2 SWAP1 PUSH1 0x0 MSTORE PUSH1 0x20 PUSH1 0x0 KECCAK256 SWAP1 JUMPDEST DUP2 SLOAD DUP2 MSTORE SWAP1 PUSH1 0x1 ADD SWAP1 PUSH1 0x20 ADD DUP1 DUP4 GT PUSH2 0x14AC JUMPI DUP3 SWAP1 SUB PUSH1 0x1F AND DUP3 ADD SWAP2 JUMPDEST POP POP POP POP POP DUP2 MSTORE PUSH1 0x20 ADD PUSH1 0x1 DUP3 ADD DUP1 SLOAD PUSH2 0x14E2 SWAP1 PUSH2 0x51BE JUMP JUMPDEST DUP1 PUSH1 0x1F ADD PUSH1 0x20 DUP1 SWAP2 DIV MUL PUSH1 0x20 ADD PUSH1 0x40 MLOAD SWAP1 DUP2 ADD PUSH1 0x40 MSTORE DUP1 SWAP3 SWAP2 SWAP1 DUP2 DUP2 MSTORE PUSH1 0x20 ADD DUP3 DUP1 SLOAD PUSH2 0x150E SWAP1 PUSH2 0x51BE JUMP JUMPDEST DUP1 ISZERO PUSH2 0x155B JUMPI DUP1 PUSH1 0x1F LT PUSH2 0x1530 JUMPI PUSH2 0x100 DUP1 DUP4 SLOAD DIV MUL DUP4 MSTORE SWAP2 PUSH1 0x20 ADD SWAP2 PUSH2 0x155B JUMP JUMPDEST DUP3 ADD SWAP2 SWAP1 PUSH1 0x0 MSTORE PUSH1 0x20 PUSH1 0x0 KECCAK256 SWAP1 JUMPDEST DUP2 SLOAD DUP2 MSTORE SWAP1 PUSH1 0x1 ADD SWAP1 PUSH1 0x20 ADD DUP1 DUP4 GT PUSH2 0x153E JUMPI DUP3 SWAP1 SUB PUSH1 0x1F AND DUP3 ADD SWAP2 JUMPDEST POP POP POP POP POP DUP2 MSTORE PUSH1 0x20 ADD PUSH1 0x2 DUP3 ADD PUSH1 0x0 SWAP1 SLOAD SWAP1 PUSH2 0x100 EXP SWAP1 DIV PUSH1 0xFF AND ISZERO ISZERO ISZERO ISZERO DUP2 MSTORE POP POP SWAP1 POP DUP1 PUSH1 0x40 ADD MLOAD PUSH2 0x15C5 JUMPI PUSH1 0x40 MLOAD PUSH32 0x8C379A000000000000000000000000000000000000000000000000000000000 DUP2 MSTORE PUSH1 0x4 ADD PUSH2 0x15BC SWAP1 PUSH2 0x5450 JUMP JUMPDEST PUSH1 0x40 MLOAD DUP1 SWAP2 SUB SWAP1 REVERT JUMPDEST DUP1 PUSH1 0x0 ADD MLOAD DUP2 PUSH1 0x20 ADD MLOAD DUP3 PUSH1 0x40 ADD MLOAD SWAP4 POP SWAP4 POP SWAP4 POP POP SWAP2 SWAP4 SWAP1 SWAP3 POP JUMP JUMPDEST PUSH1 0xB SLOAD DUP2 JUMP JUMPDEST PUSH1 0x0 DUP1 SHL PUSH2 0x15F5 DUP2 PUSH2 0x2A91 JUMP JUMPDEST PUSH2 0x15FD PUSH2 0x2EBC JUMP JUMPDEST POP JUMP JUMPDEST PUSH1 0xA SLOAD DUP2 JUMP JUMPDEST PUSH32 0x616DE93F8F9411AAE7290D381DD434CB23223A2F88EF9A88F3CDB0EB43FE9248 DUP2 JUMP JUMPDEST PUSH1 0x0 PUSH1 0x3 PUSH1 0x0 DUP5 DUP2 MSTORE PUSH1 0x20 ADD SWAP1 DUP2 MSTORE PUSH1 0x20 ADD PUSH1 0x0 KECCAK256 PUSH1 0x0 ADD PUSH1 0x0 DUP4 PUSH20 0xFFFFFFFFFFFFFFFFFFFFFFFFFFFFFFFFFFFFFFFF AND PUSH20 0xFFFFFFFFFFFFFFFFFFFFFFFFFFFFFFFFFFFFFFFF AND DUP2 MSTORE PUSH1 0x20 ADD SWAP1 DUP2 MSTORE PUSH1 0x20 ADD PUSH1 0x0 KECCAK256 PUSH1 0x0 SWAP1 SLOAD SWAP1 PUSH2 0x100 EXP SWAP1 DIV PUSH1 0xFF AND SWAP1 POP SWAP3 SWAP2 POP POP JUMP JUMPDEST PUSH32 0x616DE93F8F9411AAE7290D381DD434CB23223A2F88EF9A88F3CDB0EB43FE9248 PUSH2 0x16BF DUP2 PUSH2 0x2A91 JUMP JUMPDEST PUSH1 0x8 PUSH1 0x0 CALLER PUSH20 0xFFFFFFFFFFFFFFFFFFFFFFFFFFFFFFFFFFFFFFFF AND PUSH20 0xFFFFFFFFFFFFFFFFFFFFFFFFFFFFFFFFFFFFFFFF AND DUP2 MSTORE PUSH1 0x20 ADD SWAP1 DUP2 MSTORE PUSH1 0x20 ADD PUSH1 0x0 KECCAK256 PUSH1 0x2 ADD PUSH1 0x0 SWAP1 SLOAD SWAP1 PUSH2 0x100 EXP SWAP1 DIV PUSH1 0xFF AND PUSH2 0x174E JUMPI PUSH1 0x40 MLOAD PUSH32 0x8C379A000000000000000000000000000000000000000000000000000000000 DUP2 MSTORE PUSH1 0x4 ADD PUSH2 0x1745 SWAP1 PUSH2 0x54BC JUMP JUMPDEST PUSH1 0x40 MLOAD DUP1 SWAP2 SUB SWAP1 REVERT JUMPDEST PUSH1 0x0 JUMPDEST PUSH1 0xB SLOAD DUP2 LT ISZERO PUSH2 0x18BC JUMPI PUSH2 0x1803 PUSH1 0x7 PUSH1 0x0 DUP4 DUP2 MSTORE PUSH1 0x20 ADD SWAP1 DUP2 MSTORE PUSH1 0x20 ADD PUSH1 0x0 KECCAK256 PUSH1 0x3 ADD DUP1 SLOAD PUSH2 0x177F SWAP1 PUSH2 0x51BE JUMP JUMPDEST DUP1 PUSH1 0x1F ADD PUSH1 0x20 DUP1 SWAP2 DIV MUL PUSH1 0x20 ADD PUSH1 0x40 MLOAD SWAP1 DUP2 ADD PUSH1 0x40 MSTORE DUP1 SWAP3 SWAP2 SWAP1 DUP2 DUP2 MSTORE PUSH1 0x20 ADD DUP3 DUP1 SLOAD PUSH2 0x17AB SWAP1 PUSH2 0x51BE JUMP JUMPDEST DUP1 ISZERO PUSH2 0x17F8 JUMPI DUP1 PUSH1 0x1F LT PUSH2 0x17CD JUMPI PUSH2 0x100 DUP1 DUP4 SLOAD DIV MUL DUP4 MSTORE SWAP2 PUSH1 0x20 ADD SWAP2 PUSH2 0x17F8 JUMP JUMPDEST DUP3 ADD SWAP2 SWAP1 PUSH1 0x0 MSTORE PUSH1 0x20 PUSH1 0x0 KECCAK256 SWAP1 JUMPDEST DUP2 SLOAD DUP2 MSTORE SWAP1 PUSH1 0x1 ADD SWAP1 PUSH1 0x20 ADD DUP1 DUP4 GT PUSH2 0x17DB JUMPI DUP3 SWAP1 SUB PUSH1 0x1F AND DUP3 ADD SWAP2 JUMPDEST POP POP POP POP POP DUP7 PUSH2 0x2F1F JUMP JUMPDEST DUP1 ISZERO PUSH2 0x1870 JUMPI POP CALLER PUSH20 0xFFFFFFFFFFFFFFFFFFFFFFFFFFFFFFFFFFFFFFFF AND PUSH1 0x7 PUSH1 0x0 DUP4 DUP2 MSTORE PUSH1 0x20 ADD SWAP1 DUP2 MSTORE PUSH1 0x20 ADD PUSH1 0x0 KECCAK256 PUSH1 0x6 ADD PUSH1 0x0 SWAP1 SLOAD SWAP1 PUSH2 0x100 EXP SWAP1 DIV PUSH20 0xFFFFFFFFFFFFFFFFFFFFFFFFFFFFFFFFFFFFFFFF AND PUSH20 0xFFFFFFFFFFFFFFFFFFFFFFFFFFFFFFFFFFFFFFFF AND EQ JUMPDEST PUSH2 0x18AF JUMPI PUSH1 0x40 MLOAD PUSH32 0x8C379A000000000000000000000000000000000000000000000000000000000 DUP2 MSTORE PUSH1 0x4 ADD PUSH2 0x18A6 SWAP1 PUSH2 0x5528 JUMP JUMPDEST PUSH1 0x40 MLOAD DUP1 SWAP2 SUB SWAP1 REVERT JUMPDEST DUP1 DUP1 PUSH1 0x1 ADD SWAP2 POP POP PUSH2 0x1751 JUMP JUMPDEST POP PUSH1 0x0 DUP8 MLOAD GT DUP1 ISZERO PUSH2 0x18CF JUMPI POP PUSH1 0x0 DUP7 MLOAD GT JUMPDEST DUP1 ISZERO PUSH2 0x18DC JUMPI POP PUSH1 0x0 DUP6 MLOAD GT JUMPDEST DUP1 ISZERO PUSH2 0x18E9 JUMPI POP PUSH1 0x0 DUP5 MLOAD GT JUMPDEST DUP1 ISZERO PUSH2 0x18F6 JUMPI POP PUSH1 0x0 DUP4 MLOAD GT JUMPDEST DUP1 ISZERO PUSH2 0x1903 JUMPI POP PUSH1 0x0 DUP3 MLOAD GT JUMPDEST PUSH2 0x1942 JUMPI PUSH1 0x40 MLOAD PUSH32 0x8C379A000000000000000000000000000000000000000000000000000000000 DUP2 MSTORE PUSH1 0x4 ADD PUSH2 0x1939 SWAP1 PUSH2 0x5594 JUMP JUMPDEST PUSH1 0x40 MLOAD DUP1 SWAP2 SUB SWAP1 REVERT JUMPDEST PUSH1 0x0 PUSH1 0xB PUSH1 0x0 DUP2 SLOAD DUP1 SWAP3 SWAP2 SWAP1 PUSH2 0x1957 SWAP1 PUSH2 0x5377 JUMP JUMPDEST SWAP2 SWAP1 POP SSTORE SWAP1 POP PUSH1 0x0 PUSH2 0x1968 DUP3 PUSH2 0x82F JUMP JUMPDEST SWAP1 POP PUSH1 0x0 PUSH2 0x1976 DUP3 DUP7 PUSH2 0x2F33 JUMP JUMPDEST SWAP1 POP PUSH1 0x40 MLOAD DUP1 PUSH1 0xE0 ADD PUSH1 0x40 MSTORE DUP1 DUP12 DUP2 MSTORE PUSH1 0x20 ADD DUP11 DUP2 MSTORE PUSH1 0x20 ADD DUP10 DUP2 MSTORE PUSH1 0x20 ADD DUP9 DUP2 MSTORE PUSH1 0x20 ADD DUP8 DUP2 MSTORE PUSH1 0x20 ADD DUP3 DUP2 MSTORE PUSH1 0x20 ADD CALLER PUSH20 0xFFFFFFFFFFFFFFFFFFFFFFFFFFFFFFFFFFFFFFFF AND DUP2 MSTORE POP PUSH1 0x7 PUSH1 0x0 DUP6 DUP2 MSTORE PUSH1 0x20 ADD SWAP1 DUP2 MSTORE PUSH1 0x20 ADD PUSH1 0x0 KECCAK256 PUSH1 0x0 DUP3 ADD MLOAD DUP2 PUSH1 0x0 ADD SWAP1 DUP2 PUSH2 0x19E9 SWAP2 SWAP1 PUSH2 0x5760 JUMP JUMPDEST POP PUSH1 0x20 DUP3 ADD MLOAD DUP2 PUSH1 0x1 ADD SWAP1 DUP2 PUSH2 0x19FF SWAP2 SWAP1 PUSH2 0x5760 JUMP JUMPDEST POP PUSH1 0x40 DUP3 ADD MLOAD DUP2 PUSH1 0x2 ADD SWAP1 DUP2 PUSH2 0x1A15 SWAP2 SWAP1 PUSH2 0x5760 JUMP JUMPDEST POP PUSH1 0x60 DUP3 ADD MLOAD DUP2 PUSH1 0x3 ADD SWAP1 DUP2 PUSH2 0x1A2B SWAP2 SWAP1 PUSH2 0x5760 JUMP JUMPDEST POP PUSH1 0x80 DUP3 ADD MLOAD DUP2 PUSH1 0x4 ADD SWAP1 DUP2 PUSH2 0x1A41 SWAP2 SWAP1 PUSH2 0x5760 JUMP JUMPDEST POP PUSH1 0xA0 DUP3 ADD MLOAD DUP2 PUSH1 0x5 ADD SWAP1 DUP2 PUSH2 0x1A57 SWAP2 SWAP1 PUSH2 0x5760 JUMP JUMPDEST POP PUSH1 0xC0 DUP3 ADD MLOAD DUP2 PUSH1 0x6 ADD PUSH1 0x0 PUSH2 0x100 EXP DUP2 SLOAD DUP2 PUSH20 0xFFFFFFFFFFFFFFFFFFFFFFFFFFFFFFFFFFFFFFFF MUL NOT AND SWAP1 DUP4 PUSH20 0xFFFFFFFFFFFFFFFFFFFFFFFFFFFFFFFFFFFFFFFF AND MUL OR SWAP1 SSTORE POP SWAP1 POP POP PUSH2 0x1ABD CALLER DUP5 DUP14 PUSH1 0x40 MLOAD DUP1 PUSH1 0x20 ADD PUSH1 0x40 MSTORE DUP1 PUSH1 0x0 DUP2 MSTORE POP PUSH2 0x2F5F JUMP JUMPDEST PUSH32 0xCBE5936EC06DE2986C1AA5D74408856F909925EF01EED727F339A9070AB7721F DUP4 DUP12 DUP4 PUSH1 0x40 MLOAD PUSH2 0x1AF0 SWAP4 SWAP3 SWAP2 SWAP1 PUSH2 0x5832 JUMP JUMPDEST PUSH1 0x40 MLOAD DUP1 SWAP2 SUB SWAP1 LOG1 POP POP POP POP POP POP POP POP POP POP POP JUMP JUMPDEST PUSH1 0x0 DUP1 SHL DUP2 JUMP JUMPDEST PUSH2 0x1B1E PUSH2 0x1B17 PUSH2 0x2AB8 JUMP JUMPDEST DUP4 DUP4 PUSH2 0x2FF8 JUMP JUMPDEST POP POP JUMP JUMPDEST PUSH32 0x616DE93F8F9411AAE7290D381DD434CB23223A2F88EF9A88F3CDB0EB43FE9248 PUSH2 0x1B4C DUP2 PUSH2 0x2A91 JUMP JUMPDEST PUSH1 0x0 PUSH1 0x9 PUSH1 0x0 DUP5 DUP2 MSTORE PUSH1 0x20 ADD SWAP1 DUP2 MSTORE PUSH1 0x20 ADD PUSH1 0x0 KECCAK256 SWAP1 POP CALLER PUSH20 0xFFFFFFFFFFFFFFFFFFFFFFFFFFFFFFFFFFFFFFFF AND DUP2 PUSH1 0x1 ADD PUSH1 0x0 SWAP1 SLOAD SWAP1 PUSH2 0x100 EXP SWAP1 DIV PUSH20 0xFFFFFFFFFFFFFFFFFFFFFFFFFFFFFFFFFFFFFFFF AND PUSH20 0xFFFFFFFFFFFFFFFFFFFFFFFFFFFFFFFFFFFFFFFF AND EQ DUP1 ISZERO PUSH2 0x1BD6 JUMPI POP PUSH1 0x0 DUP2 PUSH1 0x4 ADD PUSH1 0x0 SWAP1 SLOAD SWAP1 PUSH2 0x100 EXP SWAP1 DIV PUSH1 0xFF AND PUSH1 0xFF AND EQ JUMPDEST PUSH2 0x1C15 JUMPI PUSH1 0x40 MLOAD PUSH32 0x8C379A000000000000000000000000000000000000000000000000000000000 DUP2 MSTORE PUSH1 0x4 ADD PUSH2 0x1C0C SWAP1 PUSH2 0x58C3 JUMP JUMPDEST PUSH1 0x40 MLOAD DUP1 SWAP2 SUB SWAP1 REVERT JUMPDEST DUP1 PUSH1 0x3 ADD SLOAD PUSH2 0x1C28 CALLER DUP4 PUSH1 0x2 ADD SLOAD PUSH2 0x7A9 JUMP JUMPDEST LT ISZERO PUSH2 0x1C69 JUMPI PUSH1 0x40 MLOAD PUSH32 0x8C379A000000000000000000000000000000000000000000000000000000000 DUP2 MSTORE PUSH1 0x4 ADD PUSH2 0x1C60 SWAP1 PUSH2 0x5328 JUMP JUMPDEST PUSH1 0x40 MLOAD DUP1 SWAP2 SUB SWAP1 REVERT JUMPDEST PUSH2 0x1C7C CALLER DUP3 PUSH1 0x2 ADD SLOAD DUP4 PUSH1 0x3 ADD SLOAD PUSH2 0x3168 JUMP JUMPDEST PUSH1 0x1 DUP2 PUSH1 0x4 ADD PUSH1 0x0 PUSH2 0x100 EXP DUP2 SLOAD DUP2 PUSH1 0xFF MUL NOT AND SWAP1 DUP4 PUSH1 0xFF AND MUL OR SWAP1 SSTORE POP PUSH32 0x8B6240997BC3AF56F5A9AEC0408B8286FB78FB0573F2BA96445BE3918511CB93 DUP4 CALLER PUSH1 0x40 MLOAD PUSH2 0x1CCB SWAP3 SWAP2 SWAP1 PUSH2 0x58E3 JUMP JUMPDEST PUSH1 0x40 MLOAD DUP1 SWAP2 SUB SWAP1 LOG1 POP POP POP JUMP JUMPDEST PUSH1 0x0 PUSH1 0x5 PUSH1 0x0 DUP4 DUP2 MSTORE PUSH1 0x20 ADD SWAP1 DUP2 MSTORE PUSH1 0x20 ADD PUSH1 0x0 KECCAK256 SLOAD SWAP1 POP SWAP2 SWAP1 POP JUMP JUMPDEST PUSH1 0x9 PUSH1 0x20 MSTORE DUP1 PUSH1 0x0 MSTORE PUSH1 0x40 PUSH1 0x0 KECCAK256 PUSH1 0x0 SWAP2 POP SWAP1 POP DUP1 PUSH1 0x0 ADD PUSH1 0x0 SWAP1 SLOAD SWAP1 PUSH2 0x100 EXP SWAP1 DIV PUSH20 0xFFFFFFFFFFFFFFFFFFFFFFFFFFFFFFFFFFFFFFFF AND SWAP1 DUP1 PUSH1 0x1 ADD PUSH1 0x0 SWAP1 SLOAD SWAP1 PUSH2 0x100 EXP SWAP1 DIV PUSH20 0xFFFFFFFFFFFFFFFFFFFFFFFFFFFFFFFFFFFFFFFF AND SWAP1 DUP1 PUSH1 0x2 ADD SLOAD SWAP1 DUP1 PUSH1 0x3 ADD SLOAD SWAP1 DUP1 PUSH1 0x4 ADD PUSH1 0x0 SWAP1 SLOAD SWAP1 PUSH2 0x100 EXP SWAP1 DIV PUSH1 0xFF AND SWAP1 POP DUP6 JUMP JUMPDEST PUSH2 0x1D81 DUP3 PUSH2 0xA38 JUMP JUMPDEST PUSH2 0x1D8A DUP2 PUSH2 0x2A91 JUMP JUMPDEST PUSH2 0x1D94 DUP4 DUP4 PUSH2 0x2CAA JUMP JUMPDEST POP POP POP POP JUMP JUMPDEST PUSH32 0x616DE93F8F9411AAE7290D381DD434CB23223A2F88EF9A88F3CDB0EB43FE9248 PUSH2 0x1DC4 DUP2 PUSH2 0x2A91 JUMP JUMPDEST CALLER PUSH20 0xFFFFFFFFFFFFFFFFFFFFFFFFFFFFFFFFFFFFFFFF AND PUSH1 0x7 PUSH1 0x0 DUP5 DUP2 MSTORE PUSH1 0x20 ADD SWAP1 DUP2 MSTORE PUSH1 0x20 ADD PUSH1 0x0 KECCAK256 PUSH1 0x6 ADD PUSH1 0x0 SWAP1 SLOAD SWAP1 PUSH2 0x100 EXP SWAP1 DIV PUSH20 0xFFFFFFFFFFFFFFFFFFFFFFFFFFFFFFFFFFFFFFFF AND PUSH20 0xFFFFFFFFFFFFFFFFFFFFFFFFFFFFFFFFFFFFFFFF AND EQ PUSH2 0x1E68 JUMPI PUSH1 0x40 MLOAD PUSH32 0x8C379A000000000000000000000000000000000000000000000000000000000 DUP2 MSTORE PUSH1 0x4 ADD PUSH2 0x1E5F SWAP1 PUSH2 0x597E JUMP JUMPDEST PUSH1 0x40 MLOAD DUP1 SWAP2 SUB SWAP1 REVERT JUMPDEST PUSH2 0x1E83 CALLER DUP4 DUP6 PUSH1 0x40 MLOAD DUP1 PUSH1 0x20 ADD PUSH1 0x40 MSTORE DUP1 PUSH1 0x0 DUP2 MSTORE POP PUSH2 0x2F5F JUMP JUMPDEST PUSH32 0x99E23E33558426ECF51FABD188EADEF462211A2E0B471BE788AF57799F05FADA DUP3 CALLER DUP6 PUSH1 0x40 MLOAD PUSH2 0x1EB6 SWAP4 SWAP3 SWAP2 SWAP1 PUSH2 0x599E JUMP JUMPDEST PUSH1 0x40 MLOAD DUP1 SWAP2 SUB SWAP1 LOG1 POP POP POP JUMP JUMPDEST PUSH2 0x1ECB PUSH2 0x40F9 JUMP JUMPDEST PUSH1 0x0 PUSH1 0x7 PUSH1 0x0 DUP5 DUP2 MSTORE PUSH1 0x20 ADD SWAP1 DUP2 MSTORE PUSH1 0x20 ADD PUSH1 0x0 KECCAK256 PUSH1 0x0 ADD DUP1 SLOAD PUSH2 0x1EEE SWAP1 PUSH2 0x51BE JUMP JUMPDEST SWAP1 POP GT PUSH2 0x1F30 JUMPI PUSH1 0x40 MLOAD PUSH32 0x8C379A000000000000000000000000000000000000000000000000000000000 DUP2 MSTORE PUSH1 0x4 ADD PUSH2 0x1F27 SWAP1 PUSH2 0x5A21 JUMP JUMPDEST PUSH1 0x40 MLOAD DUP1 SWAP2 SUB SWAP1 REVERT JUMPDEST PUSH1 0x7 PUSH1 0x0 DUP4 DUP2 MSTORE PUSH1 0x20 ADD SWAP1 DUP2 MSTORE PUSH1 0x20 ADD PUSH1 0x0 KECCAK256 PUSH1 0x40 MLOAD DUP1 PUSH1 0xE0 ADD PUSH1 0x40 MSTORE SWAP1 DUP2 PUSH1 0x0 DUP3 ADD DUP1 SLOAD PUSH2 0x1F5E SWAP1 PUSH2 0x51BE JUMP JUMPDEST DUP1 PUSH1 0x1F ADD PUSH1 0x20 DUP1 SWAP2 DIV MUL PUSH1 0x20 ADD PUSH1 0x40 MLOAD SWAP1 DUP2 ADD PUSH1 0x40 MSTORE DUP1 SWAP3 SWAP2 SWAP1 DUP2 DUP2 MSTORE PUSH1 0x20 ADD DUP3 DUP1 SLOAD PUSH2 0x1F8A SWAP1 PUSH2 0x51BE JUMP JUMPDEST DUP1 ISZERO PUSH2 0x1FD7 JUMPI DUP1 PUSH1 0x1F LT PUSH2 0x1FAC JUMPI PUSH2 0x100 DUP1 DUP4 SLOAD DIV MUL DUP4 MSTORE SWAP2 PUSH1 0x20 ADD SWAP2 PUSH2 0x1FD7 JUMP JUMPDEST DUP3 ADD SWAP2 SWAP1 PUSH1 0x0 MSTORE PUSH1 0x20 PUSH1 0x0 KECCAK256 SWAP1 JUMPDEST DUP2 SLOAD DUP2 MSTORE SWAP1 PUSH1 0x1 ADD SWAP1 PUSH1 0x20 ADD DUP1 DUP4 GT PUSH2 0x1FBA JUMPI DUP3 SWAP1 SUB PUSH1 0x1F AND DUP3 ADD SWAP2 JUMPDEST POP POP POP POP POP DUP2 MSTORE PUSH1 0x20 ADD PUSH1 0x1 DUP3 ADD DUP1 SLOAD PUSH2 0x1FF0 SWAP1 PUSH2 0x51BE JUMP JUMPDEST DUP1 PUSH1 0x1F ADD PUSH1 0x20 DUP1 SWAP2 DIV MUL PUSH1 0x20 ADD PUSH1 0x40 MLOAD SWAP1 DUP2 ADD PUSH1 0x40 MSTORE DUP1 SWAP3 SWAP2 SWAP1 DUP2 DUP2 MSTORE PUSH1 0x20 ADD DUP3 DUP1 SLOAD PUSH2 0x201C SWAP1 PUSH2 0x51BE JUMP JUMPDEST DUP1 ISZERO PUSH2 0x2069 JUMPI DUP1 PUSH1 0x1F LT PUSH2 0x203E JUMPI PUSH2 0x100 DUP1 DUP4 SLOAD DIV MUL DUP4 MSTORE SWAP2 PUSH1 0x20 ADD SWAP2 PUSH2 0x2069 JUMP JUMPDEST DUP3 ADD SWAP2 SWAP1 PUSH1 0x0 MSTORE PUSH1 0x20 PUSH1 0x0 KECCAK256 SWAP1 JUMPDEST DUP2 SLOAD DUP2 MSTORE SWAP1 PUSH1 0x1 ADD SWAP1 PUSH1 0x20 ADD DUP1 DUP4 GT PUSH2 0x204C JUMPI DUP3 SWAP1 SUB PUSH1 0x1F AND DUP3 ADD SWAP2 JUMPDEST POP POP POP POP POP DUP2 MSTORE PUSH1 0x20 ADD PUSH1 0x2 DUP3 ADD DUP1 SLOAD PUSH2 0x2082 SWAP1 PUSH2 0x51BE JUMP JUMPDEST DUP1 PUSH1 0x1F ADD PUSH1 0x20 DUP1 SWAP2 DIV MUL PUSH1 0x20 ADD PUSH1 0x40 MLOAD SWAP1 DUP2 ADD PUSH1 0x40 MSTORE DUP1 SWAP3 SWAP2 SWAP1 DUP2 DUP2 MSTORE PUSH1 0x20 ADD DUP3 DUP1 SLOAD PUSH2 0x20AE SWAP1 PUSH2 0x51BE JUMP JUMPDEST DUP1 ISZERO PUSH2 0x20FB JUMPI DUP1 PUSH1 0x1F LT PUSH2 0x20D0 JUMPI PUSH2 0x100 DUP1 DUP4 SLOAD DIV MUL DUP4 MSTORE SWAP2 PUSH1 0x20 ADD SWAP2 PUSH2 0x20FB JUMP JUMPDEST DUP3 ADD SWAP2 SWAP1 PUSH1 0x0 MSTORE PUSH1 0x20 PUSH1 0x0 KECCAK256 SWAP1 JUMPDEST DUP2 SLOAD DUP2 MSTORE SWAP1 PUSH1 0x1 ADD SWAP1 PUSH1 0x20 ADD DUP1 DUP4 GT PUSH2 0x20DE JUMPI DUP3 SWAP1 SUB PUSH1 0x1F AND DUP3 ADD SWAP2 JUMPDEST POP POP POP POP POP DUP2 MSTORE PUSH1 0x20 ADD PUSH1 0x3 DUP3 ADD DUP1 SLOAD PUSH2 0x2114 SWAP1 PUSH2 0x51BE JUMP JUMPDEST DUP1 PUSH1 0x1F ADD PUSH1 0x20 DUP1 SWAP2 DIV MUL PUSH1 0x20 ADD PUSH1 0x40 MLOAD SWAP1 DUP2 ADD PUSH1 0x40 MSTORE DUP1 SWAP3 SWAP2 SWAP1 DUP2 DUP2 MSTORE PUSH1 0x20 ADD DUP3 DUP1 SLOAD PUSH2 0x2140 SWAP1 PUSH2 0x51BE JUMP JUMPDEST DUP1 ISZERO PUSH2 0x218D JUMPI DUP1 PUSH1 0x1F LT PUSH2 0x2162 JUMPI PUSH2 0x100 DUP1 DUP4 SLOAD DIV MUL DUP4 MSTORE SWAP2 PUSH1 0x20 ADD SWAP2 PUSH2 0x218D JUMP JUMPDEST DUP3 ADD SWAP2 SWAP1 PUSH1 0x0 MSTORE PUSH1 0x20 PUSH1 0x0 KECCAK256 SWAP1 JUMPDEST DUP2 SLOAD DUP2 MSTORE SWAP1 PUSH1 0x1 ADD SWAP1 PUSH1 0x20 ADD DUP1 DUP4 GT PUSH2 0x2170 JUMPI DUP3 SWAP1 SUB PUSH1 0x1F AND DUP3 ADD SWAP2 JUMPDEST POP POP POP POP POP DUP2 MSTORE PUSH1 0x20 ADD PUSH1 0x4 DUP3 ADD DUP1 SLOAD PUSH2 0x21A6 SWAP1 PUSH2 0x51BE JUMP JUMPDEST DUP1 PUSH1 0x1F ADD PUSH1 0x20 DUP1 SWAP2 DIV MUL PUSH1 0x20 ADD PUSH1 0x40 MLOAD SWAP1 DUP2 ADD PUSH1 0x40 MSTORE DUP1 SWAP3 SWAP2 SWAP1 DUP2 DUP2 MSTORE PUSH1 0x20 ADD DUP3 DUP1 SLOAD PUSH2 0x21D2 SWAP1 PUSH2 0x51BE JUMP JUMPDEST DUP1 ISZERO PUSH2 0x221F JUMPI DUP1 PUSH1 0x1F LT PUSH2 0x21F4 JUMPI PUSH2 0x100 DUP1 DUP4 SLOAD DIV MUL DUP4 MSTORE SWAP2 PUSH1 0x20 ADD SWAP2 PUSH2 0x221F JUMP JUMPDEST DUP3 ADD SWAP2 SWAP1 PUSH1 0x0 MSTORE PUSH1 0x20 PUSH1 0x0 KECCAK256 SWAP1 JUMPDEST DUP2 SLOAD DUP2 MSTORE SWAP1 PUSH1 0x1 ADD SWAP1 PUSH1 0x20 ADD DUP1 DUP4 GT PUSH2 0x2202 JUMPI DUP3 SWAP1 SUB PUSH1 0x1F AND DUP3 ADD SWAP2 JUMPDEST POP POP POP POP POP DUP2 MSTORE PUSH1 0x20 ADD PUSH1 0x5 DUP3 ADD DUP1 SLOAD PUSH2 0x2238 SWAP1 PUSH2 0x51BE JUMP JUMPDEST DUP1 PUSH1 0x1F ADD PUSH1 0x20 DUP1 SWAP2 DIV MUL PUSH1 0x20 ADD PUSH1 0x40 MLOAD SWAP1 DUP2 ADD PUSH1 0x40 MSTORE DUP1 SWAP3 SWAP2 SWAP1 DUP2 DUP2 MSTORE PUSH1 0x20 ADD DUP3 DUP1 SLOAD PUSH2 0x2264 SWAP1 PUSH2 0x51BE JUMP JUMPDEST DUP1 ISZERO PUSH2 0x22B1 JUMPI DUP1 PUSH1 0x1F LT PUSH2 0x2286 JUMPI PUSH2 0x100 DUP1 DUP4 SLOAD DIV MUL DUP4 MSTORE SWAP2 PUSH1 0x20 ADD SWAP2 PUSH2 0x22B1 JUMP JUMPDEST DUP3 ADD SWAP2 SWAP1 PUSH1 0x0 MSTORE PUSH1 0x20 PUSH1 0x0 KECCAK256 SWAP1 JUMPDEST DUP2 SLOAD DUP2 MSTORE SWAP1 PUSH1 0x1 ADD SWAP1 PUSH1 0x20 ADD DUP1 DUP4 GT PUSH2 0x2294 JUMPI DUP3 SWAP1 SUB PUSH1 0x1F AND DUP3 ADD SWAP2 JUMPDEST POP POP POP POP POP DUP2 MSTORE PUSH1 0x20 ADD PUSH1 0x6 DUP3 ADD PUSH1 0x0 SWAP1 SLOAD SWAP1 PUSH2 0x100 EXP SWAP1 DIV PUSH20 0xFFFFFFFFFFFFFFFFFFFFFFFFFFFFFFFFFFFFFFFF AND PUSH20 0xFFFFFFFFFFFFFFFFFFFFFFFFFFFFFFFFFFFFFFFF AND PUSH20 0xFFFFFFFFFFFFFFFFFFFFFFFFFFFFFFFFFFFFFFFF AND DUP2 MSTORE POP POP SWAP1 POP SWAP2 SWAP1 POP JUMP JUMPDEST PUSH32 0x14823911F2DA1B49F045A0929A60B8C1F2A7FC8C06C7284CA3E8AB4E193A08C8 PUSH2 0x2341 DUP2 PUSH2 0x2A91 JUMP JUMPDEST PUSH1 0x0 PUSH1 0x9 PUSH1 0x0 DUP5 DUP2 MSTORE PUSH1 0x20 ADD SWAP1 DUP2 MSTORE PUSH1 0x20 ADD PUSH1 0x0 KECCAK256 SWAP1 POP CALLER PUSH20 0xFFFFFFFFFFFFFFFFFFFFFFFFFFFFFFFFFFFFFFFF AND DUP2 PUSH1 0x0 ADD PUSH1 0x0 SWAP1 SLOAD SWAP1 PUSH2 0x100 EXP SWAP1 DIV PUSH20 0xFFFFFFFFFFFFFFFFFFFFFFFFFFFFFFFFFFFFFFFF AND PUSH20 0xFFFFFFFFFFFFFFFFFFFFFFFFFFFFFFFFFFFFFFFF AND EQ DUP1 ISZERO PUSH2 0x23CB JUMPI POP PUSH1 0x1 DUP2 PUSH1 0x4 ADD PUSH1 0x0 SWAP1 SLOAD SWAP1 PUSH2 0x100 EXP SWAP1 DIV PUSH1 0xFF AND PUSH1 0xFF AND EQ JUMPDEST PUSH2 0x240A JUMPI PUSH1 0x40 MLOAD PUSH32 0x8C379A000000000000000000000000000000000000000000000000000000000 DUP2 MSTORE PUSH1 0x4 ADD PUSH2 0x2401 SWAP1 PUSH2 0x5A8D JUMP JUMPDEST PUSH1 0x40 MLOAD DUP1 SWAP2 SUB SWAP1 REVERT JUMPDEST PUSH2 0x2451 DUP2 PUSH1 0x1 ADD PUSH1 0x0 SWAP1 SLOAD SWAP1 PUSH2 0x100 EXP SWAP1 DIV PUSH20 0xFFFFFFFFFFFFFFFFFFFFFFFFFFFFFFFFFFFFFFFF AND DUP3 PUSH1 0x2 ADD SLOAD DUP4 PUSH1 0x3 ADD SLOAD PUSH1 0x40 MLOAD DUP1 PUSH1 0x20 ADD PUSH1 0x40 MSTORE DUP1 PUSH1 0x0 DUP2 MSTORE POP PUSH2 0x2F5F JUMP JUMPDEST PUSH1 0x2 DUP2 PUSH1 0x4 ADD PUSH1 0x0 PUSH2 0x100 EXP DUP2 SLOAD DUP2 PUSH1 0xFF MUL NOT AND SWAP1 DUP4 PUSH1 0xFF AND MUL OR SWAP1 SSTORE POP PUSH32 0xAD4162E5033B7BB713E12D20782E2D719000E0C997983A11328616E82C93BE03 DUP4 DUP3 PUSH1 0x1 ADD PUSH1 0x0 SWAP1 SLOAD SWAP1 PUSH2 0x100 EXP SWAP1 DIV PUSH20 0xFFFFFFFFFFFFFFFFFFFFFFFFFFFFFFFFFFFFFFFF AND PUSH1 0x40 MLOAD PUSH2 0x24C4 SWAP3 SWAP2 SWAP1 PUSH2 0x58E3 JUMP JUMPDEST PUSH1 0x40 MLOAD DUP1 SWAP2 SUB SWAP1 LOG1 POP POP POP JUMP JUMPDEST PUSH1 0x0 PUSH1 0x1 PUSH1 0x0 DUP5 PUSH20 0xFFFFFFFFFFFFFFFFFFFFFFFFFFFFFFFFFFFFFFFF AND PUSH20 0xFFFFFFFFFFFFFFFFFFFFFFFFFFFFFFFFFFFFFFFF AND DUP2 MSTORE PUSH1 0x20 ADD SWAP1 DUP2 MSTORE PUSH1 0x20 ADD PUSH1 0x0 KECCAK256 PUSH1 0x0 DUP4 PUSH20 0xFFFFFFFFFFFFFFFFFFFFFFFFFFFFFFFFFFFFFFFF AND PUSH20 0xFFFFFFFFFFFFFFFFFFFFFFFFFFFFFFFFFFFFFFFF AND DUP2 MSTORE PUSH1 0x20 ADD SWAP1 DUP2 MSTORE PUSH1 0x20 ADD PUSH1 0x0 KECCAK256 PUSH1 0x0 SWAP1 SLOAD SWAP1 PUSH2 0x100 EXP SWAP1 DIV PUSH1 0xFF AND SWAP1 POP SWAP3 SWAP2 POP POP JUMP JUMPDEST PUSH1 0x0 PUSH2 0x256F PUSH2 0x2AB8 JUMP JUMPDEST SWAP1 POP DUP1 PUSH20 0xFFFFFFFFFFFFFFFFFFFFFFFFFFFFFFFFFFFFFFFF AND DUP7 PUSH20 0xFFFFFFFFFFFFFFFFFFFFFFFFFFFFFFFFFFFFFFFF AND EQ ISZERO DUP1 ISZERO PUSH2 0x25B4 JUMPI POP PUSH2 0x25B2 DUP7 DUP3 PUSH2 0x24D1 JUMP JUMPDEST ISZERO JUMPDEST ISZERO PUSH2 0x25F8 JUMPI DUP1 DUP7 PUSH1 0x40 MLOAD PUSH32 0xE237D92200000000000000000000000000000000000000000000000000000000 DUP2 MSTORE PUSH1 0x4 ADD PUSH2 0x25EF SWAP3 SWAP2 SWAP1 PUSH2 0x51EF JUMP JUMPDEST PUSH1 0x40 MLOAD DUP1 SWAP2 SUB SWAP1 REVERT JUMPDEST PUSH2 0x2605 DUP7 DUP7 DUP7 DUP7 DUP7 PUSH2 0x320F JUMP JUMPDEST POP POP POP POP POP POP JUMP JUMPDEST PUSH2 0x2615 PUSH2 0x2AB8 JUMP JUMPDEST PUSH20 0xFFFFFFFFFFFFFFFFFFFFFFFFFFFFFFFFFFFFFFFF AND DUP4 PUSH20 0xFFFFFFFFFFFFFFFFFFFFFFFFFFFFFFFFFFFFFFFF AND EQ ISZERO DUP1 ISZERO PUSH2 0x265E JUMPI POP PUSH2 0x265C DUP4 PUSH2 0x2657 PUSH2 0x2AB8 JUMP JUMPDEST PUSH2 0x24D1 JUMP JUMPDEST ISZERO JUMPDEST ISZERO PUSH2 0x26A9 JUMPI PUSH2 0x266B PUSH2 0x2AB8 JUMP JUMPDEST DUP4 PUSH1 0x40 MLOAD PUSH32 0xE237D92200000000000000000000000000000000000000000000000000000000 DUP2 MSTORE PUSH1 0x4 ADD PUSH2 0x26A0 SWAP3 SWAP2 SWAP1 PUSH2 0x51EF JUMP JUMPDEST PUSH1 0x40 MLOAD DUP1 SWAP2 SUB SWAP1 REVERT JUMPDEST PUSH2 0x26B4 DUP4 DUP4 DUP4 PUSH2 0x3168 JUMP JUMPDEST POP POP POP JUMP JUMPDEST PUSH1 0x0 DUP1 SHL PUSH2 0x26C6 DUP2 PUSH2 0x2A91 JUMP JUMPDEST PUSH1 0x0 ISZERO ISZERO PUSH1 0x8 PUSH1 0x0 DUP7 PUSH20 0xFFFFFFFFFFFFFFFFFFFFFFFFFFFFFFFFFFFFFFFF AND PUSH20 0xFFFFFFFFFFFFFFFFFFFFFFFFFFFFFFFFFFFFFFFF AND DUP2 MSTORE PUSH1 0x20 ADD SWAP1 DUP2 MSTORE PUSH1 0x20 ADD PUSH1 0x0 KECCAK256 PUSH1 0x2 ADD PUSH1 0x0 SWAP1 SLOAD SWAP1 PUSH2 0x100 EXP SWAP1 DIV PUSH1 0xFF AND ISZERO ISZERO EQ PUSH2 0x275C JUMPI PUSH1 0x40 MLOAD PUSH32 0x8C379A000000000000000000000000000000000000000000000000000000000 DUP2 MSTORE PUSH1 0x4 ADD PUSH2 0x2753 SWAP1 PUSH2 0x5AF9 JUMP JUMPDEST PUSH1 0x40 MLOAD DUP1 SWAP2 SUB SWAP1 REVERT JUMPDEST PUSH1 0x0 DUP4 MLOAD GT DUP1 ISZERO PUSH2 0x276E JUMPI POP PUSH1 0x0 DUP3 MLOAD GT JUMPDEST PUSH2 0x27AD JUMPI PUSH1 0x40 MLOAD PUSH32 0x8C379A000000000000000000000000000000000000000000000000000000000 DUP2 MSTORE PUSH1 0x4 ADD PUSH2 0x27A4 SWAP1 PUSH2 0x5B65 JUMP JUMPDEST PUSH1 0x40 MLOAD DUP1 SWAP2 SUB SWAP1 REVERT JUMPDEST PUSH1 0x40 MLOAD DUP1 PUSH1 0x60 ADD PUSH1 0x40 MSTORE DUP1 DUP5 DUP2 MSTORE PUSH1 0x20 ADD DUP4 DUP2 MSTORE PUSH1 0x20 ADD PUSH1 0x1 ISZERO ISZERO DUP2 MSTORE POP PUSH1 0x8 PUSH1 0x0 DUP7 PUSH20 0xFFFFFFFFFFFFFFFFFFFFFFFFFFFFFFFFFFFFFFFF AND PUSH20 0xFFFFFFFFFFFFFFFFFFFFFFFFFFFFFFFFFFFFFFFF AND DUP2 MSTORE PUSH1 0x20 ADD SWAP1 DUP2 MSTORE PUSH1 0x20 ADD PUSH1 0x0 KECCAK256 PUSH1 0x0 DUP3 ADD MLOAD DUP2 PUSH1 0x0 ADD SWAP1 DUP2 PUSH2 0x281F SWAP2 SWAP1 PUSH2 0x5760 JUMP JUMPDEST POP PUSH1 0x20 DUP3 ADD MLOAD DUP2 PUSH1 0x1 ADD SWAP1 DUP2 PUSH2 0x2835 SWAP2 SWAP1 PUSH2 0x5760 JUMP JUMPDEST POP PUSH1 0x40 DUP3 ADD MLOAD DUP2 PUSH1 0x2 ADD PUSH1 0x0 PUSH2 0x100 EXP DUP2 SLOAD DUP2 PUSH1 0xFF MUL NOT AND SWAP1 DUP4 ISZERO ISZERO MUL OR SWAP1 SSTORE POP SWAP1 POP POP PUSH2 0x2883 PUSH32 0x616DE93F8F9411AAE7290D381DD434CB23223A2F88EF9A88F3CDB0EB43FE9248 DUP6 PUSH2 0x2BB8 JUMP JUMPDEST POP PUSH32 0xF713003E0DECE41FA86D4283426F7363D0A7E2012E3203C503B9946226DE6BDF DUP5 DUP4 PUSH1 0x40 MLOAD PUSH2 0x28B5 SWAP3 SWAP2 SWAP1 PUSH2 0x5B85 JUMP JUMPDEST PUSH1 0x40 MLOAD DUP1 SWAP2 SUB SWAP1 LOG1 POP POP POP POP JUMP JUMPDEST PUSH32 0x616DE93F8F9411AAE7290D381DD434CB23223A2F88EF9A88F3CDB0EB43FE9248 PUSH2 0x28ED DUP2 PUSH2 0x2A91 JUMP JUMPDEST PUSH1 0x8 PUSH1 0x0 DUP8 PUSH20 0xFFFFFFFFFFFFFFFFFFFFFFFFFFFFFFFFFFFFFFFF AND PUSH20 0xFFFFFFFFFFFFFFFFFFFFFFFFFFFFFFFFFFFFFFFF AND DUP2 MSTORE PUSH1 0x20 ADD SWAP1 DUP2 MSTORE PUSH1 0x20 ADD PUSH1 0x0 KECCAK256 PUSH1 0x2 ADD PUSH1 0x0 SWAP1 SLOAD SWAP1 PUSH2 0x100 EXP SWAP1 DIV PUSH1 0xFF AND DUP1 ISZERO PUSH2 0x2995 JUMPI POP PUSH1 0x8 PUSH1 0x0 DUP7 PUSH20 0xFFFFFFFFFFFFFFFFFFFFFFFFFFFFFFFFFFFFFFFF AND PUSH20 0xFFFFFFFFFFFFFFFFFFFFFFFFFFFFFFFFFFFFFFFF AND DUP2 MSTORE PUSH1 0x20 ADD SWAP1 DUP2 MSTORE PUSH1 0x20 ADD PUSH1 0x0 KECCAK256 PUSH1 0x2 ADD PUSH1 0x0 SWAP1 SLOAD SWAP1 PUSH2 0x100 EXP SWAP1 DIV PUSH1 0xFF AND JUMPDEST DUP1 ISZERO PUSH2 0x29C3 JUMPI POP PUSH1 0x0 PUSH1 0x7 PUSH1 0x0 DUP7 DUP2 MSTORE PUSH1 0x20 ADD SWAP1 DUP2 MSTORE PUSH1 0x20 ADD PUSH1 0x0 KECCAK256 PUSH1 0x0 ADD DUP1 SLOAD PUSH2 0x29BF SWAP1 PUSH2 0x51BE JUMP JUMPDEST SWAP1 POP GT JUMPDEST PUSH2 0x2A02 JUMPI PUSH1 0x40 MLOAD PUSH32 0x8C379A000000000000000000000000000000000000000000000000000000000 DUP2 MSTORE PUSH1 0x4 ADD PUSH2 0x29F9 SWAP1 PUSH2 0x5C01 JUMP JUMPDEST PUSH1 0x40 MLOAD DUP1 SWAP2 SUB SWAP1 REVERT JUMPDEST PUSH2 0x2A0F DUP7 DUP7 DUP7 DUP7 DUP7 PUSH2 0x2565 JUMP JUMPDEST POP POP POP POP POP POP JUMP JUMPDEST PUSH1 0x0 PUSH32 0x7965DB0B00000000000000000000000000000000000000000000000000000000 PUSH28 0xFFFFFFFFFFFFFFFFFFFFFFFFFFFFFFFFFFFFFFFFFFFFFFFFFFFFFFFF NOT AND DUP3 PUSH28 0xFFFFFFFFFFFFFFFFFFFFFFFFFFFFFFFFFFFFFFFFFFFFFFFFFFFFFFFF NOT AND EQ DUP1 PUSH2 0x2A8A JUMPI POP PUSH2 0x2A89 DUP3 PUSH2 0x331A JUMP JUMPDEST JUMPDEST SWAP1 POP SWAP2 SWAP1 POP JUMP JUMPDEST PUSH2 0x2AA2 DUP2 PUSH2 0x2A9D PUSH2 0x2AB8 JUMP JUMPDEST PUSH2 0x33FC JUMP JUMPDEST POP JUMP JUMPDEST DUP1 PUSH1 0x2 SWAP1 DUP2 PUSH2 0x2AB4 SWAP2 SWAP1 PUSH2 0x5760 JUMP JUMPDEST POP POP JUMP JUMPDEST PUSH1 0x0 CALLER SWAP1 POP SWAP1 JUMP JUMPDEST PUSH1 0x0 PUSH20 0xFFFFFFFFFFFFFFFFFFFFFFFFFFFFFFFFFFFFFFFF AND DUP5 PUSH20 0xFFFFFFFFFFFFFFFFFFFFFFFFFFFFFFFFFFFFFFFF AND SUB PUSH2 0x2B32 JUMPI PUSH1 0x0 PUSH1 0x40 MLOAD PUSH32 0x57F447CE00000000000000000000000000000000000000000000000000000000 DUP2 MSTORE PUSH1 0x4 ADD PUSH2 0x2B29 SWAP2 SWAP1 PUSH2 0x5C21 JUMP JUMPDEST PUSH1 0x40 MLOAD DUP1 SWAP2 SUB SWAP1 REVERT JUMPDEST PUSH1 0x0 PUSH20 0xFFFFFFFFFFFFFFFFFFFFFFFFFFFFFFFFFFFFFFFF AND DUP6 PUSH20 0xFFFFFFFFFFFFFFFFFFFFFFFFFFFFFFFFFFFFFFFF AND SUB PUSH2 0x2BA4 JUMPI PUSH1 0x0 PUSH1 0x40 MLOAD PUSH32 0x1A8351400000000000000000000000000000000000000000000000000000000 DUP2 MSTORE PUSH1 0x4 ADD PUSH2 0x2B9B SWAP2 SWAP1 PUSH2 0x5C21 JUMP JUMPDEST PUSH1 0x40 MLOAD DUP1 SWAP2 SUB SWAP1 REVERT JUMPDEST PUSH2 0x2BB1 DUP6 DUP6 DUP6 DUP6 DUP6 PUSH2 0x344D JUMP JUMPDEST POP POP POP POP POP JUMP JUMPDEST PUSH1 0x0 PUSH2 0x2BC4 DUP4 DUP4 PUSH2 0x162A JUMP JUMPDEST PUSH2 0x2C9F JUMPI PUSH1 0x1 PUSH1 0x3 PUSH1 0x0 DUP6 DUP2 MSTORE PUSH1 0x20 ADD SWAP1 DUP2 MSTORE PUSH1 0x20 ADD PUSH1 0x0 KECCAK256 PUSH1 0x0 ADD PUSH1 0x0 DUP5 PUSH20 0xFFFFFFFFFFFFFFFFFFFFFFFFFFFFFFFFFFFFFFFF AND PUSH20 0xFFFFFFFFFFFFFFFFFFFFFFFFFFFFFFFFFFFFFFFF AND DUP2 MSTORE PUSH1 0x20 ADD SWAP1 DUP2 MSTORE PUSH1 0x20 ADD PUSH1 0x0 KECCAK256 PUSH1 0x0 PUSH2 0x100 EXP DUP2 SLOAD DUP2 PUSH1 0xFF MUL NOT AND SWAP1 DUP4 ISZERO ISZERO MUL OR SWAP1 SSTORE POP PUSH2 0x2C3C PUSH2 0x2AB8 JUMP JUMPDEST PUSH20 0xFFFFFFFFFFFFFFFFFFFFFFFFFFFFFFFFFFFFFFFF AND DUP3 PUSH20 0xFFFFFFFFFFFFFFFFFFFFFFFFFFFFFFFFFFFFFFFF AND DUP5 PUSH32 0x2F8788117E7EFF1D82E926EC794901D17C78024A50270940304540A733656F0D PUSH1 0x40 MLOAD PUSH1 0x40 MLOAD DUP1 SWAP2 SUB SWAP1 LOG4 PUSH1 0x1 SWAP1 POP PUSH2 0x2CA4 JUMP JUMPDEST PUSH1 0x0 SWAP1 POP JUMPDEST SWAP3 SWAP2 POP POP JUMP JUMPDEST PUSH1 0x0 PUSH2 0x2CB6 DUP4 DUP4 PUSH2 0x162A JUMP JUMPDEST ISZERO PUSH2 0x2D92 JUMPI PUSH1 0x0 PUSH1 0x3 PUSH1 0x0 DUP6 DUP2 MSTORE PUSH1 0x20 ADD SWAP1 DUP2 MSTORE PUSH1 0x20 ADD PUSH1 0x0 KECCAK256 PUSH1 0x0 ADD PUSH1 0x0 DUP5 PUSH20 0xFFFFFFFFFFFFFFFFFFFFFFFFFFFFFFFFFFFFFFFF AND PUSH20 0xFFFFFFFFFFFFFFFFFFFFFFFFFFFFFFFFFFFFFFFF AND DUP2 MSTORE PUSH1 0x20 ADD SWAP1 DUP2 MSTORE PUSH1 0x20 ADD PUSH1 0x0 KECCAK256 PUSH1 0x0 PUSH2 0x100 EXP DUP2 SLOAD DUP2 PUSH1 0xFF MUL NOT AND SWAP1 DUP4 ISZERO ISZERO MUL OR SWAP1 SSTORE POP PUSH2 0x2D2F PUSH2 0x2AB8 JUMP JUMPDEST PUSH20 0xFFFFFFFFFFFFFFFFFFFFFFFFFFFFFFFFFFFFFFFF AND DUP3 PUSH20 0xFFFFFFFFFFFFFFFFFFFFFFFFFFFFFFFFFFFFFFFF AND DUP5 PUSH32 0xF6391F5C32D9C69D2A47EA670B442974B53935D1EDC7FD64EB21E047A839171B PUSH1 0x40 MLOAD PUSH1 0x40 MLOAD DUP1 SWAP2 SUB SWAP1 LOG4 PUSH1 0x1 SWAP1 POP PUSH2 0x2D97 JUMP JUMPDEST PUSH1 0x0 SWAP1 POP JUMPDEST SWAP3 SWAP2 POP POP JUMP JUMPDEST PUSH2 0x2DA5 PUSH2 0x34FF JUMP JUMPDEST PUSH1 0x0 PUSH1 0x4 PUSH1 0x0 PUSH2 0x100 EXP DUP2 SLOAD DUP2 PUSH1 0xFF MUL NOT AND SWAP1 DUP4 ISZERO ISZERO MUL OR SWAP1 SSTORE POP PUSH32 0x5DB9EE0A495BF2E6FF9C91A7834C1BA4FDD244A5E8AA4E537BD38AEAE4B073AA PUSH2 0x2DE9 PUSH2 0x2AB8 JUMP JUMPDEST PUSH1 0x40 MLOAD PUSH2 0x2DF6 SWAP2 SWAP1 PUSH2 0x5C21 JUMP JUMPDEST PUSH1 0x40 MLOAD DUP1 SWAP2 SUB SWAP1 LOG1 JUMP JUMPDEST PUSH1 0x0 PUSH1 0x20 DUP3 MUL PUSH1 0x20 DUP5 ADD ADD MLOAD SWAP1 POP SWAP3 SWAP2 POP POP JUMP JUMPDEST PUSH1 0x0 PUSH1 0x20 DUP3 MUL PUSH1 0x20 DUP5 ADD ADD MLOAD SWAP1 POP SWAP3 SWAP2 POP POP JUMP JUMPDEST PUSH1 0x0 PUSH20 0xFFFFFFFFFFFFFFFFFFFFFFFFFFFFFFFFFFFFFFFF AND DUP4 PUSH20 0xFFFFFFFFFFFFFFFFFFFFFFFFFFFFFFFFFFFFFFFF AND SUB PUSH2 0x2E9A JUMPI PUSH1 0x0 PUSH1 0x40 MLOAD PUSH32 0x1A8351400000000000000000000000000000000000000000000000000000000 DUP2 MSTORE PUSH1 0x4 ADD PUSH2 0x2E91 SWAP2 SWAP1 PUSH2 0x5C21 JUMP JUMPDEST PUSH1 0x40 MLOAD DUP1 SWAP2 SUB SWAP1 REVERT JUMPDEST PUSH2 0x2EB7 DUP4 PUSH1 0x0 DUP5 DUP5 PUSH1 0x40 MLOAD DUP1 PUSH1 0x20 ADD PUSH1 0x40 MSTORE DUP1 PUSH1 0x0 DUP2 MSTORE POP PUSH2 0x344D JUMP JUMPDEST POP POP POP JUMP JUMPDEST PUSH2 0x2EC4 PUSH2 0x353F JUMP JUMPDEST PUSH1 0x1 PUSH1 0x4 PUSH1 0x0 PUSH2 0x100 EXP DUP2 SLOAD DUP2 PUSH1 0xFF MUL NOT AND SWAP1 DUP4 ISZERO ISZERO MUL OR SWAP1 SSTORE POP PUSH32 0x62E78CEA01BEE320CD4E420270B5EA74000D11B0C9F74754EBDBFC544B05A258 PUSH2 0x2F08 PUSH2 0x2AB8 JUMP JUMPDEST PUSH1 0x40 MLOAD PUSH2 0x2F15 SWAP2 SWAP1 PUSH2 0x5C21 JUMP JUMPDEST PUSH1 0x40 MLOAD DUP1 SWAP2 SUB SWAP1 LOG1 JUMP JUMPDEST PUSH1 0x0 PUSH2 0x2F2B DUP4 DUP4 PUSH2 0x3580 JUMP JUMPDEST SWAP1 POP SWAP3 SWAP2 POP POP JUMP JUMPDEST PUSH1 0x60 DUP3 DUP3 PUSH1 0x40 MLOAD PUSH1 0x20 ADD PUSH2 0x2F48 SWAP3 SWAP2 SWAP1 PUSH2 0x5C78 JUMP JUMPDEST PUSH1 0x40 MLOAD PUSH1 0x20 DUP2 DUP4 SUB SUB DUP2 MSTORE SWAP1 PUSH1 0x40 MSTORE SWAP1 POP SWAP3 SWAP2 POP POP JUMP JUMPDEST PUSH1 0x0 PUSH20 0xFFFFFFFFFFFFFFFFFFFFFFFFFFFFFFFFFFFFFFFF AND DUP5 PUSH20 0xFFFFFFFFFFFFFFFFFFFFFFFFFFFFFFFFFFFFFFFF AND SUB PUSH2 0x2FD1 JUMPI PUSH1 0x0 PUSH1 0x40 MLOAD PUSH32 0x57F447CE00000000000000000000000000000000000000000000000000000000 DUP2 MSTORE PUSH1 0x4 ADD PUSH2 0x2FC8 SWAP2 SWAP1 PUSH2 0x5C21 JUMP JUMPDEST PUSH1 0x40 MLOAD DUP1 SWAP2 SUB SWAP1 REVERT JUMPDEST PUSH1 0x0 DUP1 PUSH2 0x2FDE DUP6 DUP6 PUSH2 0x35A8 JUMP JUMPDEST SWAP2 POP SWAP2 POP PUSH2 0x2FF0 PUSH1 0x0 DUP8 DUP5 DUP5 DUP8 PUSH2 0x344D JUMP JUMPDEST POP POP POP POP POP POP JUMP JUMPDEST PUSH1 0x0 PUSH20 0xFFFFFFFFFFFFFFFFFFFFFFFFFFFFFFFFFFFFFFFF AND DUP3 PUSH20 0xFFFFFFFFFFFFFFFFFFFFFFFFFFFFFFFFFFFFFFFF AND SUB PUSH2 0x306A JUMPI PUSH1 0x0 PUSH1 0x40 MLOAD PUSH32 0xCED3E10000000000000000000000000000000000000000000000000000000000 DUP2 MSTORE PUSH1 0x4 ADD PUSH2 0x3061 SWAP2 SWAP1 PUSH2 0x5C21 JUMP JUMPDEST PUSH1 0x40 MLOAD DUP1 SWAP2 SUB SWAP1 REVERT JUMPDEST DUP1 PUSH1 0x1 PUSH1 0x0 DUP6 PUSH20 0xFFFFFFFFFFFFFFFFFFFFFFFFFFFFFFFFFFFFFFFF AND PUSH20 0xFFFFFFFFFFFFFFFFFFFFFFFFFFFFFFFFFFFFFFFF AND DUP2 MSTORE PUSH1 0x20 ADD SWAP1 DUP2 MSTORE PUSH1 0x20 ADD PUSH1 0x0 KECCAK256 PUSH1 0x0 DUP5 PUSH20 0xFFFFFFFFFFFFFFFFFFFFFFFFFFFFFFFFFFFFFFFF AND PUSH20 0xFFFFFFFFFFFFFFFFFFFFFFFFFFFFFFFFFFFFFFFF AND DUP2 MSTORE PUSH1 0x20 ADD SWAP1 DUP2 MSTORE PUSH1 0x20 ADD PUSH1 0x0 KECCAK256 PUSH1 0x0 PUSH2 0x100 EXP DUP2 SLOAD DUP2 PUSH1 0xFF MUL NOT AND SWAP1 DUP4 ISZERO ISZERO MUL OR SWAP1 SSTORE POP DUP2 PUSH20 0xFFFFFFFFFFFFFFFFFFFFFFFFFFFFFFFFFFFFFFFF AND DUP4 PUSH20 0xFFFFFFFFFFFFFFFFFFFFFFFFFFFFFFFFFFFFFFFF AND PUSH32 0x17307EAB39AB6107E8899845AD3D59BD9653F200F220920489CA2B5937696C31 DUP4 PUSH1 0x40 MLOAD PUSH2 0x315B SWAP2 SWAP1 PUSH2 0x42FE JUMP JUMPDEST PUSH1 0x40 MLOAD DUP1 SWAP2 SUB SWAP1 LOG3 POP POP POP JUMP JUMPDEST PUSH1 0x0 PUSH20 0xFFFFFFFFFFFFFFFFFFFFFFFFFFFFFFFFFFFFFFFF AND DUP4 PUSH20 0xFFFFFFFFFFFFFFFFFFFFFFFFFFFFFFFFFFFFFFFF AND SUB PUSH2 0x31DA JUMPI PUSH1 0x0 PUSH1 0x40 MLOAD PUSH32 0x1A8351400000000000000000000000000000000000000000000000000000000 DUP2 MSTORE PUSH1 0x4 ADD PUSH2 0x31D1 SWAP2 SWAP1 PUSH2 0x5C21 JUMP JUMPDEST PUSH1 0x40 MLOAD DUP1 SWAP2 SUB SWAP1 REVERT JUMPDEST PUSH1 0x0 DUP1 PUSH2 0x31E7 DUP5 DUP5 PUSH2 0x35A8 JUMP JUMPDEST SWAP2 POP SWAP2 POP PUSH2 0x3208 DUP6 PUSH1 0x0 DUP5 DUP5 PUSH1 0x40 MLOAD DUP1 PUSH1 0x20 ADD PUSH1 0x40 MSTORE DUP1 PUSH1 0x0 DUP2 MSTORE POP PUSH2 0x344D JUMP JUMPDEST POP POP POP POP POP JUMP JUMPDEST PUSH1 0x0 PUSH20 0xFFFFFFFFFFFFFFFFFFFFFFFFFFFFFFFFFFFFFFFF AND DUP5 PUSH20 0xFFFFFFFFFFFFFFFFFFFFFFFFFFFFFFFFFFFFFFFF AND SUB PUSH2 0x3281 JUMPI PUSH1 0x0 PUSH1 0x40 MLOAD PUSH32 0x57F447CE00000000000000000000000000000000000000000000000000000000 DUP2 MSTORE PUSH1 0x4 ADD PUSH2 0x3278 SWAP2 SWAP1 PUSH2 0x5C21 JUMP JUMPDEST PUSH1 0x40 MLOAD DUP1 SWAP2 SUB SWAP1 REVERT JUMPDEST PUSH1 0x0 PUSH20 0xFFFFFFFFFFFFFFFFFFFFFFFFFFFFFFFFFFFFFFFF AND DUP6 PUSH20 0xFFFFFFFFFFFFFFFFFFFFFFFFFFFFFFFFFFFFFFFF AND SUB PUSH2 0x32F3 JUMPI PUSH1 0x0 PUSH1 0x40 MLOAD PUSH32 0x1A8351400000000000000000000000000000000000000000000000000000000 DUP2 MSTORE PUSH1 0x4 ADD PUSH2 0x32EA SWAP2 SWAP1 PUSH2 0x5C21 JUMP JUMPDEST PUSH1 0x40 MLOAD DUP1 SWAP2 SUB SWAP1 REVERT JUMPDEST PUSH1 0x0 DUP1 PUSH2 0x3300 DUP6 DUP6 PUSH2 0x35A8 JUMP JUMPDEST SWAP2 POP SWAP2 POP PUSH2 0x3311 DUP8 DUP8 DUP5 DUP5 DUP8 PUSH2 0x344D JUMP JUMPDEST POP POP POP POP POP POP POP JUMP JUMPDEST PUSH1 0x0 PUSH32 0xD9B67A2600000000000000000000000000000000000000000000000000000000 PUSH28 0xFFFFFFFFFFFFFFFFFFFFFFFFFFFFFFFFFFFFFFFFFFFFFFFFFFFFFFFF NOT AND DUP3 PUSH28 0xFFFFFFFFFFFFFFFFFFFFFFFFFFFFFFFFFFFFFFFFFFFFFFFFFFFFFFFF NOT AND EQ DUP1 PUSH2 0x33E5 JUMPI POP PUSH32 0xE89341C00000000000000000000000000000000000000000000000000000000 PUSH28 0xFFFFFFFFFFFFFFFFFFFFFFFFFFFFFFFFFFFFFFFFFFFFFFFFFFFFFFFF NOT AND DUP3 PUSH28 0xFFFFFFFFFFFFFFFFFFFFFFFFFFFFFFFFFFFFFFFFFFFFFFFFFFFFFFFF NOT AND EQ JUMPDEST DUP1 PUSH2 0x33F5 JUMPI POP PUSH2 0x33F4 DUP3 PUSH2 0x35D8 JUMP JUMPDEST JUMPDEST SWAP1 POP SWAP2 SWAP1 POP JUMP JUMPDEST PUSH2 0x3406 DUP3 DUP3 PUSH2 0x162A JUMP JUMPDEST PUSH2 0x3449 JUMPI DUP1 DUP3 PUSH1 0x40 MLOAD PUSH32 0xE2517D3F00000000000000000000000000000000000000000000000000000000 DUP2 MSTORE PUSH1 0x4 ADD PUSH2 0x3440 SWAP3 SWAP2 SWAP1 PUSH2 0x5C9C JUMP JUMPDEST PUSH1 0x40 MLOAD DUP1 SWAP2 SUB SWAP1 REVERT JUMPDEST POP POP JUMP JUMPDEST PUSH2 0x3459 DUP6 DUP6 DUP6 DUP6 PUSH2 0x3642 JUMP JUMPDEST PUSH1 0x0 PUSH20 0xFFFFFFFFFFFFFFFFFFFFFFFFFFFFFFFFFFFFFFFF AND DUP5 PUSH20 0xFFFFFFFFFFFFFFFFFFFFFFFFFFFFFFFFFFFFFFFF AND EQ PUSH2 0x34F8 JUMPI PUSH1 0x0 PUSH2 0x3497 PUSH2 0x2AB8 JUMP JUMPDEST SWAP1 POP PUSH1 0x1 DUP5 MLOAD SUB PUSH2 0x34E7 JUMPI PUSH1 0x0 PUSH2 0x34B8 PUSH1 0x0 DUP7 PUSH2 0x2E14 SWAP1 SWAP2 SWAP1 PUSH4 0xFFFFFFFF AND JUMP JUMPDEST SWAP1 POP PUSH1 0x0 PUSH2 0x34D0 PUSH1 0x0 DUP7 PUSH2 0x2E14 SWAP1 SWAP2 SWAP1 PUSH4 0xFFFFFFFF AND JUMP JUMPDEST SWAP1 POP PUSH2 0x34E0 DUP4 DUP10 DUP10 DUP6 DUP6 DUP10 PUSH2 0x3844 JUMP JUMPDEST POP POP PUSH2 0x34F6 JUMP JUMPDEST PUSH2 0x34F5 DUP2 DUP8 DUP8 DUP8 DUP8 DUP8 PUSH2 0x39F8 JUMP JUMPDEST JUMPDEST POP JUMPDEST POP POP POP POP POP JUMP JUMPDEST PUSH2 0x3507 PUSH2 0xCD2 JUMP JUMPDEST PUSH2 0x353D JUMPI PUSH1 0x40 MLOAD PUSH32 0x8DFC202B00000000000000000000000000000000000000000000000000000000 DUP2 MSTORE PUSH1 0x4 ADD PUSH1 0x40 MLOAD DUP1 SWAP2 SUB SWAP1 REVERT JUMPDEST JUMP JUMPDEST PUSH2 0x3547 PUSH2 0xCD2 JUMP JUMPDEST ISZERO PUSH2 0x357E JUMPI PUSH1 0x40 MLOAD PUSH32 0xD93C066500000000000000000000000000000000000000000000000000000000 DUP2 MSTORE PUSH1 0x4 ADD PUSH1 0x40 MLOAD DUP1 SWAP2 SUB SWAP1 REVERT JUMPDEST JUMP JUMPDEST PUSH1 0x0 DUP2 MLOAD DUP4 MLOAD EQ DUP1 ISZERO PUSH2 0x35A0 JUMPI POP DUP2 DUP1 MLOAD SWAP1 PUSH1 0x20 ADD KECCAK256 DUP4 DUP1 MLOAD SWAP1 PUSH1 0x20 ADD KECCAK256 EQ JUMPDEST SWAP1 POP SWAP3 SWAP2 POP POP JUMP JUMPDEST PUSH1 0x60 DUP1 PUSH1 0x40 MLOAD SWAP2 POP PUSH1 0x1 DUP3 MSTORE DUP4 PUSH1 0x20 DUP4 ADD MSTORE PUSH1 0x40 DUP3 ADD SWAP1 POP PUSH1 0x1 DUP2 MSTORE DUP3 PUSH1 0x20 DUP3 ADD MSTORE PUSH1 0x40 DUP2 ADD PUSH1 0x40 MSTORE SWAP3 POP SWAP3 SWAP1 POP JUMP JUMPDEST PUSH1 0x0 PUSH32 0x1FFC9A700000000000000000000000000000000000000000000000000000000 PUSH28 0xFFFFFFFFFFFFFFFFFFFFFFFFFFFFFFFFFFFFFFFFFFFFFFFFFFFFFFFF NOT AND DUP3 PUSH28 0xFFFFFFFFFFFFFFFFFFFFFFFFFFFFFFFFFFFFFFFFFFFFFFFFFFFFFFFF NOT AND EQ SWAP1 POP SWAP2 SWAP1 POP JUMP JUMPDEST PUSH1 0x0 PUSH20 0xFFFFFFFFFFFFFFFFFFFFFFFFFFFFFFFFFFFFFFFF AND DUP5 PUSH20 0xFFFFFFFFFFFFFFFFFFFFFFFFFFFFFFFFFFFFFFFF AND EQ ISZERO DUP1 ISZERO PUSH2 0x36AC JUMPI POP PUSH1 0x0 PUSH20 0xFFFFFFFFFFFFFFFFFFFFFFFFFFFFFFFFFFFFFFFF AND DUP4 PUSH20 0xFFFFFFFFFFFFFFFFFFFFFFFFFFFFFFFFFFFFFFFF AND EQ ISZERO JUMPDEST ISZERO PUSH2 0x3832 JUMPI PUSH1 0x8 PUSH1 0x0 DUP6 PUSH20 0xFFFFFFFFFFFFFFFFFFFFFFFFFFFFFFFFFFFFFFFF AND PUSH20 0xFFFFFFFFFFFFFFFFFFFFFFFFFFFFFFFFFFFFFFFF AND DUP2 MSTORE PUSH1 0x20 ADD SWAP1 DUP2 MSTORE PUSH1 0x20 ADD PUSH1 0x0 KECCAK256 PUSH1 0x2 ADD PUSH1 0x0 SWAP1 SLOAD SWAP1 PUSH2 0x100 EXP SWAP1 DIV PUSH1 0xFF AND DUP1 ISZERO PUSH2 0x3759 JUMPI POP PUSH1 0x8 PUSH1 0x0 DUP5 PUSH20 0xFFFFFFFFFFFFFFFFFFFFFFFFFFFFFFFFFFFFFFFF AND PUSH20 0xFFFFFFFFFFFFFFFFFFFFFFFFFFFFFFFFFFFFFFFF AND DUP2 MSTORE PUSH1 0x20 ADD SWAP1 DUP2 MSTORE PUSH1 0x20 ADD PUSH1 0x0 KECCAK256 PUSH1 0x2 ADD PUSH1 0x0 SWAP1 SLOAD SWAP1 PUSH2 0x100 EXP SWAP1 DIV PUSH1 0xFF AND JUMPDEST PUSH2 0x3798 JUMPI PUSH1 0x40 MLOAD PUSH32 0x8C379A000000000000000000000000000000000000000000000000000000000 DUP2 MSTORE PUSH1 0x4 ADD PUSH2 0x378F SWAP1 PUSH2 0x5D11 JUMP JUMPDEST PUSH1 0x40 MLOAD DUP1 SWAP2 SUB SWAP1 REVERT JUMPDEST PUSH1 0x0 JUMPDEST DUP3 MLOAD DUP2 LT ISZERO PUSH2 0x3830 JUMPI PUSH1 0x0 PUSH1 0x7 PUSH1 0x0 DUP6 DUP5 DUP2 MLOAD DUP2 LT PUSH2 0x37BD JUMPI PUSH2 0x37BC PUSH2 0x5241 JUMP JUMPDEST JUMPDEST PUSH1 0x20 MUL PUSH1 0x20 ADD ADD MLOAD DUP2 MSTORE PUSH1 0x20 ADD SWAP1 DUP2 MSTORE PUSH1 0x20 ADD PUSH1 0x0 KECCAK256 PUSH1 0x0 ADD DUP1 SLOAD PUSH2 0x37E1 SWAP1 PUSH2 0x51BE JUMP JUMPDEST SWAP1 POP GT PUSH2 0x3823 JUMPI PUSH1 0x40 MLOAD PUSH32 0x8C379A000000000000000000000000000000000000000000000000000000000 DUP2 MSTORE PUSH1 0x4 ADD PUSH2 0x381A SWAP1 PUSH2 0x5A21 JUMP JUMPDEST PUSH1 0x40 MLOAD DUP1 SWAP2 SUB SWAP1 REVERT JUMPDEST DUP1 DUP1 PUSH1 0x1 ADD SWAP2 POP POP PUSH2 0x379B JUMP JUMPDEST POP JUMPDEST PUSH2 0x383E DUP5 DUP5 DUP5 DUP5 PUSH2 0x3BAC JUMP JUMPDEST POP POP POP POP JUMP JUMPDEST PUSH1 0x0 DUP5 PUSH20 0xFFFFFFFFFFFFFFFFFFFFFFFFFFFFFFFFFFFFFFFF AND EXTCODESIZE GT ISZERO PUSH2 0x39F0 JUMPI DUP4 PUSH20 0xFFFFFFFFFFFFFFFFFFFFFFFFFFFFFFFFFFFFFFFF AND PUSH4 0xF23A6E61 DUP8 DUP8 DUP7 DUP7 DUP7 PUSH1 0x40 MLOAD DUP7 PUSH4 0xFFFFFFFF AND PUSH1 0xE0 SHL DUP2 MSTORE PUSH1 0x4 ADD PUSH2 0x38A5 SWAP6 SWAP5 SWAP4 SWAP3 SWAP2 SWAP1 PUSH2 0x5D86 JUMP JUMPDEST PUSH1 0x20 PUSH1 0x40 MLOAD DUP1 DUP4 SUB DUP2 PUSH1 0x0 DUP8 GAS CALL SWAP3 POP POP POP DUP1 ISZERO PUSH2 0x38E1 JUMPI POP PUSH1 0x40 MLOAD RETURNDATASIZE PUSH1 0x1F NOT PUSH1 0x1F DUP3 ADD AND DUP3 ADD DUP1 PUSH1 0x40 MSTORE POP DUP2 ADD SWAP1 PUSH2 0x38DE SWAP2 SWAP1 PUSH2 0x5DF5 JUMP JUMPDEST PUSH1 0x1 JUMPDEST PUSH2 0x3965 JUMPI RETURNDATASIZE DUP1 PUSH1 0x0 DUP2 EQ PUSH2 0x3911 JUMPI PUSH1 0x40 MLOAD SWAP2 POP PUSH1 0x1F NOT PUSH1 0x3F RETURNDATASIZE ADD AND DUP3 ADD PUSH1 0x40 MSTORE RETURNDATASIZE DUP3 MSTORE RETURNDATASIZE PUSH1 0x0 PUSH1 0x20 DUP5 ADD RETURNDATACOPY PUSH2 0x3916 JUMP JUMPDEST PUSH1 0x60 SWAP2 POP JUMPDEST POP PUSH1 0x0 DUP2 MLOAD SUB PUSH2 0x395D JUMPI DUP5 PUSH1 0x40 MLOAD PUSH32 0x57F447CE00000000000000000000000000000000000000000000000000000000 DUP2 MSTORE PUSH1 0x4 ADD PUSH2 0x3954 SWAP2 SWAP1 PUSH2 0x5C21 JUMP JUMPDEST PUSH1 0x40 MLOAD DUP1 SWAP2 SUB SWAP1 REVERT JUMPDEST DUP1 MLOAD DUP2 PUSH1 0x20 ADD REVERT JUMPDEST PUSH4 0xF23A6E61 PUSH1 0xE0 SHL PUSH28 0xFFFFFFFFFFFFFFFFFFFFFFFFFFFFFFFFFFFFFFFFFFFFFFFFFFFFFFFF NOT AND DUP2 PUSH28 0xFFFFFFFFFFFFFFFFFFFFFFFFFFFFFFFFFFFFFFFFFFFFFFFFFFFFFFFF NOT AND EQ PUSH2 0x39EE JUMPI DUP5 PUSH1 0x40 MLOAD PUSH32 0x57F447CE00000000000000000000000000000000000000000000000000000000 DUP2 MSTORE PUSH1 0x4 ADD PUSH2 0x39E5 SWAP2 SWAP1 PUSH2 0x5C21 JUMP JUMPDEST PUSH1 0x40 MLOAD DUP1 SWAP2 SUB SWAP1 REVERT JUMPDEST POP JUMPDEST POP POP POP POP POP POP JUMP JUMPDEST PUSH1 0x0 DUP5 PUSH20 0xFFFFFFFFFFFFFFFFFFFFFFFFFFFFFFFFFFFFFFFF AND EXTCODESIZE GT ISZERO PUSH2 0x3BA4 JUMPI DUP4 PUSH20 0xFFFFFFFFFFFFFFFFFFFFFFFFFFFFFFFFFFFFFFFF AND PUSH4 0xBC197C81 DUP8 DUP8 DUP7 DUP7 DUP7 PUSH1 0x40 MLOAD DUP7 PUSH4 0xFFFFFFFF AND PUSH1 0xE0 SHL DUP2 MSTORE PUSH1 0x4 ADD PUSH2 0x3A59 SWAP6 SWAP5 SWAP4 SWAP3 SWAP2 SWAP1 PUSH2 0x5E22 JUMP JUMPDEST PUSH1 0x20 PUSH1 0x40 MLOAD DUP1 DUP4 SUB DUP2 PUSH1 0x0 DUP8 GAS CALL SWAP3 POP POP POP DUP1 ISZERO PUSH2 0x3A95 JUMPI POP PUSH1 0x40 MLOAD RETURNDATASIZE PUSH1 0x1F NOT PUSH1 0x1F DUP3 ADD AND DUP3 ADD DUP1 PUSH1 0x40 MSTORE POP DUP2 ADD SWAP1 PUSH2 0x3A92 SWAP2 SWAP1 PUSH2 0x5DF5 JUMP JUMPDEST PUSH1 0x1 JUMPDEST PUSH2 0x3B19 JUMPI RETURNDATASIZE DUP1 PUSH1 0x0 DUP2 EQ PUSH2 0x3AC5 JUMPI PUSH1 0x40 MLOAD SWAP2 POP PUSH1 0x1F NOT PUSH1 0x3F RETURNDATASIZE ADD AND DUP3 ADD PUSH1 0x40 MSTORE RETURNDATASIZE DUP3 MSTORE RETURNDATASIZE PUSH1 0x0 PUSH1 0x20 DUP5 ADD RETURNDATACOPY PUSH2 0x3ACA JUMP JUMPDEST PUSH1 0x60 SWAP2 POP JUMPDEST POP PUSH1 0x0 DUP2 MLOAD SUB PUSH2 0x3B11 JUMPI DUP5 PUSH1 0x40 MLOAD PUSH32 0x57F447CE00000000000000000000000000000000000000000000000000000000 DUP2 MSTORE PUSH1 0x4 ADD PUSH2 0x3B08 SWAP2 SWAP1 PUSH2 0x5C21 JUMP JUMPDEST PUSH1 0x40 MLOAD DUP1 SWAP2 SUB SWAP1 REVERT JUMPDEST DUP1 MLOAD DUP2 PUSH1 0x20 ADD REVERT JUMPDEST PUSH4 0xBC197C81 PUSH1 0xE0 SHL PUSH28 0xFFFFFFFFFFFFFFFFFFFFFFFFFFFFFFFFFFFFFFFFFFFFFFFFFFFFFFFF NOT AND DUP2 PUSH28 0xFFFFFFFFFFFFFFFFFFFFFFFFFFFFFFFFFFFFFFFFFFFFFFFFFFFFFFFF NOT AND EQ PUSH2 0x3BA2 JUMPI DUP5 PUSH1 0x40 MLOAD PUSH32 0x57F447CE00000000000000000000000000000000000000000000000000000000 DUP2 MSTORE PUSH1 0x4 ADD PUSH2 0x3B99 SWAP2 SWAP1 PUSH2 0x5C21 JUMP JUMPDEST PUSH1 0x40 MLOAD DUP1 SWAP2 SUB SWAP1 REVERT JUMPDEST POP JUMPDEST POP POP POP POP POP POP JUMP JUMPDEST PUSH2 0x3BB8 DUP5 DUP5 DUP5 DUP5 PUSH2 0x3D37 JUMP JUMPDEST PUSH1 0x0 PUSH20 0xFFFFFFFFFFFFFFFFFFFFFFFFFFFFFFFFFFFFFFFF AND DUP5 PUSH20 0xFFFFFFFFFFFFFFFFFFFFFFFFFFFFFFFFFFFFFFFF AND SUB PUSH2 0x3C82 JUMPI PUSH1 0x0 DUP1 JUMPDEST DUP4 MLOAD DUP2 LT ISZERO PUSH2 0x3C66 JUMPI PUSH1 0x0 PUSH2 0x3C0E DUP3 DUP6 PUSH2 0x2E14 SWAP1 SWAP2 SWAP1 PUSH4 0xFFFFFFFF AND JUMP JUMPDEST SWAP1 POP DUP1 PUSH1 0x5 PUSH1 0x0 PUSH2 0x3C28 DUP6 DUP10 PUSH2 0x2E14 SWAP1 SWAP2 SWAP1 PUSH4 0xFFFFFFFF AND JUMP JUMPDEST DUP2 MSTORE PUSH1 0x20 ADD SWAP1 DUP2 MSTORE PUSH1 0x20 ADD PUSH1 0x0 KECCAK256 PUSH1 0x0 DUP3 DUP3 SLOAD PUSH2 0x3C45 SWAP2 SWAP1 PUSH2 0x5E8A JUMP JUMPDEST SWAP3 POP POP DUP2 SWAP1 SSTORE POP DUP1 DUP4 PUSH2 0x3C58 SWAP2 SWAP1 PUSH2 0x5E8A JUMP JUMPDEST SWAP3 POP POP DUP1 PUSH1 0x1 ADD SWAP1 POP PUSH2 0x3BF0 JUMP JUMPDEST POP DUP1 PUSH1 0x6 PUSH1 0x0 DUP3 DUP3 SLOAD PUSH2 0x3C79 SWAP2 SWAP1 PUSH2 0x5E8A JUMP JUMPDEST SWAP3 POP POP DUP2 SWAP1 SSTORE POP POP JUMPDEST PUSH1 0x0 PUSH20 0xFFFFFFFFFFFFFFFFFFFFFFFFFFFFFFFFFFFFFFFF AND DUP4 PUSH20 0xFFFFFFFFFFFFFFFFFFFFFFFFFFFFFFFFFFFFFFFF AND SUB PUSH2 0x3D31 JUMPI PUSH1 0x0 DUP1 JUMPDEST DUP4 MLOAD DUP2 LT ISZERO PUSH2 0x3D1E JUMPI PUSH1 0x0 PUSH2 0x3CD8 DUP3 DUP6 PUSH2 0x2E14 SWAP1 SWAP2 SWAP1 PUSH4 0xFFFFFFFF AND JUMP JUMPDEST SWAP1 POP DUP1 PUSH1 0x5 PUSH1 0x0 PUSH2 0x3CF2 DUP6 DUP10 PUSH2 0x2E14 SWAP1 SWAP2 SWAP1 PUSH4 0xFFFFFFFF AND JUMP JUMPDEST DUP2 MSTORE PUSH1 0x20 ADD SWAP1 DUP2 MSTORE PUSH1 0x20 ADD PUSH1 0x0 KECCAK256 PUSH1 0x0 DUP3 DUP3 SLOAD SUB SWAP3 POP POP DUP2 SWAP1 SSTORE POP DUP1 DUP4 ADD SWAP3 POP POP DUP1 PUSH1 0x1 ADD SWAP1 POP PUSH2 0x3CBA JUMP JUMPDEST POP DUP1 PUSH1 0x6 PUSH1 0x0 DUP3 DUP3 SLOAD SUB SWAP3 POP POP DUP2 SWAP1 SSTORE POP POP JUMPDEST POP POP POP POP JUMP JUMPDEST PUSH2 0x3D3F PUSH2 0x353F JUMP JUMPDEST PUSH2 0x3D4B DUP5 DUP5 DUP5 DUP5 PUSH2 0x3D51 JUMP JUMPDEST POP POP POP POP JUMP JUMPDEST DUP1 MLOAD DUP3 MLOAD EQ PUSH2 0x3D9B JUMPI DUP2 MLOAD DUP2 MLOAD PUSH1 0x40 MLOAD PUSH32 0x5B05999100000000000000000000000000000000000000000000000000000000 DUP2 MSTORE PUSH1 0x4 ADD PUSH2 0x3D92 SWAP3 SWAP2 SWAP1 PUSH2 0x5218 JUMP JUMPDEST PUSH1 0x40 MLOAD DUP1 SWAP2 SUB SWAP1 REVERT JUMPDEST PUSH1 0x0 PUSH2 0x3DA5 PUSH2 0x2AB8 JUMP JUMPDEST SWAP1 POP PUSH1 0x0 JUMPDEST DUP4 MLOAD DUP2 LT ISZERO PUSH2 0x3FB4 JUMPI PUSH1 0x0 PUSH2 0x3DC8 DUP3 DUP7 PUSH2 0x2E14 SWAP1 SWAP2 SWAP1 PUSH4 0xFFFFFFFF AND JUMP JUMPDEST SWAP1 POP PUSH1 0x0 PUSH2 0x3DDF DUP4 DUP7 PUSH2 0x2E14 SWAP1 SWAP2 SWAP1 PUSH4 0xFFFFFFFF AND JUMP JUMPDEST SWAP1 POP PUSH1 0x0 PUSH20 0xFFFFFFFFFFFFFFFFFFFFFFFFFFFFFFFFFFFFFFFF AND DUP9 PUSH20 0xFFFFFFFFFFFFFFFFFFFFFFFFFFFFFFFFFFFFFFFF AND EQ PUSH2 0x3F0C JUMPI PUSH1 0x0 DUP1 PUSH1 0x0 DUP5 DUP2 MSTORE PUSH1 0x20 ADD SWAP1 DUP2 MSTORE PUSH1 0x20 ADD PUSH1 0x0 KECCAK256 PUSH1 0x0 DUP11 PUSH20 0xFFFFFFFFFFFFFFFFFFFFFFFFFFFFFFFFFFFFFFFF AND PUSH20 0xFFFFFFFFFFFFFFFFFFFFFFFFFFFFFFFFFFFFFFFF AND DUP2 MSTORE PUSH1 0x20 ADD SWAP1 DUP2 MSTORE PUSH1 0x20 ADD PUSH1 0x0 KECCAK256 SLOAD SWAP1 POP DUP2 DUP2 LT ISZERO PUSH2 0x3EB4 JUMPI DUP9 DUP2 DUP4 DUP6 PUSH1 0x40 MLOAD PUSH32 0x3DEE4C500000000000000000000000000000000000000000000000000000000 DUP2 MSTORE PUSH1 0x4 ADD PUSH2 0x3EAB SWAP5 SWAP4 SWAP3 SWAP2 SWAP1 PUSH2 0x5EBE JUMP JUMPDEST PUSH1 0x40 MLOAD DUP1 SWAP2 SUB SWAP1 REVERT JUMPDEST DUP2 DUP2 SUB PUSH1 0x0 DUP1 DUP6 DUP2 MSTORE PUSH1 0x20 ADD SWAP1 DUP2 MSTORE PUSH1 0x20 ADD PUSH1 0x0 KECCAK256 PUSH1 0x0 DUP12 PUSH20 0xFFFFFFFFFFFFFFFFFFFFFFFFFFFFFFFFFFFFFFFF AND PUSH20 0xFFFFFFFFFFFFFFFFFFFFFFFFFFFFFFFFFFFFFFFF AND DUP2 MSTORE PUSH1 0x20 ADD SWAP1 DUP2 MSTORE PUSH1 0x20 ADD PUSH1 0x0 KECCAK256 DUP2 SWAP1 SSTORE POP POP JUMPDEST PUSH1 0x0 PUSH20 0xFFFFFFFFFFFFFFFFFFFFFFFFFFFFFFFFFFFFFFFF AND DUP8 PUSH20 0xFFFFFFFFFFFFFFFFFFFFFFFFFFFFFFFFFFFFFFFF AND EQ PUSH2 0x3FA7 JUMPI DUP1 PUSH1 0x0 DUP1 DUP5 DUP2 MSTORE PUSH1 0x20 ADD SWAP1 DUP2 MSTORE PUSH1 0x20 ADD PUSH1 0x0 KECCAK256 PUSH1 0x0 DUP10 PUSH20 0xFFFFFFFFFFFFFFFFFFFFFFFFFFFFFFFFFFFFFFFF AND PUSH20 0xFFFFFFFFFFFFFFFFFFFFFFFFFFFFFFFFFFFFFFFF AND DUP2 MSTORE PUSH1 0x20 ADD SWAP1 DUP2 MSTORE PUSH1 0x20 ADD PUSH1 0x0 KECCAK256 PUSH1 0x0 DUP3 DUP3 SLOAD PUSH2 0x3F9F SWAP2 SWAP1 PUSH2 0x5E8A JUMP JUMPDEST SWAP3 POP POP DUP2 SWAP1 SSTORE POP JUMPDEST POP POP DUP1 PUSH1 0x1 ADD SWAP1 POP PUSH2 0x3DAA JUMP JUMPDEST POP PUSH1 0x1 DUP4 MLOAD SUB PUSH2 0x4073 JUMPI PUSH1 0x0 PUSH2 0x3FD4 PUSH1 0x0 DUP6 PUSH2 0x2E14 SWAP1 SWAP2 SWAP1 PUSH4 0xFFFFFFFF AND JUMP JUMPDEST SWAP1 POP PUSH1 0x0 PUSH2 0x3FEC PUSH1 0x0 DUP6 PUSH2 0x2E14 SWAP1 SWAP2 SWAP1 PUSH4 0xFFFFFFFF AND JUMP JUMPDEST SWAP1 POP DUP6 PUSH20 0xFFFFFFFFFFFFFFFFFFFFFFFFFFFFFFFFFFFFFFFF AND DUP8 PUSH20 0xFFFFFFFFFFFFFFFFFFFFFFFFFFFFFFFFFFFFFFFF AND DUP5 PUSH20 0xFFFFFFFFFFFFFFFFFFFFFFFFFFFFFFFFFFFFFFFF AND PUSH32 0xC3D58168C5AE7397731D063D5BBF3D657854427343F4C083240F7AACAA2D0F62 DUP6 DUP6 PUSH1 0x40 MLOAD PUSH2 0x4064 SWAP3 SWAP2 SWAP1 PUSH2 0x5218 JUMP JUMPDEST PUSH1 0x40 MLOAD DUP1 SWAP2 SUB SWAP1 LOG4 POP POP PUSH2 0x40F2 JUMP JUMPDEST DUP4 PUSH20 0xFFFFFFFFFFFFFFFFFFFFFFFFFFFFFFFFFFFFFFFF AND DUP6 PUSH20 0xFFFFFFFFFFFFFFFFFFFFFFFFFFFFFFFFFFFFFFFF AND DUP3 PUSH20 0xFFFFFFFFFFFFFFFFFFFFFFFFFFFFFFFFFFFFFFFF AND PUSH32 0x4A39DC06D4C0DBC64B70AF90FD698A233A518AA5D07E595D983B8C0526C8F7FB DUP7 DUP7 PUSH1 0x40 MLOAD PUSH2 0x40E9 SWAP3 SWAP2 SWAP1 PUSH2 0x5F03 JUMP JUMPDEST PUSH1 0x40 MLOAD DUP1 SWAP2 SUB SWAP1 LOG4 JUMPDEST POP POP POP POP POP JUMP JUMPDEST PUSH1 0x40 MLOAD DUP1 PUSH1 0xE0 ADD PUSH1 0x40 MSTORE DUP1 PUSH1 0x60 DUP2 MSTORE PUSH1 0x20 ADD PUSH1 0x60 DUP2 MSTORE PUSH1 0x20 ADD PUSH1 0x60 DUP2 MSTORE PUSH1 0x20 ADD PUSH1 0x60 DUP2 MSTORE PUSH1 0x20 ADD PUSH1 0x60 DUP2 MSTORE PUSH1 0x20 ADD PUSH1 0x60 DUP2 MSTORE PUSH1 0x20 ADD PUSH1 0x0 PUSH20 0xFFFFFFFFFFFFFFFFFFFFFFFFFFFFFFFFFFFFFFFF AND DUP2 MSTORE POP SWAP1 JUMP JUMPDEST PUSH1 0x0 PUSH1 0x40 MLOAD SWAP1 POP SWAP1 JUMP JUMPDEST PUSH1 0x0 DUP1 REVERT JUMPDEST PUSH1 0x0 DUP1 REVERT JUMPDEST PUSH1 0x0 PUSH20 0xFFFFFFFFFFFFFFFFFFFFFFFFFFFFFFFFFFFFFFFF DUP3 AND SWAP1 POP SWAP2 SWAP1 POP JUMP JUMPDEST PUSH1 0x0 PUSH2 0x418B DUP3 PUSH2 0x4160 JUMP JUMPDEST SWAP1 POP SWAP2 SWAP1 POP JUMP JUMPDEST PUSH2 0x419B DUP2 PUSH2 0x4180 JUMP JUMPDEST DUP2 EQ PUSH2 0x41A6 JUMPI PUSH1 0x0 DUP1 REVERT JUMPDEST POP JUMP JUMPDEST PUSH1 0x0 DUP2 CALLDATALOAD SWAP1 POP PUSH2 0x41B8 DUP2 PUSH2 0x4192 JUMP JUMPDEST SWAP3 SWAP2 POP POP JUMP JUMPDEST PUSH1 0x0 DUP2 SWAP1 POP SWAP2 SWAP1 POP JUMP JUMPDEST PUSH2 0x41D1 DUP2 PUSH2 0x41BE JUMP JUMPDEST DUP2 EQ PUSH2 0x41DC JUMPI PUSH1 0x0 DUP1 REVERT JUMPDEST POP JUMP JUMPDEST PUSH1 0x0 DUP2 CALLDATALOAD SWAP1 POP PUSH2 0x41EE DUP2 PUSH2 0x41C8 JUMP JUMPDEST SWAP3 SWAP2 POP POP JUMP JUMPDEST PUSH1 0x0 DUP1 PUSH1 0x40 DUP4 DUP6 SUB SLT ISZERO PUSH2 0x420B JUMPI PUSH2 0x420A PUSH2 0x4156 JUMP JUMPDEST JUMPDEST PUSH1 0x0 PUSH2 0x4219 DUP6 DUP3 DUP7 ADD PUSH2 0x41A9 JUMP JUMPDEST SWAP3 POP POP PUSH1 0x20 PUSH2 0x422A DUP6 DUP3 DUP7 ADD PUSH2 0x41DF JUMP JUMPDEST SWAP2 POP POP SWAP3 POP SWAP3 SWAP1 POP JUMP JUMPDEST PUSH2 0x423D DUP2 PUSH2 0x41BE JUMP JUMPDEST DUP3 MSTORE POP POP JUMP JUMPDEST PUSH1 0x0 PUSH1 0x20 DUP3 ADD SWAP1 POP PUSH2 0x4258 PUSH1 0x0 DUP4 ADD DUP5 PUSH2 0x4234 JUMP JUMPDEST SWAP3 SWAP2 POP POP JUMP JUMPDEST PUSH1 0x0 PUSH32 0xFFFFFFFF00000000000000000000000000000000000000000000000000000000 DUP3 AND SWAP1 POP SWAP2 SWAP1 POP JUMP JUMPDEST PUSH2 0x4293 DUP2 PUSH2 0x425E JUMP JUMPDEST DUP2 EQ PUSH2 0x429E JUMPI PUSH1 0x0 DUP1 REVERT JUMPDEST POP JUMP JUMPDEST PUSH1 0x0 DUP2 CALLDATALOAD SWAP1 POP PUSH2 0x42B0 DUP2 PUSH2 0x428A JUMP JUMPDEST SWAP3 SWAP2 POP POP JUMP JUMPDEST PUSH1 0x0 PUSH1 0x20 DUP3 DUP5 SUB SLT ISZERO PUSH2 0x42CC JUMPI PUSH2 0x42CB PUSH2 0x4156 JUMP JUMPDEST JUMPDEST PUSH1 0x0 PUSH2 0x42DA DUP5 DUP3 DUP6 ADD PUSH2 0x42A1 JUMP JUMPDEST SWAP2 POP POP SWAP3 SWAP2 POP POP JUMP JUMPDEST PUSH1 0x0 DUP2 ISZERO ISZERO SWAP1 POP SWAP2 SWAP1 POP JUMP JUMPDEST PUSH2 0x42F8 DUP2 PUSH2 0x42E3 JUMP JUMPDEST DUP3 MSTORE POP POP JUMP JUMPDEST PUSH1 0x0 PUSH1 0x20 DUP3 ADD SWAP1 POP PUSH2 0x4313 PUSH1 0x0 DUP4 ADD DUP5 PUSH2 0x42EF JUMP JUMPDEST SWAP3 SWAP2 POP POP JUMP JUMPDEST PUSH1 0x0 DUP1 REVERT JUMPDEST PUSH1 0x0 DUP1 REVERT JUMPDEST PUSH1 0x0 PUSH1 0x1F NOT PUSH1 0x1F DUP4 ADD AND SWAP1 POP SWAP2 SWAP1 POP JUMP JUMPDEST PUSH32 0x4E487B7100000000000000000000000000000000000000000000000000000000 PUSH1 0x0 MSTORE PUSH1 0x41 PUSH1 0x4 MSTORE PUSH1 0x24 PUSH1 0x0 REVERT JUMPDEST PUSH2 0x436C DUP3 PUSH2 0x4323 JUMP JUMPDEST DUP2 ADD DUP2 DUP2 LT PUSH8 0xFFFFFFFFFFFFFFFF DUP3 GT OR ISZERO PUSH2 0x438B JUMPI PUSH2 0x438A PUSH2 0x4334 JUMP JUMPDEST JUMPDEST DUP1 PUSH1 0x40 MSTORE POP POP POP JUMP JUMPDEST PUSH1 0x0 PUSH2 0x439E PUSH2 0x414C JUMP JUMPDEST SWAP1 POP PUSH2 0x43AA DUP3 DUP3 PUSH2 0x4363 JUMP JUMPDEST SWAP2 SWAP1 POP JUMP JUMPDEST PUSH1 0x0 PUSH8 0xFFFFFFFFFFFFFFFF DUP3 GT ISZERO PUSH2 0x43CA JUMPI PUSH2 0x43C9 PUSH2 0x4334 JUMP JUMPDEST JUMPDEST PUSH2 0x43D3 DUP3 PUSH2 0x4323 JUMP JUMPDEST SWAP1 POP PUSH1 0x20 DUP2 ADD SWAP1 POP SWAP2 SWAP1 POP JUMP JUMPDEST DUP3 DUP2 DUP4 CALLDATACOPY PUSH1 0x0 DUP4 DUP4 ADD MSTORE POP POP POP JUMP JUMPDEST PUSH1 0x0 PUSH2 0x4402 PUSH2 0x43FD DUP5 PUSH2 0x43AF JUMP JUMPDEST PUSH2 0x4394 JUMP JUMPDEST SWAP1 POP DUP3 DUP2 MSTORE PUSH1 0x20 DUP2 ADD DUP5 DUP5 DUP5 ADD GT ISZERO PUSH2 0x441E JUMPI PUSH2 0x441D PUSH2 0x431E JUMP JUMPDEST JUMPDEST PUSH2 0x4429 DUP5 DUP3 DUP6 PUSH2 0x43E0 JUMP JUMPDEST POP SWAP4 SWAP3 POP POP POP JUMP JUMPDEST PUSH1 0x0 DUP3 PUSH1 0x1F DUP4 ADD SLT PUSH2 0x4446 JUMPI PUSH2 0x4445 PUSH2 0x4319 JUMP JUMPDEST JUMPDEST DUP2 CALLDATALOAD PUSH2 0x4456 DUP5 DUP3 PUSH1 0x20 DUP7 ADD PUSH2 0x43EF JUMP JUMPDEST SWAP2 POP POP SWAP3 SWAP2 POP POP JUMP JUMPDEST PUSH1 0x0 PUSH1 0x20 DUP3 DUP5 SUB SLT ISZERO PUSH2 0x4475 JUMPI PUSH2 0x4474 PUSH2 0x4156 JUMP JUMPDEST JUMPDEST PUSH1 0x0 DUP3 ADD CALLDATALOAD PUSH8 0xFFFFFFFFFFFFFFFF DUP2 GT ISZERO PUSH2 0x4493 JUMPI PUSH2 0x4492 PUSH2 0x415B JUMP JUMPDEST JUMPDEST PUSH2 0x449F DUP5 DUP3 DUP6 ADD PUSH2 0x4431 JUMP JUMPDEST SWAP2 POP POP SWAP3 SWAP2 POP POP JUMP JUMPDEST PUSH1 0x0 PUSH1 0x20 DUP3 DUP5 SUB SLT ISZERO PUSH2 0x44BE JUMPI PUSH2 0x44BD PUSH2 0x4156 JUMP JUMPDEST JUMPDEST PUSH1 0x0 PUSH2 0x44CC DUP5 DUP3 DUP6 ADD PUSH2 0x41DF JUMP JUMPDEST SWAP2 POP POP SWAP3 SWAP2 POP POP JUMP JUMPDEST PUSH1 0x0 DUP2 MLOAD SWAP1 POP SWAP2 SWAP1 POP JUMP JUMPDEST PUSH1 0x0 DUP3 DUP3 MSTORE PUSH1 0x20 DUP3 ADD SWAP1 POP SWAP3 SWAP2 POP POP JUMP JUMPDEST PUSH1 0x0 JUMPDEST DUP4 DUP2 LT ISZERO PUSH2 0x450F JUMPI DUP1 DUP3 ADD MLOAD DUP2 DUP5 ADD MSTORE PUSH1 0x20 DUP2 ADD SWAP1 POP PUSH2 0x44F4 JUMP JUMPDEST PUSH1 0x0 DUP5 DUP5 ADD MSTORE POP POP POP POP JUMP JUMPDEST PUSH1 0x0 PUSH2 0x4526 DUP3 PUSH2 0x44D5 JUMP JUMPDEST PUSH2 0x4530 DUP2 DUP6 PUSH2 0x44E0 JUMP JUMPDEST SWAP4 POP PUSH2 0x4540 DUP2 DUP6 PUSH1 0x20 DUP7 ADD PUSH2 0x44F1 JUMP JUMPDEST PUSH2 0x4549 DUP2 PUSH2 0x4323 JUMP JUMPDEST DUP5 ADD SWAP2 POP POP SWAP3 SWAP2 POP POP JUMP JUMPDEST PUSH1 0x0 PUSH1 0x20 DUP3 ADD SWAP1 POP DUP2 DUP2 SUB PUSH1 0x0 DUP4 ADD MSTORE PUSH2 0x456E DUP2 DUP5 PUSH2 0x451B JUMP JUMPDEST SWAP1 POP SWAP3 SWAP2 POP POP JUMP JUMPDEST PUSH1 0x0 DUP2 SWAP1 POP SWAP2 SWAP1 POP JUMP JUMPDEST PUSH2 0x4589 DUP2 PUSH2 0x4576 JUMP JUMPDEST DUP3 MSTORE POP POP JUMP JUMPDEST PUSH1 0x0 PUSH1 0x20 DUP3 ADD SWAP1 POP PUSH2 0x45A4 PUSH1 0x0 DUP4 ADD DUP5 PUSH2 0x4580 JUMP JUMPDEST SWAP3 SWAP2 POP POP JUMP JUMPDEST PUSH1 0x0 PUSH1 0x20 DUP3 DUP5 SUB SLT ISZERO PUSH2 0x45C0 JUMPI PUSH2 0x45BF PUSH2 0x4156 JUMP JUMPDEST JUMPDEST PUSH1 0x0 PUSH2 0x45CE DUP5 DUP3 DUP6 ADD PUSH2 0x41A9 JUMP JUMPDEST SWAP2 POP POP SWAP3 SWAP2 POP POP JUMP JUMPDEST PUSH1 0x0 PUSH1 0x60 DUP3 ADD SWAP1 POP DUP2 DUP2 SUB PUSH1 0x0 DUP4 ADD MSTORE PUSH2 0x45F1 DUP2 DUP7 PUSH2 0x451B JUMP JUMPDEST SWAP1 POP DUP2 DUP2 SUB PUSH1 0x20 DUP4 ADD MSTORE PUSH2 0x4605 DUP2 DUP6 PUSH2 0x451B JUMP JUMPDEST SWAP1 POP PUSH2 0x4614 PUSH1 0x40 DUP4 ADD DUP5 PUSH2 0x42EF JUMP JUMPDEST SWAP5 SWAP4 POP POP POP POP JUMP JUMPDEST PUSH2 0x4625 DUP2 PUSH2 0x4576 JUMP JUMPDEST DUP2 EQ PUSH2 0x4630 JUMPI PUSH1 0x0 DUP1 REVERT JUMPDEST POP JUMP JUMPDEST PUSH1 0x0 DUP2 CALLDATALOAD SWAP1 POP PUSH2 0x4642 DUP2 PUSH2 0x461C JUMP JUMPDEST SWAP3 SWAP2 POP POP JUMP JUMPDEST PUSH1 0x0 PUSH1 0x20 DUP3 DUP5 SUB SLT ISZERO PUSH2 0x465E JUMPI PUSH2 0x465D PUSH2 0x4156 JUMP JUMPDEST JUMPDEST PUSH1 0x0 PUSH2 0x466C DUP5 DUP3 DUP6 ADD PUSH2 0x4633 JUMP JUMPDEST SWAP2 POP POP SWAP3 SWAP2 POP POP JUMP JUMPDEST PUSH1 0x0 PUSH8 0xFFFFFFFFFFFFFFFF DUP3 GT ISZERO PUSH2 0x4690 JUMPI PUSH2 0x468F PUSH2 0x4334 JUMP JUMPDEST JUMPDEST PUSH1 0x20 DUP3 MUL SWAP1 POP PUSH1 0x20 DUP2 ADD SWAP1 POP SWAP2 SWAP1 POP JUMP JUMPDEST PUSH1 0x0 DUP1 REVERT JUMPDEST PUSH1 0x0 PUSH2 0x46B9 PUSH2 0x46B4 DUP5 PUSH2 0x4675 JUMP JUMPDEST PUSH2 0x4394 JUMP JUMPDEST SWAP1 POP DUP1 DUP4 DUP3 MSTORE PUSH1 0x20 DUP3 ADD SWAP1 POP PUSH1 0x20 DUP5 MUL DUP4 ADD DUP6 DUP2 GT ISZERO PUSH2 0x46DC JUMPI PUSH2 0x46DB PUSH2 0x46A1 JUMP JUMPDEST JUMPDEST DUP4 JUMPDEST DUP2 DUP2 LT ISZERO PUSH2 0x4705 JUMPI DUP1 PUSH2 0x46F1 DUP9 DUP3 PUSH2 0x41DF JUMP JUMPDEST DUP5 MSTORE PUSH1 0x20 DUP5 ADD SWAP4 POP POP PUSH1 0x20 DUP2 ADD SWAP1 POP PUSH2 0x46DE JUMP JUMPDEST POP POP POP SWAP4 SWAP3 POP POP POP JUMP JUMPDEST PUSH1 0x0 DUP3 PUSH1 0x1F DUP4 ADD SLT PUSH2 0x4724 JUMPI PUSH2 0x4723 PUSH2 0x4319 JUMP JUMPDEST JUMPDEST DUP2 CALLDATALOAD PUSH2 0x4734 DUP5 DUP3 PUSH1 0x20 DUP7 ADD PUSH2 0x46A6 JUMP JUMPDEST SWAP2 POP POP SWAP3 SWAP2 POP POP JUMP JUMPDEST PUSH1 0x0 PUSH8 0xFFFFFFFFFFFFFFFF DUP3 GT ISZERO PUSH2 0x4758 JUMPI PUSH2 0x4757 PUSH2 0x4334 JUMP JUMPDEST JUMPDEST PUSH2 0x4761 DUP3 PUSH2 0x4323 JUMP JUMPDEST SWAP1 POP PUSH1 0x20 DUP2 ADD SWAP1 POP SWAP2 SWAP1 POP JUMP JUMPDEST PUSH1 0x0 PUSH2 0x4781 PUSH2 0x477C DUP5 PUSH2 0x473D JUMP JUMPDEST PUSH2 0x4394 JUMP JUMPDEST SWAP1 POP DUP3 DUP2 MSTORE PUSH1 0x20 DUP2 ADD DUP5 DUP5 DUP5 ADD GT ISZERO PUSH2 0x479D JUMPI PUSH2 0x479C PUSH2 0x431E JUMP JUMPDEST JUMPDEST PUSH2 0x47A8 DUP5 DUP3 DUP6 PUSH2 0x43E0 JUMP JUMPDEST POP SWAP4 SWAP3 POP POP POP JUMP JUMPDEST PUSH1 0x0 DUP3 PUSH1 0x1F DUP4 ADD SLT PUSH2 0x47C5 JUMPI PUSH2 0x47C4 PUSH2 0x4319 JUMP JUMPDEST JUMPDEST DUP2 CALLDATALOAD PUSH2 0x47D5 DUP5 DUP3 PUSH1 0x20 DUP7 ADD PUSH2 0x476E JUMP JUMPDEST SWAP2 POP POP SWAP3 SWAP2 POP POP JUMP JUMPDEST PUSH1 0x0 DUP1 PUSH1 0x0 DUP1 PUSH1 0x0 PUSH1 0xA0 DUP7 DUP9 SUB SLT ISZERO PUSH2 0x47FA JUMPI PUSH2 0x47F9 PUSH2 0x4156 JUMP JUMPDEST JUMPDEST PUSH1 0x0 PUSH2 0x4808 DUP9 DUP3 DUP10 ADD PUSH2 0x41A9 JUMP JUMPDEST SWAP6 POP POP PUSH1 0x20 PUSH2 0x4819 DUP9 DUP3 DUP10 ADD PUSH2 0x41A9 JUMP JUMPDEST SWAP5 POP POP PUSH1 0x40 DUP7 ADD CALLDATALOAD PUSH8 0xFFFFFFFFFFFFFFFF DUP2 GT ISZERO PUSH2 0x483A JUMPI PUSH2 0x4839 PUSH2 0x415B JUMP JUMPDEST JUMPDEST PUSH2 0x4846 DUP9 DUP3 DUP10 ADD PUSH2 0x470F JUMP JUMPDEST SWAP4 POP POP PUSH1 0x60 DUP7 ADD CALLDATALOAD PUSH8 0xFFFFFFFFFFFFFFFF DUP2 GT ISZERO PUSH2 0x4867 JUMPI PUSH2 0x4866 PUSH2 0x415B JUMP JUMPDEST JUMPDEST PUSH2 0x4873 DUP9 DUP3 DUP10 ADD PUSH2 0x470F JUMP JUMPDEST SWAP3 POP POP PUSH1 0x80 DUP7 ADD CALLDATALOAD PUSH8 0xFFFFFFFFFFFFFFFF DUP2 GT ISZERO PUSH2 0x4894 JUMPI PUSH2 0x4893 PUSH2 0x415B JUMP JUMPDEST JUMPDEST PUSH2 0x48A0 DUP9 DUP3 DUP10 ADD PUSH2 0x47B0 JUMP JUMPDEST SWAP2 POP POP SWAP3 SWAP6 POP SWAP3 SWAP6 SWAP1 SWAP4 POP JUMP JUMPDEST PUSH1 0x0 DUP1 PUSH1 0x40 DUP4 DUP6 SUB SLT ISZERO PUSH2 0x48C4 JUMPI PUSH2 0x48C3 PUSH2 0x4156 JUMP JUMPDEST JUMPDEST PUSH1 0x0 PUSH2 0x48D2 DUP6 DUP3 DUP7 ADD PUSH2 0x4633 JUMP JUMPDEST SWAP3 POP POP PUSH1 0x20 PUSH2 0x48E3 DUP6 DUP3 DUP7 ADD PUSH2 0x41A9 JUMP JUMPDEST SWAP2 POP POP SWAP3 POP SWAP3 SWAP1 POP JUMP JUMPDEST PUSH1 0x0 PUSH8 0xFFFFFFFFFFFFFFFF DUP3 GT ISZERO PUSH2 0x4908 JUMPI PUSH2 0x4907 PUSH2 0x4334 JUMP JUMPDEST JUMPDEST PUSH1 0x20 DUP3 MUL SWAP1 POP PUSH1 0x20 DUP2 ADD SWAP1 POP SWAP2 SWAP1 POP JUMP JUMPDEST PUSH1 0x0 PUSH2 0x492C PUSH2 0x4927 DUP5 PUSH2 0x48ED JUMP JUMPDEST PUSH2 0x4394 JUMP JUMPDEST SWAP1 POP DUP1 DUP4 DUP3 MSTORE PUSH1 0x20 DUP3 ADD SWAP1 POP PUSH1 0x20 DUP5 MUL DUP4 ADD DUP6 DUP2 GT ISZERO PUSH2 0x494F JUMPI PUSH2 0x494E PUSH2 0x46A1 JUMP JUMPDEST JUMPDEST DUP4 JUMPDEST DUP2 DUP2 LT ISZERO PUSH2 0x4978 JUMPI DUP1 PUSH2 0x4964 DUP9 DUP3 PUSH2 0x41A9 JUMP JUMPDEST DUP5 MSTORE PUSH1 0x20 DUP5 ADD SWAP4 POP POP PUSH1 0x20 DUP2 ADD SWAP1 POP PUSH2 0x4951 JUMP JUMPDEST POP POP POP SWAP4 SWAP3 POP POP POP JUMP JUMPDEST PUSH1 0x0 DUP3 PUSH1 0x1F DUP4 ADD SLT PUSH2 0x4997 JUMPI PUSH2 0x4996 PUSH2 0x4319 JUMP JUMPDEST JUMPDEST DUP2 CALLDATALOAD PUSH2 0x49A7 DUP5 DUP3 PUSH1 0x20 DUP7 ADD PUSH2 0x4919 JUMP JUMPDEST SWAP2 POP POP SWAP3 SWAP2 POP POP JUMP JUMPDEST PUSH1 0x0 DUP1 PUSH1 0x40 DUP4 DUP6 SUB SLT ISZERO PUSH2 0x49C7 JUMPI PUSH2 0x49C6 PUSH2 0x4156 JUMP JUMPDEST JUMPDEST PUSH1 0x0 DUP4 ADD CALLDATALOAD PUSH8 0xFFFFFFFFFFFFFFFF DUP2 GT ISZERO PUSH2 0x49E5 JUMPI PUSH2 0x49E4 PUSH2 0x415B JUMP JUMPDEST JUMPDEST PUSH2 0x49F1 DUP6 DUP3 DUP7 ADD PUSH2 0x4982 JUMP JUMPDEST SWAP3 POP POP PUSH1 0x20 DUP4 ADD CALLDATALOAD PUSH8 0xFFFFFFFFFFFFFFFF DUP2 GT ISZERO PUSH2 0x4A12 JUMPI PUSH2 0x4A11 PUSH2 0x415B JUMP JUMPDEST JUMPDEST PUSH2 0x4A1E DUP6 DUP3 DUP7 ADD PUSH2 0x470F JUMP JUMPDEST SWAP2 POP POP SWAP3 POP SWAP3 SWAP1 POP JUMP JUMPDEST PUSH1 0x0 DUP2 MLOAD SWAP1 POP SWAP2 SWAP1 POP JUMP JUMPDEST PUSH1 0x0 DUP3 DUP3 MSTORE PUSH1 0x20 DUP3 ADD SWAP1 POP SWAP3 SWAP2 POP POP JUMP JUMPDEST PUSH1 0x0 DUP2 SWAP1 POP PUSH1 0x20 DUP3 ADD SWAP1 POP SWAP2 SWAP1 POP JUMP JUMPDEST PUSH2 0x4A5D DUP2 PUSH2 0x41BE JUMP JUMPDEST DUP3 MSTORE POP POP JUMP JUMPDEST PUSH1 0x0 PUSH2 0x4A6F DUP4 DUP4 PUSH2 0x4A54 JUMP JUMPDEST PUSH1 0x20 DUP4 ADD SWAP1 POP SWAP3 SWAP2 POP POP JUMP JUMPDEST PUSH1 0x0 PUSH1 0x20 DUP3 ADD SWAP1 POP SWAP2 SWAP1 POP JUMP JUMPDEST PUSH1 0x0 PUSH2 0x4A93 DUP3 PUSH2 0x4A28 JUMP JUMPDEST PUSH2 0x4A9D DUP2 DUP6 PUSH2 0x4A33 JUMP JUMPDEST SWAP4 POP PUSH2 0x4AA8 DUP4 PUSH2 0x4A44 JUMP JUMPDEST DUP1 PUSH1 0x0 JUMPDEST DUP4 DUP2 LT ISZERO PUSH2 0x4AD9 JUMPI DUP2 MLOAD PUSH2 0x4AC0 DUP9 DUP3 PUSH2 0x4A63 JUMP JUMPDEST SWAP8 POP PUSH2 0x4ACB DUP4 PUSH2 0x4A7B JUMP JUMPDEST SWAP3 POP POP PUSH1 0x1 DUP2 ADD SWAP1 POP PUSH2 0x4AAC JUMP JUMPDEST POP DUP6 SWAP4 POP POP POP POP SWAP3 SWAP2 POP POP JUMP JUMPDEST PUSH1 0x0 PUSH1 0x20 DUP3 ADD SWAP1 POP DUP2 DUP2 SUB PUSH1 0x0 DUP4 ADD MSTORE PUSH2 0x4B00 DUP2 DUP5 PUSH2 0x4A88 JUMP JUMPDEST SWAP1 POP SWAP3 SWAP2 POP POP JUMP JUMPDEST PUSH2 0x4B11 DUP2 PUSH2 0x4180 JUMP JUMPDEST DUP3 MSTORE POP POP JUMP JUMPDEST PUSH1 0x0 PUSH1 0xE0 DUP3 ADD SWAP1 POP DUP2 DUP2 SUB PUSH1 0x0 DUP4 ADD MSTORE PUSH2 0x4B31 DUP2 DUP11 PUSH2 0x451B JUMP JUMPDEST SWAP1 POP DUP2 DUP2 SUB PUSH1 0x20 DUP4 ADD MSTORE PUSH2 0x4B45 DUP2 DUP10 PUSH2 0x451B JUMP JUMPDEST SWAP1 POP DUP2 DUP2 SUB PUSH1 0x40 DUP4 ADD MSTORE PUSH2 0x4B59 DUP2 DUP9 PUSH2 0x451B JUMP JUMPDEST SWAP1 POP DUP2 DUP2 SUB PUSH1 0x60 DUP4 ADD MSTORE PUSH2 0x4B6D DUP2 DUP8 PUSH2 0x451B JUMP JUMPDEST SWAP1 POP DUP2 DUP2 SUB PUSH1 0x80 DUP4 ADD MSTORE PUSH2 0x4B81 DUP2 DUP7 PUSH2 0x451B JUMP JUMPDEST SWAP1 POP DUP2 DUP2 SUB PUSH1 0xA0 DUP4 ADD MSTORE PUSH2 0x4B95 DUP2 DUP6 PUSH2 0x451B JUMP JUMPDEST SWAP1 POP PUSH2 0x4BA4 PUSH1 0xC0 DUP4 ADD DUP5 PUSH2 0x4B08 JUMP JUMPDEST SWAP9 SWAP8 POP POP POP POP POP POP POP POP JUMP JUMPDEST PUSH1 0x0 DUP1 PUSH1 0x0 PUSH1 0x60 DUP5 DUP7 SUB SLT ISZERO PUSH2 0x4BC9 JUMPI PUSH2 0x4BC8 PUSH2 0x4156 JUMP JUMPDEST JUMPDEST PUSH1 0x0 PUSH2 0x4BD7 DUP7 DUP3 DUP8 ADD PUSH2 0x41A9 JUMP JUMPDEST SWAP4 POP POP PUSH1 0x20 DUP5 ADD CALLDATALOAD PUSH8 0xFFFFFFFFFFFFFFFF DUP2 GT ISZERO PUSH2 0x4BF8 JUMPI PUSH2 0x4BF7 PUSH2 0x415B JUMP JUMPDEST JUMPDEST PUSH2 0x4C04 DUP7 DUP3 DUP8 ADD PUSH2 0x470F JUMP JUMPDEST SWAP3 POP POP PUSH1 0x40 DUP5 ADD CALLDATALOAD PUSH8 0xFFFFFFFFFFFFFFFF DUP2 GT ISZERO PUSH2 0x4C25 JUMPI PUSH2 0x4C24 PUSH2 0x415B JUMP JUMPDEST JUMPDEST PUSH2 0x4C31 DUP7 DUP3 DUP8 ADD PUSH2 0x470F JUMP JUMPDEST SWAP2 POP POP SWAP3 POP SWAP3 POP SWAP3 JUMP JUMPDEST PUSH1 0x0 DUP1 PUSH1 0x0 PUSH1 0x60 DUP5 DUP7 SUB SLT ISZERO PUSH2 0x4C54 JUMPI PUSH2 0x4C53 PUSH2 0x4156 JUMP JUMPDEST JUMPDEST PUSH1 0x0 PUSH2 0x4C62 DUP7 DUP3 DUP8 ADD PUSH2 0x41A9 JUMP JUMPDEST SWAP4 POP POP PUSH1 0x20 PUSH2 0x4C73 DUP7 DUP3 DUP8 ADD PUSH2 0x41DF JUMP JUMPDEST SWAP3 POP POP PUSH1 0x40 PUSH2 0x4C84 DUP7 DUP3 DUP8 ADD PUSH2 0x41DF JUMP JUMPDEST SWAP2 POP POP SWAP3 POP SWAP3 POP SWAP3 JUMP JUMPDEST PUSH1 0x0 DUP1 PUSH1 0x0 DUP1 PUSH1 0x0 DUP1 PUSH1 0x0 PUSH1 0xE0 DUP9 DUP11 SUB SLT ISZERO PUSH2 0x4CAD JUMPI PUSH2 0x4CAC PUSH2 0x4156 JUMP JUMPDEST JUMPDEST PUSH1 0x0 PUSH2 0x4CBB DUP11 DUP3 DUP12 ADD PUSH2 0x41DF JUMP JUMPDEST SWAP8 POP POP PUSH1 0x20 DUP9 ADD CALLDATALOAD PUSH8 0xFFFFFFFFFFFFFFFF DUP2 GT ISZERO PUSH2 0x4CDC JUMPI PUSH2 0x4CDB PUSH2 0x415B JUMP JUMPDEST JUMPDEST PUSH2 0x4CE8 DUP11 DUP3 DUP12 ADD PUSH2 0x4431 JUMP JUMPDEST SWAP7 POP POP PUSH1 0x40 DUP9 ADD CALLDATALOAD PUSH8 0xFFFFFFFFFFFFFFFF DUP2 GT ISZERO PUSH2 0x4D09 JUMPI PUSH2 0x4D08 PUSH2 0x415B JUMP JUMPDEST JUMPDEST PUSH2 0x4D15 DUP11 DUP3 DUP12 ADD PUSH2 0x4431 JUMP JUMPDEST SWAP6 POP POP PUSH1 0x60 DUP9 ADD CALLDATALOAD PUSH8 0xFFFFFFFFFFFFFFFF DUP2 GT ISZERO PUSH2 0x4D36 JUMPI PUSH2 0x4D35 PUSH2 0x415B JUMP JUMPDEST JUMPDEST PUSH2 0x4D42 DUP11 DUP3 DUP12 ADD PUSH2 0x4431 JUMP JUMPDEST SWAP5 POP POP PUSH1 0x80 DUP9 ADD CALLDATALOAD PUSH8 0xFFFFFFFFFFFFFFFF DUP2 GT ISZERO PUSH2 0x4D63 JUMPI PUSH2 0x4D62 PUSH2 0x415B JUMP JUMPDEST JUMPDEST PUSH2 0x4D6F DUP11 DUP3 DUP12 ADD PUSH2 0x4431 JUMP JUMPDEST SWAP4 POP POP PUSH1 0xA0 DUP9 ADD CALLDATALOAD PUSH8 0xFFFFFFFFFFFFFFFF DUP2 GT ISZERO PUSH2 0x4D90 JUMPI PUSH2 0x4D8F PUSH2 0x415B JUMP JUMPDEST JUMPDEST PUSH2 0x4D9C DUP11 DUP3 DUP12 ADD PUSH2 0x4431 JUMP JUMPDEST SWAP3 POP POP PUSH1 0xC0 DUP9 ADD CALLDATALOAD PUSH8 0xFFFFFFFFFFFFFFFF DUP2 GT ISZERO PUSH2 0x4DBD JUMPI PUSH2 0x4DBC PUSH2 0x415B JUMP JUMPDEST JUMPDEST PUSH2 0x4DC9 DUP11 DUP3 DUP12 ADD PUSH2 0x4431 JUMP JUMPDEST SWAP2 POP POP SWAP3 SWAP6 SWAP9 SWAP2 SWAP5 SWAP8 POP SWAP3 SWAP6 POP JUMP JUMPDEST PUSH2 0x4DE1 DUP2 PUSH2 0x42E3 JUMP JUMPDEST DUP2 EQ PUSH2 0x4DEC JUMPI PUSH1 0x0 DUP1 REVERT JUMPDEST POP JUMP JUMPDEST PUSH1 0x0 DUP2 CALLDATALOAD SWAP1 POP PUSH2 0x4DFE DUP2 PUSH2 0x4DD8 JUMP JUMPDEST SWAP3 SWAP2 POP POP JUMP JUMPDEST PUSH1 0x0 DUP1 PUSH1 0x40 DUP4 DUP6 SUB SLT ISZERO PUSH2 0x4E1B JUMPI PUSH2 0x4E1A PUSH2 0x4156 JUMP JUMPDEST JUMPDEST PUSH1 0x0 PUSH2 0x4E29 DUP6 DUP3 DUP7 ADD PUSH2 0x41A9 JUMP JUMPDEST SWAP3 POP POP PUSH1 0x20 PUSH2 0x4E3A DUP6 DUP3 DUP7 ADD PUSH2 0x4DEF JUMP JUMPDEST SWAP2 POP POP SWAP3 POP SWAP3 SWAP1 POP JUMP JUMPDEST PUSH1 0x0 PUSH1 0xFF DUP3 AND SWAP1 POP SWAP2 SWAP1 POP JUMP JUMPDEST PUSH2 0x4E5A DUP2 PUSH2 0x4E44 JUMP JUMPDEST DUP3 MSTORE POP POP JUMP JUMPDEST PUSH1 0x0 PUSH1 0xA0 DUP3 ADD SWAP1 POP PUSH2 0x4E75 PUSH1 0x0 DUP4 ADD DUP9 PUSH2 0x4B08 JUMP JUMPDEST PUSH2 0x4E82 PUSH1 0x20 DUP4 ADD DUP8 PUSH2 0x4B08 JUMP JUMPDEST PUSH2 0x4E8F PUSH1 0x40 DUP4 ADD DUP7 PUSH2 0x4234 JUMP JUMPDEST PUSH2 0x4E9C PUSH1 0x60 DUP4 ADD DUP6 PUSH2 0x4234 JUMP JUMPDEST PUSH2 0x4EA9 PUSH1 0x80 DUP4 ADD DUP5 PUSH2 0x4E51 JUMP JUMPDEST SWAP7 SWAP6 POP POP POP POP POP POP JUMP JUMPDEST PUSH1 0x0 DUP1 PUSH1 0x40 DUP4 DUP6 SUB SLT ISZERO PUSH2 0x4ECA JUMPI PUSH2 0x4EC9 PUSH2 0x4156 JUMP JUMPDEST JUMPDEST PUSH1 0x0 PUSH2 0x4ED8 DUP6 DUP3 DUP7 ADD PUSH2 0x41DF JUMP JUMPDEST SWAP3 POP POP PUSH1 0x20 PUSH2 0x4EE9 DUP6 DUP3 DUP7 ADD PUSH2 0x41DF JUMP JUMPDEST SWAP2 POP POP SWAP3 POP SWAP3 SWAP1 POP JUMP JUMPDEST PUSH1 0x0 DUP3 DUP3 MSTORE PUSH1 0x20 DUP3 ADD SWAP1 POP SWAP3 SWAP2 POP POP JUMP JUMPDEST PUSH1 0x0 PUSH2 0x4F0F DUP3 PUSH2 0x44D5 JUMP JUMPDEST PUSH2 0x4F19 DUP2 DUP6 PUSH2 0x4EF3 JUMP JUMPDEST SWAP4 POP PUSH2 0x4F29 DUP2 DUP6 PUSH1 0x20 DUP7 ADD PUSH2 0x44F1 JUMP JUMPDEST PUSH2 0x4F32 DUP2 PUSH2 0x4323 JUMP JUMPDEST DUP5 ADD SWAP2 POP POP SWAP3 SWAP2 POP POP JUMP JUMPDEST PUSH2 0x4F46 DUP2 PUSH2 0x4180 JUMP JUMPDEST DUP3 MSTORE POP POP JUMP JUMPDEST PUSH1 0x0 PUSH1 0xE0 DUP4 ADD PUSH1 0x0 DUP4 ADD MLOAD DUP5 DUP3 SUB PUSH1 0x0 DUP7 ADD MSTORE PUSH2 0x4F69 DUP3 DUP3 PUSH2 0x4F04 JUMP JUMPDEST SWAP2 POP POP PUSH1 0x20 DUP4 ADD MLOAD DUP5 DUP3 SUB PUSH1 0x20 DUP7 ADD MSTORE PUSH2 0x4F83 DUP3 DUP3 PUSH2 0x4F04 JUMP JUMPDEST SWAP2 POP POP PUSH1 0x40 DUP4 ADD MLOAD DUP5 DUP3 SUB PUSH1 0x40 DUP7 ADD MSTORE PUSH2 0x4F9D DUP3 DUP3 PUSH2 0x4F04 JUMP JUMPDEST SWAP2 POP POP PUSH1 0x60 DUP4 ADD MLOAD DUP5 DUP3 SUB PUSH1 0x60 DUP7 ADD MSTORE PUSH2 0x4FB7 DUP3 DUP3 PUSH2 0x4F04 JUMP JUMPDEST SWAP2 POP POP PUSH1 0x80 DUP4 ADD MLOAD DUP5 DUP3 SUB PUSH1 0x80 DUP7 ADD MSTORE PUSH2 0x4FD1 DUP3 DUP3 PUSH2 0x4F04 JUMP JUMPDEST SWAP2 POP POP PUSH1 0xA0 DUP4 ADD MLOAD DUP5 DUP3 SUB PUSH1 0xA0 DUP7 ADD MSTORE PUSH2 0x4FEB DUP3 DUP3 PUSH2 0x4F04 JUMP JUMPDEST SWAP2 POP POP PUSH1 0xC0 DUP4 ADD MLOAD PUSH2 0x5000 PUSH1 0xC0 DUP7 ADD DUP3 PUSH2 0x4F3D JUMP JUMPDEST POP DUP1 SWAP2 POP POP SWAP3 SWAP2 POP POP JUMP JUMPDEST PUSH1 0x0 PUSH1 0x20 DUP3 ADD SWAP1 POP DUP2 DUP2 SUB PUSH1 0x0 DUP4 ADD MSTORE PUSH2 0x5025 DUP2 DUP5 PUSH2 0x4F4C JUMP JUMPDEST SWAP1 POP SWAP3 SWAP2 POP POP JUMP JUMPDEST PUSH1 0x0 DUP1 PUSH1 0x40 DUP4 DUP6 SUB SLT ISZERO PUSH2 0x5044 JUMPI PUSH2 0x5043 PUSH2 0x4156 JUMP JUMPDEST JUMPDEST PUSH1 0x0 PUSH2 0x5052 DUP6 DUP3 DUP7 ADD PUSH2 0x41A9 JUMP JUMPDEST SWAP3 POP POP PUSH1 0x20 PUSH2 0x5063 DUP6 DUP3 DUP7 ADD PUSH2 0x41A9 JUMP JUMPDEST SWAP2 POP POP SWAP3 POP SWAP3 SWAP1 POP JUMP JUMPDEST PUSH1 0x0 DUP1 PUSH1 0x0 DUP1 PUSH1 0x0 PUSH1 0xA0 DUP7 DUP9 SUB SLT ISZERO PUSH2 0x5089 JUMPI PUSH2 0x5088 PUSH2 0x4156 JUMP JUMPDEST JUMPDEST PUSH1 0x0 PUSH2 0x5097 DUP9 DUP3 DUP10 ADD PUSH2 0x41A9 JUMP JUMPDEST SWAP6 POP POP PUSH1 0x20 PUSH2 0x50A8 DUP9 DUP3 DUP10 ADD PUSH2 0x41A9 JUMP JUMPDEST SWAP5 POP POP PUSH1 0x40 PUSH2 0x50B9 DUP9 DUP3 DUP10 ADD PUSH2 0x41DF JUMP JUMPDEST SWAP4 POP POP PUSH1 0x60 PUSH2 0x50CA DUP9 DUP3 DUP10 ADD PUSH2 0x41DF JUMP JUMPDEST SWAP3 POP POP PUSH1 0x80 DUP7 ADD CALLDATALOAD PUSH8 0xFFFFFFFFFFFFFFFF DUP2 GT ISZERO PUSH2 0x50EB JUMPI PUSH2 0x50EA PUSH2 0x415B JUMP JUMPDEST JUMPDEST PUSH2 0x50F7 DUP9 DUP3 DUP10 ADD PUSH2 0x47B0 JUMP JUMPDEST SWAP2 POP POP SWAP3 SWAP6 POP SWAP3 SWAP6 SWAP1 SWAP4 POP JUMP JUMPDEST PUSH1 0x0 DUP1 PUSH1 0x0 PUSH1 0x60 DUP5 DUP7 SUB SLT ISZERO PUSH2 0x511D JUMPI PUSH2 0x511C PUSH2 0x4156 JUMP JUMPDEST JUMPDEST PUSH1 0x0 PUSH2 0x512B DUP7 DUP3 DUP8 ADD PUSH2 0x41A9 JUMP JUMPDEST SWAP4 POP POP PUSH1 0x20 DUP5 ADD CALLDATALOAD PUSH8 0xFFFFFFFFFFFFFFFF DUP2 GT ISZERO PUSH2 0x514C JUMPI PUSH2 0x514B PUSH2 0x415B JUMP JUMPDEST JUMPDEST PUSH2 0x5158 DUP7 DUP3 DUP8 ADD PUSH2 0x4431 JUMP JUMPDEST SWAP3 POP POP PUSH1 0x40 DUP5 ADD CALLDATALOAD PUSH8 0xFFFFFFFFFFFFFFFF DUP2 GT ISZERO PUSH2 0x5179 JUMPI PUSH2 0x5178 PUSH2 0x415B JUMP JUMPDEST JUMPDEST PUSH2 0x5185 DUP7 DUP3 DUP8 ADD PUSH2 0x4431 JUMP JUMPDEST SWAP2 POP POP SWAP3 POP SWAP3 POP SWAP3 JUMP JUMPDEST PUSH32 0x4E487B7100000000000000000000000000000000000000000000000000000000 PUSH1 0x0 MSTORE PUSH1 0x22 PUSH1 0x4 MSTORE PUSH1 0x24 PUSH1 0x0 REVERT JUMPDEST PUSH1 0x0 PUSH1 0x2 DUP3 DIV SWAP1 POP PUSH1 0x1 DUP3 AND DUP1 PUSH2 0x51D6 JUMPI PUSH1 0x7F DUP3 AND SWAP2 POP JUMPDEST PUSH1 0x20 DUP3 LT DUP2 SUB PUSH2 0x51E9 JUMPI PUSH2 0x51E8 PUSH2 0x518F JUMP JUMPDEST JUMPDEST POP SWAP2 SWAP1 POP JUMP JUMPDEST PUSH1 0x0 PUSH1 0x40 DUP3 ADD SWAP1 POP PUSH2 0x5204 PUSH1 0x0 DUP4 ADD DUP6 PUSH2 0x4B08 JUMP JUMPDEST PUSH2 0x5211 PUSH1 0x20 DUP4 ADD DUP5 PUSH2 0x4B08 JUMP JUMPDEST SWAP4 SWAP3 POP POP POP JUMP JUMPDEST PUSH1 0x0 PUSH1 0x40 DUP3 ADD SWAP1 POP PUSH2 0x522D PUSH1 0x0 DUP4 ADD DUP6 PUSH2 0x4234 JUMP JUMPDEST PUSH2 0x523A PUSH1 0x20 DUP4 ADD DUP5 PUSH2 0x4234 JUMP JUMPDEST SWAP4 SWAP3 POP POP POP JUMP JUMPDEST PUSH32 0x4E487B7100000000000000000000000000000000000000000000000000000000 PUSH1 0x0 MSTORE PUSH1 0x32 PUSH1 0x4 MSTORE PUSH1 0x24 PUSH1 0x0 REVERT JUMPDEST PUSH32 0x496E76616C6964206C696272617279206F7220626F6F6B000000000000000000 PUSH1 0x0 DUP3 ADD MSTORE POP JUMP JUMPDEST PUSH1 0x0 PUSH2 0x52A6 PUSH1 0x17 DUP4 PUSH2 0x44E0 JUMP JUMPDEST SWAP2 POP PUSH2 0x52B1 DUP3 PUSH2 0x5270 JUMP JUMPDEST PUSH1 0x20 DUP3 ADD SWAP1 POP SWAP2 SWAP1 POP JUMP JUMPDEST PUSH1 0x0 PUSH1 0x20 DUP3 ADD SWAP1 POP DUP2 DUP2 SUB PUSH1 0x0 DUP4 ADD MSTORE PUSH2 0x52D5 DUP2 PUSH2 0x5299 JUMP JUMPDEST SWAP1 POP SWAP2 SWAP1 POP JUMP JUMPDEST PUSH32 0x496E73756666696369656E7420626F6F6B730000000000000000000000000000 PUSH1 0x0 DUP3 ADD MSTORE POP JUMP JUMPDEST PUSH1 0x0 PUSH2 0x5312 PUSH1 0x12 DUP4 PUSH2 0x44E0 JUMP JUMPDEST SWAP2 POP PUSH2 0x531D DUP3 PUSH2 0x52DC JUMP JUMPDEST PUSH1 0x20 DUP3 ADD SWAP1 POP SWAP2 SWAP1 POP JUMP JUMPDEST PUSH1 0x0 PUSH1 0x20 DUP3 ADD SWAP1 POP DUP2 DUP2 SUB PUSH1 0x0 DUP4 ADD MSTORE PUSH2 0x5341 DUP2 PUSH2 0x5305 JUMP JUMPDEST SWAP1 POP SWAP2 SWAP1 POP JUMP JUMPDEST PUSH32 0x4E487B7100000000000000000000000000000000000000000000000000000000 PUSH1 0x0 MSTORE PUSH1 0x11 PUSH1 0x4 MSTORE PUSH1 0x24 PUSH1 0x0 REVERT JUMPDEST PUSH1 0x0 PUSH2 0x5382 DUP3 PUSH2 0x41BE JUMP JUMPDEST SWAP2 POP PUSH32 0xFFFFFFFFFFFFFFFFFFFFFFFFFFFFFFFFFFFFFFFFFFFFFFFFFFFFFFFFFFFFFFFF DUP3 SUB PUSH2 0x53B4 JUMPI PUSH2 0x53B3 PUSH2 0x5348 JUMP JUMPDEST JUMPDEST PUSH1 0x1 DUP3 ADD SWAP1 POP SWAP2 SWAP1 POP JUMP JUMPDEST PUSH1 0x0 PUSH1 0x80 DUP3 ADD SWAP1 POP PUSH2 0x53D4 PUSH1 0x0 DUP4 ADD DUP8 PUSH2 0x4234 JUMP JUMPDEST PUSH2 0x53E1 PUSH1 0x20 DUP4 ADD DUP7 PUSH2 0x4B08 JUMP JUMPDEST PUSH2 0x53EE PUSH1 0x40 DUP4 ADD DUP6 PUSH2 0x4B08 JUMP JUMPDEST PUSH2 0x53FB PUSH1 0x60 DUP4 ADD DUP5 PUSH2 0x4234 JUMP JUMPDEST SWAP6 SWAP5 POP POP POP POP POP JUMP JUMPDEST PUSH32 0x4C69627261727920646F6573206E6F7420657869737400000000000000000000 PUSH1 0x0 DUP3 ADD MSTORE POP JUMP JUMPDEST PUSH1 0x0 PUSH2 0x543A PUSH1 0x16 DUP4 PUSH2 0x44E0 JUMP JUMPDEST SWAP2 POP PUSH2 0x5445 DUP3 PUSH2 0x5404 JUMP JUMPDEST PUSH1 0x20 DUP3 ADD SWAP1 POP SWAP2 SWAP1 POP JUMP JUMPDEST PUSH1 0x0 PUSH1 0x20 DUP3 ADD SWAP1 POP DUP2 DUP2 SUB PUSH1 0x0 DUP4 ADD MSTORE PUSH2 0x5469 DUP2 PUSH2 0x542D JUMP JUMPDEST SWAP1 POP SWAP2 SWAP1 POP JUMP JUMPDEST PUSH32 0x496E76616C6964206C6962726172790000000000000000000000000000000000 PUSH1 0x0 DUP3 ADD MSTORE POP JUMP JUMPDEST PUSH1 0x0 PUSH2 0x54A6 PUSH1 0xF DUP4 PUSH2 0x44E0 JUMP JUMPDEST SWAP2 POP PUSH2 0x54B1 DUP3 PUSH2 0x5470 JUMP JUMPDEST PUSH1 0x20 DUP3 ADD SWAP1 POP SWAP2 SWAP1 POP JUMP JUMPDEST PUSH1 0x0 PUSH1 0x20 DUP3 ADD SWAP1 POP DUP2 DUP2 SUB PUSH1 0x0 DUP4 ADD MSTORE PUSH2 0x54D5 DUP2 PUSH2 0x5499 JUMP JUMPDEST SWAP1 POP SWAP2 SWAP1 POP JUMP JUMPDEST PUSH32 0x426F6F6B20657869737473000000000000000000000000000000000000000000 PUSH1 0x0 DUP3 ADD MSTORE POP JUMP JUMPDEST PUSH1 0x0 PUSH2 0x5512 PUSH1 0xB DUP4 PUSH2 0x44E0 JUMP JUMPDEST SWAP2 POP PUSH2 0x551D DUP3 PUSH2 0x54DC JUMP JUMPDEST PUSH1 0x20 DUP3 ADD SWAP1 POP SWAP2 SWAP1 POP JUMP JUMPDEST PUSH1 0x0 PUSH1 0x20 DUP3 ADD SWAP1 POP DUP2 DUP2 SUB PUSH1 0x0 DUP4 ADD MSTORE PUSH2 0x5541 DUP2 PUSH2 0x5505 JUMP JUMPDEST SWAP1 POP SWAP2 SWAP1 POP JUMP JUMPDEST PUSH32 0x496E76616C696420626F6F6B2064617461000000000000000000000000000000 PUSH1 0x0 DUP3 ADD MSTORE POP JUMP JUMPDEST PUSH1 0x0 PUSH2 0x557E PUSH1 0x11 DUP4 PUSH2 0x44E0 JUMP JUMPDEST SWAP2 POP PUSH2 0x5589 DUP3 PUSH2 0x5548 JUMP JUMPDEST PUSH1 0x20 DUP3 ADD SWAP1 POP SWAP2 SWAP1 POP JUMP JUMPDEST PUSH1 0x0 PUSH1 0x20 DUP3 ADD SWAP1 POP DUP2 DUP2 SUB PUSH1 0x0 DUP4 ADD MSTORE PUSH2 0x55AD DUP2 PUSH2 0x5571 JUMP JUMPDEST SWAP1 POP SWAP2 SWAP1 POP JUMP JUMPDEST PUSH1 0x0 DUP2 SWAP1 POP DUP2 PUSH1 0x0 MSTORE PUSH1 0x20 PUSH1 0x0 KECCAK256 SWAP1 POP SWAP2 SWAP1 POP JUMP JUMPDEST PUSH1 0x0 PUSH1 0x20 PUSH1 0x1F DUP4 ADD DIV SWAP1 POP SWAP2 SWAP1 POP JUMP JUMPDEST PUSH1 0x0 DUP3 DUP3 SHL SWAP1 POP SWAP3 SWAP2 POP POP JUMP JUMPDEST PUSH1 0x0 PUSH1 0x8 DUP4 MUL PUSH2 0x5616 PUSH32 0xFFFFFFFFFFFFFFFFFFFFFFFFFFFFFFFFFFFFFFFFFFFFFFFFFFFFFFFFFFFFFFFF DUP3 PUSH2 0x55D9 JUMP JUMPDEST PUSH2 0x5620 DUP7 DUP4 PUSH2 0x55D9 JUMP JUMPDEST SWAP6 POP DUP1 NOT DUP5 AND SWAP4 POP DUP1 DUP7 AND DUP5 OR SWAP3 POP POP POP SWAP4 SWAP3 POP POP POP JUMP JUMPDEST PUSH1 0x0 DUP2 SWAP1 POP SWAP2 SWAP1 POP JUMP JUMPDEST PUSH1 0x0 PUSH2 0x565D PUSH2 0x5658 PUSH2 0x5653 DUP5 PUSH2 0x41BE JUMP JUMPDEST PUSH2 0x5638 JUMP JUMPDEST PUSH2 0x41BE JUMP JUMPDEST SWAP1 POP SWAP2 SWAP1 POP JUMP JUMPDEST PUSH1 0x0 DUP2 SWAP1 POP SWAP2 SWAP1 POP JUMP JUMPDEST PUSH2 0x5677 DUP4 PUSH2 0x5642 JUMP JUMPDEST PUSH2 0x568B PUSH2 0x5683 DUP3 PUSH2 0x5664 JUMP JUMPDEST DUP5 DUP5 SLOAD PUSH2 0x55E6 JUMP JUMPDEST DUP3 SSTORE POP POP POP POP JUMP JUMPDEST PUSH1 0x0 SWAP1 JUMP JUMPDEST PUSH2 0x56A0 PUSH2 0x5693 JUMP JUMPDEST PUSH2 0x56AB DUP2 DUP5 DUP5 PUSH2 0x566E JUMP JUMPDEST POP POP POP JUMP JUMPDEST JUMPDEST DUP2 DUP2 LT ISZERO PUSH2 0x56CF JUMPI PUSH2 0x56C4 PUSH1 0x0 DUP3 PUSH2 0x5698 JUMP JUMPDEST PUSH1 0x1 DUP2 ADD SWAP1 POP PUSH2 0x56B1 JUMP JUMPDEST POP POP JUMP JUMPDEST PUSH1 0x1F DUP3 GT ISZERO PUSH2 0x5714 JUMPI PUSH2 0x56E5 DUP2 PUSH2 0x55B4 JUMP JUMPDEST PUSH2 0x56EE DUP5 PUSH2 0x55C9 JUMP JUMPDEST DUP2 ADD PUSH1 0x20 DUP6 LT ISZERO PUSH2 0x56FD JUMPI DUP2 SWAP1 POP JUMPDEST PUSH2 0x5711 PUSH2 0x5709 DUP6 PUSH2 0x55C9 JUMP JUMPDEST DUP4 ADD DUP3 PUSH2 0x56B0 JUMP JUMPDEST POP POP JUMPDEST POP POP POP JUMP JUMPDEST PUSH1 0x0 DUP3 DUP3 SHR SWAP1 POP SWAP3 SWAP2 POP POP JUMP JUMPDEST PUSH1 0x0 PUSH2 0x5737 PUSH1 0x0 NOT DUP5 PUSH1 0x8 MUL PUSH2 0x5719 JUMP JUMPDEST NOT DUP1 DUP4 AND SWAP2 POP POP SWAP3 SWAP2 POP POP JUMP JUMPDEST PUSH1 0x0 PUSH2 0x5750 DUP4 DUP4 PUSH2 0x5726 JUMP JUMPDEST SWAP2 POP DUP3 PUSH1 0x2 MUL DUP3 OR SWAP1 POP SWAP3 SWAP2 POP POP JUMP JUMPDEST PUSH2 0x5769 DUP3 PUSH2 0x44D5 JUMP JUMPDEST PUSH8 0xFFFFFFFFFFFFFFFF DUP2 GT ISZERO PUSH2 0x5782 JUMPI PUSH2 0x5781 PUSH2 0x4334 JUMP JUMPDEST JUMPDEST PUSH2 0x578C DUP3 SLOAD PUSH2 0x51BE JUMP JUMPDEST PUSH2 0x5797 DUP3 DUP3 DUP6 PUSH2 0x56D3 JUMP JUMPDEST PUSH1 0x0 PUSH1 0x20 SWAP1 POP PUSH1 0x1F DUP4 GT PUSH1 0x1 DUP2 EQ PUSH2 0x57CA JUMPI PUSH1 0x0 DUP5 ISZERO PUSH2 0x57B8 JUMPI DUP3 DUP8 ADD MLOAD SWAP1 POP JUMPDEST PUSH2 0x57C2 DUP6 DUP3 PUSH2 0x5744 JUMP JUMPDEST DUP7 SSTORE POP PUSH2 0x582A JUMP JUMPDEST PUSH1 0x1F NOT DUP5 AND PUSH2 0x57D8 DUP7 PUSH2 0x55B4 JUMP JUMPDEST PUSH1 0x0 JUMPDEST DUP3 DUP2 LT ISZERO PUSH2 0x5800 JUMPI DUP5 DUP10 ADD MLOAD DUP3 SSTORE PUSH1 0x1 DUP3 ADD SWAP2 POP PUSH1 0x20 DUP6 ADD SWAP5 POP PUSH1 0x20 DUP2 ADD SWAP1 POP PUSH2 0x57DB JUMP JUMPDEST DUP7 DUP4 LT ISZERO PUSH2 0x581D JUMPI DUP5 DUP10 ADD MLOAD PUSH2 0x5819 PUSH1 0x1F DUP10 AND DUP3 PUSH2 0x5726 JUMP JUMPDEST DUP4 SSTORE POP JUMPDEST PUSH1 0x1 PUSH1 0x2 DUP9 MUL ADD DUP9 SSTORE POP POP POP JUMPDEST POP POP POP POP POP POP JUMP JUMPDEST PUSH1 0x0 PUSH1 0x60 DUP3 ADD SWAP1 POP PUSH2 0x5847 PUSH1 0x0 DUP4 ADD DUP7 PUSH2 0x4234 JUMP JUMPDEST DUP2 DUP2 SUB PUSH1 0x20 DUP4 ADD MSTORE PUSH2 0x5859 DUP2 DUP6 PUSH2 0x451B JUMP JUMPDEST SWAP1 POP DUP2 DUP2 SUB PUSH1 0x40 DUP4 ADD MSTORE PUSH2 0x586D DUP2 DUP5 PUSH2 0x451B JUMP JUMPDEST SWAP1 POP SWAP5 SWAP4 POP POP POP POP JUMP JUMPDEST PUSH32 0x496E76616C696420617070726F76616C00000000000000000000000000000000 PUSH1 0x0 DUP3 ADD MSTORE POP JUMP JUMPDEST PUSH1 0x0 PUSH2 0x58AD PUSH1 0x10 DUP4 PUSH2 0x44E0 JUMP JUMPDEST SWAP2 POP PUSH2 0x58B8 DUP3 PUSH2 0x5877 JUMP JUMPDEST PUSH1 0x20 DUP3 ADD SWAP1 POP SWAP2 SWAP1 POP JUMP JUMPDEST PUSH1 0x0 PUSH1 0x20 DUP3 ADD SWAP1 POP DUP2 DUP2 SUB PUSH1 0x0 DUP4 ADD MSTORE PUSH2 0x58DC DUP2 PUSH2 0x58A0 JUMP JUMPDEST SWAP1 POP SWAP2 SWAP1 POP JUMP JUMPDEST PUSH1 0x0 PUSH1 0x40 DUP3 ADD SWAP1 POP PUSH2 0x58F8 PUSH1 0x0 DUP4 ADD DUP6 PUSH2 0x4234 JUMP JUMPDEST PUSH2 0x5905 PUSH1 0x20 DUP4 ADD DUP5 PUSH2 0x4B08 JUMP JUMPDEST SWAP4 SWAP3 POP POP POP JUMP JUMPDEST PUSH32 0x426F6F6B20696E737469747574696F6E20697320646966666572656E74206672 PUSH1 0x0 DUP3 ADD MSTORE PUSH32 0x6F6D2073656E6465720000000000000000000000000000000000000000000000 PUSH1 0x20 DUP3 ADD MSTORE POP JUMP JUMPDEST PUSH1 0x0 PUSH2 0x5968 PUSH1 0x29 DUP4 PUSH2 0x44E0 JUMP JUMPDEST SWAP2 POP PUSH2 0x5973 DUP3 PUSH2 0x590C JUMP JUMPDEST PUSH1 0x40 DUP3 ADD SWAP1 POP SWAP2 SWAP1 POP JUMP JUMPDEST PUSH1 0x0 PUSH1 0x20 DUP3 ADD SWAP1 POP DUP2 DUP2 SUB PUSH1 0x0 DUP4 ADD MSTORE PUSH2 0x5997 DUP2 PUSH2 0x595B JUMP JUMPDEST SWAP1 POP SWAP2 SWAP1 POP JUMP JUMPDEST PUSH1 0x0 PUSH1 0x60 DUP3 ADD SWAP1 POP PUSH2 0x59B3 PUSH1 0x0 DUP4 ADD DUP7 PUSH2 0x4234 JUMP JUMPDEST PUSH2 0x59C0 PUSH1 0x20 DUP4 ADD DUP6 PUSH2 0x4B08 JUMP JUMPDEST PUSH2 0x59CD PUSH1 0x40 DUP4 ADD DUP5 PUSH2 0x4234 JUMP JUMPDEST SWAP5 SWAP4 POP POP POP POP JUMP JUMPDEST PUSH32 0x426F6F6B20646F6573206E6F7420657869737400000000000000000000000000 PUSH1 0x0 DUP3 ADD MSTORE POP JUMP JUMPDEST PUSH1 0x0 PUSH2 0x5A0B PUSH1 0x13 DUP4 PUSH2 0x44E0 JUMP JUMPDEST SWAP2 POP PUSH2 0x5A16 DUP3 PUSH2 0x59D5 JUMP JUMPDEST PUSH1 0x20 DUP3 ADD SWAP1 POP SWAP2 SWAP1 POP JUMP JUMPDEST PUSH1 0x0 PUSH1 0x20 DUP3 ADD SWAP1 POP DUP2 DUP2 SUB PUSH1 0x0 DUP4 ADD MSTORE PUSH2 0x5A3A DUP2 PUSH2 0x59FE JUMP JUMPDEST SWAP1 POP SWAP2 SWAP1 POP JUMP JUMPDEST PUSH32 0x496E76616C69642072657475726E000000000000000000000000000000000000 PUSH1 0x0 DUP3 ADD MSTORE POP JUMP JUMPDEST PUSH1 0x0 PUSH2 0x5A77 PUSH1 0xE DUP4 PUSH2 0x44E0 JUMP JUMPDEST SWAP2 POP PUSH2 0x5A82 DUP3 PUSH2 0x5A41 JUMP JUMPDEST PUSH1 0x20 DUP3 ADD SWAP1 POP SWAP2 SWAP1 POP JUMP JUMPDEST PUSH1 0x0 PUSH1 0x20 DUP3 ADD SWAP1 POP DUP2 DUP2 SUB PUSH1 0x0 DUP4 ADD MSTORE PUSH2 0x5AA6 DUP2 PUSH2 0x5A6A JUMP JUMPDEST SWAP1 POP SWAP2 SWAP1 POP JUMP JUMPDEST PUSH32 0x4C69627261727920657869737473000000000000000000000000000000000000 PUSH1 0x0 DUP3 ADD MSTORE POP JUMP JUMPDEST PUSH1 0x0 PUSH2 0x5AE3 PUSH1 0xE DUP4 PUSH2 0x44E0 JUMP JUMPDEST SWAP2 POP PUSH2 0x5AEE DUP3 PUSH2 0x5AAD JUMP JUMPDEST PUSH1 0x20 DUP3 ADD SWAP1 POP SWAP2 SWAP1 POP JUMP JUMPDEST PUSH1 0x0 PUSH1 0x20 DUP3 ADD SWAP1 POP DUP2 DUP2 SUB PUSH1 0x0 DUP4 ADD MSTORE PUSH2 0x5B12 DUP2 PUSH2 0x5AD6 JUMP JUMPDEST SWAP1 POP SWAP2 SWAP1 POP JUMP JUMPDEST PUSH32 0x496E76616C696420696E70757400000000000000000000000000000000000000 PUSH1 0x0 DUP3 ADD MSTORE POP JUMP JUMPDEST PUSH1 0x0 PUSH2 0x5B4F PUSH1 0xD DUP4 PUSH2 0x44E0 JUMP JUMPDEST SWAP2 POP PUSH2 0x5B5A DUP3 PUSH2 0x5B19 JUMP JUMPDEST PUSH1 0x20 DUP3 ADD SWAP1 POP SWAP2 SWAP1 POP JUMP JUMPDEST PUSH1 0x0 PUSH1 0x20 DUP3 ADD SWAP1 POP DUP2 DUP2 SUB PUSH1 0x0 DUP4 ADD MSTORE PUSH2 0x5B7E DUP2 PUSH2 0x5B42 JUMP JUMPDEST SWAP1 POP SWAP2 SWAP1 POP JUMP JUMPDEST PUSH1 0x0 PUSH1 0x40 DUP3 ADD SWAP1 POP PUSH2 0x5B9A PUSH1 0x0 DUP4 ADD DUP6 PUSH2 0x4B08 JUMP JUMPDEST DUP2 DUP2 SUB PUSH1 0x20 DUP4 ADD MSTORE PUSH2 0x5BAC DUP2 DUP5 PUSH2 0x451B JUMP JUMPDEST SWAP1 POP SWAP4 SWAP3 POP POP POP JUMP JUMPDEST PUSH32 0x496E76616C6964207472616E7366657200000000000000000000000000000000 PUSH1 0x0 DUP3 ADD MSTORE POP JUMP JUMPDEST PUSH1 0x0 PUSH2 0x5BEB PUSH1 0x10 DUP4 PUSH2 0x44E0 JUMP JUMPDEST SWAP2 POP PUSH2 0x5BF6 DUP3 PUSH2 0x5BB5 JUMP JUMPDEST PUSH1 0x20 DUP3 ADD SWAP1 POP SWAP2 SWAP1 POP JUMP JUMPDEST PUSH1 0x0 PUSH1 0x20 DUP3 ADD SWAP1 POP DUP2 DUP2 SUB PUSH1 0x0 DUP4 ADD MSTORE PUSH2 0x5C1A DUP2 PUSH2 0x5BDE JUMP JUMPDEST SWAP1 POP SWAP2 SWAP1 POP JUMP JUMPDEST PUSH1 0x0 PUSH1 0x20 DUP3 ADD SWAP1 POP PUSH2 0x5C36 PUSH1 0x0 DUP4 ADD DUP5 PUSH2 0x4B08 JUMP JUMPDEST SWAP3 SWAP2 POP POP JUMP JUMPDEST PUSH1 0x0 DUP2 SWAP1 POP SWAP3 SWAP2 POP POP JUMP JUMPDEST PUSH1 0x0 PUSH2 0x5C52 DUP3 PUSH2 0x44D5 JUMP JUMPDEST PUSH2 0x5C5C DUP2 DUP6 PUSH2 0x5C3C JUMP JUMPDEST SWAP4 POP PUSH2 0x5C6C DUP2 DUP6 PUSH1 0x20 DUP7 ADD PUSH2 0x44F1 JUMP JUMPDEST DUP1 DUP5 ADD SWAP2 POP POP SWAP3 SWAP2 POP POP JUMP JUMPDEST PUSH1 0x0 PUSH2 0x5C84 DUP3 DUP6 PUSH2 0x5C47 JUMP JUMPDEST SWAP2 POP PUSH2 0x5C90 DUP3 DUP5 PUSH2 0x5C47 JUMP JUMPDEST SWAP2 POP DUP2 SWAP1 POP SWAP4 SWAP3 POP POP POP JUMP JUMPDEST PUSH1 0x0 PUSH1 0x40 DUP3 ADD SWAP1 POP PUSH2 0x5CB1 PUSH1 0x0 DUP4 ADD DUP6 PUSH2 0x4B08 JUMP JUMPDEST PUSH2 0x5CBE PUSH1 0x20 DUP4 ADD DUP5 PUSH2 0x4580 JUMP JUMPDEST SWAP4 SWAP3 POP POP POP JUMP JUMPDEST PUSH32 0x496E76616C6964206C6962726172696573000000000000000000000000000000 PUSH1 0x0 DUP3 ADD MSTORE POP JUMP JUMPDEST PUSH1 0x0 PUSH2 0x5CFB PUSH1 0x11 DUP4 PUSH2 0x44E0 JUMP JUMPDEST SWAP2 POP PUSH2 0x5D06 DUP3 PUSH2 0x5CC5 JUMP JUMPDEST PUSH1 0x20 DUP3 ADD SWAP1 POP SWAP2 SWAP1 POP JUMP JUMPDEST PUSH1 0x0 PUSH1 0x20 DUP3 ADD SWAP1 POP DUP2 DUP2 SUB PUSH1 0x0 DUP4 ADD MSTORE PUSH2 0x5D2A DUP2 PUSH2 0x5CEE JUMP JUMPDEST SWAP1 POP SWAP2 SWAP1 POP JUMP JUMPDEST PUSH1 0x0 DUP2 MLOAD SWAP1 POP SWAP2 SWAP1 POP JUMP JUMPDEST PUSH1 0x0 DUP3 DUP3 MSTORE PUSH1 0x20 DUP3 ADD SWAP1 POP SWAP3 SWAP2 POP POP JUMP JUMPDEST PUSH1 0x0 PUSH2 0x5D58 DUP3 PUSH2 0x5D31 JUMP JUMPDEST PUSH2 0x5D62 DUP2 DUP6 PUSH2 0x5D3C JUMP JUMPDEST SWAP4 POP PUSH2 0x5D72 DUP2 DUP6 PUSH1 0x20 DUP7 ADD PUSH2 0x44F1 JUMP JUMPDEST PUSH2 0x5D7B DUP2 PUSH2 0x4323 JUMP JUMPDEST DUP5 ADD SWAP2 POP POP SWAP3 SWAP2 POP POP JUMP JUMPDEST PUSH1 0x0 PUSH1 0xA0 DUP3 ADD SWAP1 POP PUSH2 0x5D9B PUSH1 0x0 DUP4 ADD DUP9 PUSH2 0x4B08 JUMP JUMPDEST PUSH2 0x5DA8 PUSH1 0x20 DUP4 ADD DUP8 PUSH2 0x4B08 JUMP JUMPDEST PUSH2 0x5DB5 PUSH1 0x40 DUP4 ADD DUP7 PUSH2 0x4234 JUMP JUMPDEST PUSH2 0x5DC2 PUSH1 0x60 DUP4 ADD DUP6 PUSH2 0x4234 JUMP JUMPDEST DUP2 DUP2 SUB PUSH1 0x80 DUP4 ADD MSTORE PUSH2 0x5DD4 DUP2 DUP5 PUSH2 0x5D4D JUMP JUMPDEST SWAP1 POP SWAP7 SWAP6 POP POP POP POP POP POP JUMP JUMPDEST PUSH1 0x0 DUP2 MLOAD SWAP1 POP PUSH2 0x5DEF DUP2 PUSH2 0x428A JUMP JUMPDEST SWAP3 SWAP2 POP POP JUMP JUMPDEST PUSH1 0x0 PUSH1 0x20 DUP3 DUP5 SUB SLT ISZERO PUSH2 0x5E0B JUMPI PUSH2 0x5E0A PUSH2 0x4156 JUMP JUMPDEST JUMPDEST PUSH1 0x0 PUSH2 0x5E19 DUP5 DUP3 DUP6 ADD PUSH2 0x5DE0 JUMP JUMPDEST SWAP2 POP POP SWAP3 SWAP2 POP POP JUMP JUMPDEST PUSH1 0x0 PUSH1 0xA0 DUP3 ADD SWAP1 POP PUSH2 0x5E37 PUSH1 0x0 DUP4 ADD DUP9 PUSH2 0x4B08 JUMP JUMPDEST PUSH2 0x5E44 PUSH1 0x20 DUP4 ADD DUP8 PUSH2 0x4B08 JUMP JUMPDEST DUP2 DUP2 SUB PUSH1 0x40 DUP4 ADD MSTORE PUSH2 0x5E56 DUP2 DUP7 PUSH2 0x4A88 JUMP JUMPDEST SWAP1 POP DUP2 DUP2 SUB PUSH1 0x60 DUP4 ADD MSTORE PUSH2 0x5E6A DUP2 DUP6 PUSH2 0x4A88 JUMP JUMPDEST SWAP1 POP DUP2 DUP2 SUB PUSH1 0x80 DUP4 ADD MSTORE PUSH2 0x5E7E DUP2 DUP5 PUSH2 0x5D4D JUMP JUMPDEST SWAP1 POP SWAP7 SWAP6 POP POP POP POP POP POP JUMP JUMPDEST PUSH1 0x0 PUSH2 0x5E95 DUP3 PUSH2 0x41BE JUMP JUMPDEST SWAP2 POP PUSH2 0x5EA0 DUP4 PUSH2 0x41BE JUMP JUMPDEST SWAP3 POP DUP3 DUP3 ADD SWAP1 POP DUP1 DUP3 GT ISZERO PUSH2 0x5EB8 JUMPI PUSH2 0x5EB7 PUSH2 0x5348 JUMP JUMPDEST JUMPDEST SWAP3 SWAP2 POP POP JUMP JUMPDEST PUSH1 0x0 PUSH1 0x80 DUP3 ADD SWAP1 POP PUSH2 0x5ED3 PUSH1 0x0 DUP4 ADD DUP8 PUSH2 0x4B08 JUMP JUMPDEST PUSH2 0x5EE0 PUSH1 0x20 DUP4 ADD DUP7 PUSH2 0x4234 JUMP JUMPDEST PUSH2 0x5EED PUSH1 0x40 DUP4 ADD DUP6 PUSH2 0x4234 JUMP JUMPDEST PUSH2 0x5EFA PUSH1 0x60 DUP4 ADD DUP5 PUSH2 0x4234 JUMP JUMPDEST SWAP6 SWAP5 POP POP POP POP POP JUMP JUMPDEST PUSH1 0x0 PUSH1 0x40 DUP3 ADD SWAP1 POP DUP2 DUP2 SUB PUSH1 0x0 DUP4 ADD MSTORE PUSH2 0x5F1D DUP2 DUP6 PUSH2 0x4A88 JUMP JUMPDEST SWAP1 POP DUP2 DUP2 SUB PUSH1 0x20 DUP4 ADD MSTORE PUSH2 0x5F31 DUP2 DUP5 PUSH2 0x4A88 JUMP JUMPDEST SWAP1 POP SWAP4 SWAP3 POP POP POP JUMP INVALID LOG2 PUSH5 0x6970667358 0x22 SLT KECCAK256 0xBD 0x2B 0xDE 0xDB 0xDB PUSH7 0xC17A084DD25759 PUSH5 0xD9E96D6E6 0xC4 SIGNEXTEND PC 0xC9 0xDA PUSH19 0x708A73686462DB64736F6C634300081B003368 PUSH21 0x7470733A2F2F63686F636F6C6174652D62697A6172 PUSH19 0x652D73696C766572666973682D3731322E6D79 PUSH17 0x696E6174612E636C6F75642F697066732F "},"methodIdentifiers":{"DEFAULT_ADMIN_ROLE()":"a217fddf","LIBRARY_ROLE()":"8dd25c9a","USER_ROLE()":"13119161","approveLoan(uint256)":"aadc1ac1","balanceOf(address,uint256)":"00fdd58e","balanceOfBatch(address[],uint256[])":"4e1273f4","books(uint256)":"68744046","burn(address,uint256,uint256)":"f5298aca","burnBatch(address,uint256[],uint256[])":"6b20c454","exists(uint256)":"4f558e79","getBook(uint256)":"e0ff5b8b","getLibrary(address)":"7bfa3753","getRoleAdmin(bytes32)":"248a9ca3","grantRole(bytes32,address)":"2f2ff15d","hasRole(bytes32,address)":"91d14854","isApprovedForAll(address,address)":"e985e9c5","libraries(address)":"21df30e1","loanRequests(uint256)":"d1b332f4","mint(uint256,string,string,string,string,string,string)":"9422c910","mintRestock(uint256,uint256)":"d9ea610f","nextBookId()":"7cf52d96","nextLoanId()":"87c51459","pause()":"8456cb59","paused()":"5c975abb","registerLibrary(address,string,string)":"f6933078","renounceRole(bytes32,address)":"36568abe","requestLoan(address,uint256,uint256)":"6f77ff55","returnLoan(uint256)":"e9126154","revokeRole(bytes32,address)":"d547741f","safeBatchTransferFrom(address,address,uint256[],uint256[],bytes)":"2eb2c2d6","safeTransferFrom(address,address,uint256,uint256,bytes)":"f242432a","setApprovalForAll(address,bool)":"a22cb465","setURI(string)":"02fe5305","supportsInterface(bytes4)":"01ffc9a7","totalSupply()":"18160ddd","totalSupply(uint256)":"bd85b039","transferBetweenLibraries(address,address,uint256,uint256,bytes)":"f7d34803","unpause()":"3f4ba83a","uri(uint256)":"0e89341c"}}}}}